{
	"contracts/MainContract.sol": {
		"Main": {
			"abi": [
				{
					"inputs": [],
					"name": "checkAge",
					"outputs": [],
					"stateMutability": "nonpayable",
					"type": "function"
				},
				{
					"inputs": [],
					"name": "countNumber",
					"outputs": [
						{
							"internalType": "uint256",
							"name": "",
							"type": "uint256"
						}
					],
					"stateMutability": "view",
					"type": "function"
				},
				{
					"inputs": [],
					"name": "getLength",
					"outputs": [
						{
							"internalType": "uint256",
							"name": "",
							"type": "uint256"
						}
					],
					"stateMutability": "view",
					"type": "function"
				},
				{
					"inputs": [
						{
							"internalType": "uint256",
							"name": "_newAge",
							"type": "uint256"
						}
					],
					"name": "getMyAge",
					"outputs": [],
					"stateMutability": "nonpayable",
					"type": "function"
				},
				{
					"inputs": [],
					"name": "hello",
					"outputs": [
						{
							"internalType": "string",
							"name": "",
							"type": "string"
						}
					],
					"stateMutability": "view",
					"type": "function"
				},
				{
					"inputs": [
						{
							"internalType": "uint256",
							"name": "_n",
							"type": "uint256"
						}
					],
					"name": "isEven",
					"outputs": [
						{
							"internalType": "bool",
							"name": "",
							"type": "bool"
						}
					],
					"stateMutability": "pure",
					"type": "function"
				},
				{
					"inputs": [],
					"name": "myage",
					"outputs": [
						{
							"internalType": "uint256",
							"name": "",
							"type": "uint256"
						}
					],
					"stateMutability": "view",
					"type": "function"
				},
				{
					"inputs": [
						{
							"internalType": "uint256",
							"name": "",
							"type": "uint256"
						}
					],
					"name": "nbr",
					"outputs": [
						{
							"internalType": "uint256",
							"name": "",
							"type": "uint256"
						}
					],
					"stateMutability": "view",
					"type": "function"
				},
				{
					"inputs": [],
					"name": "state",
					"outputs": [
						{
							"internalType": "string",
							"name": "",
							"type": "string"
						}
					],
					"stateMutability": "view",
					"type": "function"
				},
				{
					"inputs": [
						{
							"internalType": "uint256",
							"name": "",
							"type": "uint256"
						}
					],
					"name": "web3",
					"outputs": [
						{
							"internalType": "string",
							"name": "",
							"type": "string"
						}
					],
					"stateMutability": "view",
					"type": "function"
				}
			],
			"devdoc": {
				"kind": "dev",
				"methods": {},
				"version": 1
			},
			"evm": {
				"assembly": "    /* \"contracts/MainContract.sol\":74:1176  contract Main{\r... */\n  mstore(0x40, 0x80)\n    /* \"contracts/MainContract.sol\":90:137  string public hello=\"hello solidity developer \" */\n  mload(0x40)\n  dup1\n  0x40\n  add\n  0x40\n  mstore\n  dup1\n  0x19\n  dup2\n  mstore\n  0x20\n  add\n  0x68656c6c6f20736f6c696469747920646576656c6f7065722000000000000000\n  dup2\n  mstore\n  pop\n  0x00\n  swap1\n  dup1\n  mload\n  swap1\n  0x20\n  add\n  swap1\n  tag_1\n  swap3\n  swap2\n  swap1\n  tag_2\n  jump\t// in\ntag_1:\n  pop\n    /* \"contracts/MainContract.sol\":215:217  21 */\n  0x15\n    /* \"contracts/MainContract.sol\":197:217  uint public myage=21 */\n  0x01\n  sstore\n    /* \"contracts/MainContract.sol\":642:703  string[] public web3=[\"nft\",\"etherium\",\"blockchaine\",\"dapps\"] */\n  mload(0x40)\n  dup1\n  0x80\n  add\n  0x40\n  mstore\n  dup1\n  mload(0x40)\n  dup1\n  0x40\n  add\n  0x40\n  mstore\n  dup1\n  0x03\n  dup2\n  mstore\n  0x20\n  add\n  0x6e66740000000000000000000000000000000000000000000000000000000000\n  dup2\n  mstore\n  pop\n  dup2\n  mstore\n  0x20\n  add\n  mload(0x40)\n  dup1\n  0x40\n  add\n  0x40\n  mstore\n  dup1\n  0x08\n  dup2\n  mstore\n  0x20\n  add\n  0x657468657269756d000000000000000000000000000000000000000000000000\n  dup2\n  mstore\n  pop\n  dup2\n  mstore\n  0x20\n  add\n  mload(0x40)\n  dup1\n  0x40\n  add\n  0x40\n  mstore\n  dup1\n  0x0b\n  dup2\n  mstore\n  0x20\n  add\n  0x626c6f636b636861696e65000000000000000000000000000000000000000000\n  dup2\n  mstore\n  pop\n  dup2\n  mstore\n  0x20\n  add\n  mload(0x40)\n  dup1\n  0x40\n  add\n  0x40\n  mstore\n  dup1\n  0x05\n  dup2\n  mstore\n  0x20\n  add\n  0x6461707073000000000000000000000000000000000000000000000000000000\n  dup2\n  mstore\n  pop\n  dup2\n  mstore\n  pop\n  0x03\n  swap1\n  0x04\n  tag_3\n  swap3\n  swap2\n  swap1\n  tag_4\n  jump\t// in\ntag_3:\n  pop\n    /* \"contracts/MainContract.sol\":833:872  uint[] public nbr=[0,1,2,3,4,5,6,7,8,9] */\n  mload(0x40)\n  dup1\n  0x0140\n  add\n  0x40\n  mstore\n  dup1\n    /* \"contracts/MainContract.sol\":852:853  0 */\n  0x00\n    /* \"contracts/MainContract.sol\":833:872  uint[] public nbr=[0,1,2,3,4,5,6,7,8,9] */\n  0xff\n  and\n  dup2\n  mstore\n  0x20\n  add\n    /* \"contracts/MainContract.sol\":854:855  1 */\n  0x01\n    /* \"contracts/MainContract.sol\":833:872  uint[] public nbr=[0,1,2,3,4,5,6,7,8,9] */\n  0xff\n  and\n  dup2\n  mstore\n  0x20\n  add\n    /* \"contracts/MainContract.sol\":856:857  2 */\n  0x02\n    /* \"contracts/MainContract.sol\":833:872  uint[] public nbr=[0,1,2,3,4,5,6,7,8,9] */\n  0xff\n  and\n  dup2\n  mstore\n  0x20\n  add\n    /* \"contracts/MainContract.sol\":858:859  3 */\n  0x03\n    /* \"contracts/MainContract.sol\":833:872  uint[] public nbr=[0,1,2,3,4,5,6,7,8,9] */\n  0xff\n  and\n  dup2\n  mstore\n  0x20\n  add\n    /* \"contracts/MainContract.sol\":860:861  4 */\n  0x04\n    /* \"contracts/MainContract.sol\":833:872  uint[] public nbr=[0,1,2,3,4,5,6,7,8,9] */\n  0xff\n  and\n  dup2\n  mstore\n  0x20\n  add\n    /* \"contracts/MainContract.sol\":862:863  5 */\n  0x05\n    /* \"contracts/MainContract.sol\":833:872  uint[] public nbr=[0,1,2,3,4,5,6,7,8,9] */\n  0xff\n  and\n  dup2\n  mstore\n  0x20\n  add\n    /* \"contracts/MainContract.sol\":864:865  6 */\n  0x06\n    /* \"contracts/MainContract.sol\":833:872  uint[] public nbr=[0,1,2,3,4,5,6,7,8,9] */\n  0xff\n  and\n  dup2\n  mstore\n  0x20\n  add\n    /* \"contracts/MainContract.sol\":866:867  7 */\n  0x07\n    /* \"contracts/MainContract.sol\":833:872  uint[] public nbr=[0,1,2,3,4,5,6,7,8,9] */\n  0xff\n  and\n  dup2\n  mstore\n  0x20\n  add\n    /* \"contracts/MainContract.sol\":868:869  8 */\n  0x08\n    /* \"contracts/MainContract.sol\":833:872  uint[] public nbr=[0,1,2,3,4,5,6,7,8,9] */\n  0xff\n  and\n  dup2\n  mstore\n  0x20\n  add\n    /* \"contracts/MainContract.sol\":870:871  9 */\n  0x09\n    /* \"contracts/MainContract.sol\":833:872  uint[] public nbr=[0,1,2,3,4,5,6,7,8,9] */\n  0xff\n  and\n  dup2\n  mstore\n  pop\n  0x04\n  swap1\n  0x0a\n  tag_5\n  swap3\n  swap2\n  swap1\n  tag_6\n  jump\t// in\ntag_5:\n  pop\n    /* \"contracts/MainContract.sol\":74:1176  contract Main{\r... */\n  callvalue\n  dup1\n  iszero\n  tag_7\n  jumpi\n  0x00\n  dup1\n  revert\ntag_7:\n  pop\n  jump(tag_8)\ntag_2:\n  dup3\n  dup1\n  sload\n  tag_9\n  swap1\n  tag_10\n  jump\t// in\ntag_9:\n  swap1\n  0x00\n  mstore\n  keccak256(0x00, 0x20)\n  swap1\n  0x1f\n  add\n  0x20\n  swap1\n  div\n  dup2\n  add\n  swap3\n  dup3\n  tag_12\n  jumpi\n  0x00\n  dup6\n  sstore\n  jump(tag_11)\ntag_12:\n  dup3\n  0x1f\n  lt\n  tag_13\n  jumpi\n  dup1\n  mload\n  not(0xff)\n  and\n  dup4\n  dup1\n  add\n  or\n  dup6\n  sstore\n  jump(tag_11)\ntag_13:\n  dup3\n  dup1\n  add\n  0x01\n  add\n  dup6\n  sstore\n  dup3\n  iszero\n  tag_11\n  jumpi\n  swap2\n  dup3\n  add\ntag_14:\n  dup3\n  dup2\n  gt\n  iszero\n  tag_15\n  jumpi\n  dup3\n  mload\n  dup3\n  sstore\n  swap2\n  0x20\n  add\n  swap2\n  swap1\n  0x01\n  add\n  swap1\n  jump(tag_14)\ntag_15:\ntag_11:\n  pop\n  swap1\n  pop\n  tag_16\n  swap2\n  swap1\n  tag_17\n  jump\t// in\ntag_16:\n  pop\n  swap1\n  jump\t// out\ntag_4:\n  dup3\n  dup1\n  sload\n  dup3\n  dup3\n  sstore\n  swap1\n  0x00\n  mstore\n  keccak256(0x00, 0x20)\n  swap1\n  dup2\n  add\n  swap3\n  dup3\n  iszero\n  tag_18\n  jumpi\n  swap2\n  0x20\n  mul\n  dup3\n  add\ntag_19:\n  dup3\n  dup2\n  gt\n  iszero\n  tag_20\n  jumpi\n  dup3\n  mload\n  dup3\n  swap1\n  dup1\n  mload\n  swap1\n  0x20\n  add\n  swap1\n  tag_21\n  swap3\n  swap2\n  swap1\n  tag_2\n  jump\t// in\ntag_21:\n  pop\n  swap2\n  0x20\n  add\n  swap2\n  swap1\n  0x01\n  add\n  swap1\n  jump(tag_19)\ntag_20:\ntag_18:\n  pop\n  swap1\n  pop\n  tag_22\n  swap2\n  swap1\n  tag_23\n  jump\t// in\ntag_22:\n  pop\n  swap1\n  jump\t// out\ntag_6:\n  dup3\n  dup1\n  sload\n  dup3\n  dup3\n  sstore\n  swap1\n  0x00\n  mstore\n  keccak256(0x00, 0x20)\n  swap1\n  dup2\n  add\n  swap3\n  dup3\n  iszero\n  tag_24\n  jumpi\n  swap2\n  0x20\n  mul\n  dup3\n  add\ntag_25:\n  dup3\n  dup2\n  gt\n  iszero\n  tag_26\n  jumpi\n  dup3\n  mload\n  dup3\n  swap1\n  0xff\n  and\n  swap1\n  sstore\n  swap2\n  0x20\n  add\n  swap2\n  swap1\n  0x01\n  add\n  swap1\n  jump(tag_25)\ntag_26:\ntag_24:\n  pop\n  swap1\n  pop\n  tag_27\n  swap2\n  swap1\n  tag_17\n  jump\t// in\ntag_27:\n  pop\n  swap1\n  jump\t// out\ntag_17:\ntag_28:\n  dup1\n  dup3\n  gt\n  iszero\n  tag_29\n  jumpi\n  0x00\n  dup2\n  0x00\n  swap1\n  sstore\n  pop\n  0x01\n  add\n  jump(tag_28)\ntag_29:\n  pop\n  swap1\n  jump\t// out\ntag_23:\ntag_30:\n  dup1\n  dup3\n  gt\n  iszero\n  tag_31\n  jumpi\n  0x00\n  dup2\n  dup2\n  tag_32\n  swap2\n  swap1\n  tag_33\n  jump\t// in\ntag_32:\n  pop\n  0x01\n  add\n  jump(tag_30)\ntag_31:\n  pop\n  swap1\n  jump\t// out\ntag_33:\n  pop\n  dup1\n  sload\n  tag_34\n  swap1\n  tag_10\n  jump\t// in\ntag_34:\n  0x00\n  dup3\n  sstore\n  dup1\n  0x1f\n  lt\n  tag_36\n  jumpi\n  pop\n  jump(tag_35)\ntag_36:\n  0x1f\n  add\n  0x20\n  swap1\n  div\n  swap1\n  0x00\n  mstore\n  keccak256(0x00, 0x20)\n  swap1\n  dup2\n  add\n  swap1\n  tag_37\n  swap2\n  swap1\n  tag_17\n  jump\t// in\ntag_37:\ntag_35:\n  pop\n  jump\t// out\n    /* \"#utility.yul\":7:327   */\ntag_10:\n    /* \"#utility.yul\":51:57   */\n  0x00\n    /* \"#utility.yul\":88:89   */\n  0x02\n    /* \"#utility.yul\":82:86   */\n  dup3\n    /* \"#utility.yul\":78:90   */\n  div\n    /* \"#utility.yul\":68:90   */\n  swap1\n  pop\n    /* \"#utility.yul\":135:136   */\n  0x01\n    /* \"#utility.yul\":129:133   */\n  dup3\n    /* \"#utility.yul\":125:137   */\n  and\n    /* \"#utility.yul\":156:174   */\n  dup1\n    /* \"#utility.yul\":146:227   */\n  tag_40\n  jumpi\n    /* \"#utility.yul\":212:216   */\n  0x7f\n    /* \"#utility.yul\":204:210   */\n  dup3\n    /* \"#utility.yul\":200:217   */\n  and\n    /* \"#utility.yul\":190:217   */\n  swap2\n  pop\n    /* \"#utility.yul\":146:227   */\ntag_40:\n    /* \"#utility.yul\":274:276   */\n  0x20\n    /* \"#utility.yul\":266:272   */\n  dup3\n    /* \"#utility.yul\":263:277   */\n  lt\n    /* \"#utility.yul\":243:261   */\n  dup2\n    /* \"#utility.yul\":240:278   */\n  eq\n    /* \"#utility.yul\":237:321   */\n  iszero\n  tag_41\n  jumpi\n    /* \"#utility.yul\":293:311   */\n  tag_42\n  tag_43\n  jump\t// in\ntag_42:\n    /* \"#utility.yul\":237:321   */\ntag_41:\n    /* \"#utility.yul\":58:327   */\n  pop\n    /* \"#utility.yul\":7:327   */\n  swap2\n  swap1\n  pop\n  jump\t// out\n    /* \"#utility.yul\":333:513   */\ntag_43:\n    /* \"#utility.yul\":381:458   */\n  0x4e487b7100000000000000000000000000000000000000000000000000000000\n    /* \"#utility.yul\":378:379   */\n  0x00\n    /* \"#utility.yul\":371:459   */\n  mstore\n    /* \"#utility.yul\":478:482   */\n  0x22\n    /* \"#utility.yul\":475:476   */\n  0x04\n    /* \"#utility.yul\":468:483   */\n  mstore\n    /* \"#utility.yul\":502:506   */\n  0x24\n    /* \"#utility.yul\":499:500   */\n  0x00\n    /* \"#utility.yul\":492:507   */\n  revert\n    /* \"contracts/MainContract.sol\":74:1176  contract Main{\r... */\ntag_8:\n  dataSize(sub_0)\n  dup1\n  dataOffset(sub_0)\n  0x00\n  codecopy\n  0x00\n  return\nstop\n\nsub_0: assembly {\n        /* \"contracts/MainContract.sol\":74:1176  contract Main{\r... */\n      mstore(0x40, 0x80)\n      callvalue\n      dup1\n      iszero\n      tag_1\n      jumpi\n      0x00\n      dup1\n      revert\n    tag_1:\n      pop\n      jumpi(tag_2, lt(calldatasize, 0x04))\n      shr(0xe0, calldataload(0x00))\n      dup1\n      0x951578af\n      gt\n      tag_13\n      jumpi\n      dup1\n      0x951578af\n      eq\n      tag_8\n      jumpi\n      dup1\n      0x95ccb57c\n      eq\n      tag_9\n      jumpi\n      dup1\n      0x9c1f8ae0\n      eq\n      tag_10\n      jumpi\n      dup1\n      0xbe1c766b\n      eq\n      tag_11\n      jumpi\n      dup1\n      0xc19d93fb\n      eq\n      tag_12\n      jumpi\n      jump(tag_2)\n    tag_13:\n      dup1\n      0x19ff1d21\n      eq\n      tag_3\n      jumpi\n      dup1\n      0x29f3901e\n      eq\n      tag_4\n      jumpi\n      dup1\n      0x2a2e1320\n      eq\n      tag_5\n      jumpi\n      dup1\n      0x72a818de\n      eq\n      tag_6\n      jumpi\n      dup1\n      0x741983c0\n      eq\n      tag_7\n      jumpi\n    tag_2:\n      0x00\n      dup1\n      revert\n        /* \"contracts/MainContract.sol\":90:137  string public hello=\"hello solidity developer \" */\n    tag_3:\n      tag_14\n      tag_15\n      jump\t// in\n    tag_14:\n      mload(0x40)\n      tag_16\n      swap2\n      swap1\n      tag_17\n      jump\t// in\n    tag_16:\n      mload(0x40)\n      dup1\n      swap2\n      sub\n      swap1\n      return\n        /* \"contracts/MainContract.sol\":329:408  function getMyAge(uint _newAge) public{ // _ for private\r... */\n    tag_4:\n      tag_18\n      0x04\n      dup1\n      calldatasize\n      sub\n      dup2\n      add\n      swap1\n      tag_19\n      swap2\n      swap1\n      tag_20\n      jump\t// in\n    tag_19:\n      tag_21\n      jump\t// in\n    tag_18:\n      stop\n        /* \"contracts/MainContract.sol\":875:974  function isEven(uint _n) public pure  returns(bool){\r... */\n    tag_5:\n      tag_22\n      0x04\n      dup1\n      calldatasize\n      sub\n      dup2\n      add\n      swap1\n      tag_23\n      swap2\n      swap1\n      tag_20\n      jump\t// in\n    tag_23:\n      tag_24\n      jump\t// in\n    tag_22:\n      mload(0x40)\n      tag_25\n      swap2\n      swap1\n      tag_26\n      jump\t// in\n    tag_25:\n      mload(0x40)\n      dup1\n      swap2\n      sub\n      swap1\n      return\n        /* \"contracts/MainContract.sol\":833:872  uint[] public nbr=[0,1,2,3,4,5,6,7,8,9] */\n    tag_6:\n      tag_27\n      0x04\n      dup1\n      calldatasize\n      sub\n      dup2\n      add\n      swap1\n      tag_28\n      swap2\n      swap1\n      tag_20\n      jump\t// in\n    tag_28:\n      tag_29\n      jump\t// in\n    tag_27:\n      mload(0x40)\n      tag_30\n      swap2\n      swap1\n      tag_31\n      jump\t// in\n    tag_30:\n      mload(0x40)\n      dup1\n      swap2\n      sub\n      swap1\n      return\n        /* \"contracts/MainContract.sol\":466:543  function checkAge() public{\r... */\n    tag_7:\n      tag_32\n      tag_33\n      jump\t// in\n    tag_32:\n      stop\n        /* \"contracts/MainContract.sol\":197:217  uint public myage=21 */\n    tag_8:\n      tag_34\n      tag_35\n      jump\t// in\n    tag_34:\n      mload(0x40)\n      tag_36\n      swap2\n      swap1\n      tag_31\n      jump\t// in\n    tag_36:\n      mload(0x40)\n      dup1\n      swap2\n      sub\n      swap1\n      return\n        /* \"contracts/MainContract.sol\":978:1169  function countNumber() public  view returns(uint){\r... */\n    tag_9:\n      tag_37\n      tag_38\n      jump\t// in\n    tag_37:\n      mload(0x40)\n      tag_39\n      swap2\n      swap1\n      tag_31\n      jump\t// in\n    tag_39:\n      mload(0x40)\n      dup1\n      swap2\n      sub\n      swap1\n      return\n        /* \"contracts/MainContract.sol\":642:703  string[] public web3=[\"nft\",\"etherium\",\"blockchaine\",\"dapps\"] */\n    tag_10:\n      tag_40\n      0x04\n      dup1\n      calldatasize\n      sub\n      dup2\n      add\n      swap1\n      tag_41\n      swap2\n      swap1\n      tag_20\n      jump\t// in\n    tag_41:\n      tag_42\n      jump\t// in\n    tag_40:\n      mload(0x40)\n      tag_43\n      swap2\n      swap1\n      tag_17\n      jump\t// in\n    tag_43:\n      mload(0x40)\n      dup1\n      swap2\n      sub\n      swap1\n      return\n        /* \"contracts/MainContract.sol\":716:792  function getLength() public view returns(uint){\r... */\n    tag_11:\n      tag_44\n      tag_45\n      jump\t// in\n    tag_44:\n      mload(0x40)\n      tag_46\n      swap2\n      swap1\n      tag_31\n      jump\t// in\n    tag_46:\n      mload(0x40)\n      dup1\n      swap2\n      sub\n      swap1\n      return\n        /* \"contracts/MainContract.sol\":444:463  string public state */\n    tag_12:\n      tag_47\n      tag_48\n      jump\t// in\n    tag_47:\n      mload(0x40)\n      tag_49\n      swap2\n      swap1\n      tag_17\n      jump\t// in\n    tag_49:\n      mload(0x40)\n      dup1\n      swap2\n      sub\n      swap1\n      return\n        /* \"contracts/MainContract.sol\":90:137  string public hello=\"hello solidity developer \" */\n    tag_15:\n      0x00\n      dup1\n      sload\n      tag_50\n      swap1\n      tag_51\n      jump\t// in\n    tag_50:\n      dup1\n      0x1f\n      add\n      0x20\n      dup1\n      swap2\n      div\n      mul\n      0x20\n      add\n      mload(0x40)\n      swap1\n      dup2\n      add\n      0x40\n      mstore\n      dup1\n      swap3\n      swap2\n      swap1\n      dup2\n      dup2\n      mstore\n      0x20\n      add\n      dup3\n      dup1\n      sload\n      tag_52\n      swap1\n      tag_51\n      jump\t// in\n    tag_52:\n      dup1\n      iszero\n      tag_53\n      jumpi\n      dup1\n      0x1f\n      lt\n      tag_54\n      jumpi\n      0x0100\n      dup1\n      dup4\n      sload\n      div\n      mul\n      dup4\n      mstore\n      swap2\n      0x20\n      add\n      swap2\n      jump(tag_53)\n    tag_54:\n      dup3\n      add\n      swap2\n      swap1\n      0x00\n      mstore\n      keccak256(0x00, 0x20)\n      swap1\n    tag_55:\n      dup2\n      sload\n      dup2\n      mstore\n      swap1\n      0x01\n      add\n      swap1\n      0x20\n      add\n      dup1\n      dup4\n      gt\n      tag_55\n      jumpi\n      dup3\n      swap1\n      sub\n      0x1f\n      and\n      dup3\n      add\n      swap2\n    tag_53:\n      pop\n      pop\n      pop\n      pop\n      pop\n      dup2\n      jump\t// out\n        /* \"contracts/MainContract.sol\":329:408  function getMyAge(uint _newAge) public{ // _ for private\r... */\n    tag_21:\n        /* \"contracts/MainContract.sol\":397:404  _newAge */\n      dup1\n        /* \"contracts/MainContract.sol\":391:396  myage */\n      0x01\n        /* \"contracts/MainContract.sol\":391:404  myage=_newAge */\n      dup2\n      swap1\n      sstore\n      pop\n        /* \"contracts/MainContract.sol\":329:408  function getMyAge(uint _newAge) public{ // _ for private\r... */\n      pop\n      jump\t// out\n        /* \"contracts/MainContract.sol\":875:974  function isEven(uint _n) public pure  returns(bool){\r... */\n    tag_24:\n        /* \"contracts/MainContract.sol\":921:925  bool */\n      0x00\n        /* \"contracts/MainContract.sol\":938:939  0 */\n      dup1\n        /* \"contracts/MainContract.sol\":935:936  2 */\n      0x02\n        /* \"contracts/MainContract.sol\":932:934  _n */\n      dup4\n        /* \"contracts/MainContract.sol\":932:936  _n%2 */\n      tag_58\n      swap2\n      swap1\n      tag_59\n      jump\t// in\n    tag_58:\n        /* \"contracts/MainContract.sol\":932:939  _n%2==0 */\n      eq\n        /* \"contracts/MainContract.sol\":929:972  if(_n%2==0) return true;\r... */\n      iszero\n      tag_60\n      jumpi\n        /* \"contracts/MainContract.sol\":948:952  true */\n      0x01\n        /* \"contracts/MainContract.sol\":941:952  return true */\n      swap1\n      pop\n      jump(tag_57)\n        /* \"contracts/MainContract.sol\":929:972  if(_n%2==0) return true;\r... */\n    tag_60:\n        /* \"contracts/MainContract.sol\":967:972  false */\n      0x00\n        /* \"contracts/MainContract.sol\":960:972  return false */\n      swap1\n      pop\n        /* \"contracts/MainContract.sol\":875:974  function isEven(uint _n) public pure  returns(bool){\r... */\n    tag_57:\n      swap2\n      swap1\n      pop\n      jump\t// out\n        /* \"contracts/MainContract.sol\":833:872  uint[] public nbr=[0,1,2,3,4,5,6,7,8,9] */\n    tag_29:\n      0x04\n      dup2\n      dup2\n      sload\n      dup2\n      lt\n      tag_62\n      jumpi\n      0x00\n      dup1\n      revert\n    tag_62:\n      swap1\n      0x00\n      mstore\n      keccak256(0x00, 0x20)\n      add\n      0x00\n      swap2\n      pop\n      swap1\n      pop\n      sload\n      dup2\n      jump\t// out\n        /* \"contracts/MainContract.sol\":466:543  function checkAge() public{\r... */\n    tag_33:\n        /* \"contracts/MainContract.sol\":509:511  18 */\n      0x12\n        /* \"contracts/MainContract.sol\":502:507  myage */\n      sload(0x01)\n        /* \"contracts/MainContract.sol\":502:511  myage>=18 */\n      lt\n        /* \"contracts/MainContract.sol\":499:539  if(myage>=18)\r... */\n      tag_65\n      jumpi\n        /* \"contracts/MainContract.sol\":518:539  state=\"You are adult\" */\n      mload(0x40)\n      dup1\n      0x40\n      add\n      0x40\n      mstore\n      dup1\n      0x0d\n      dup2\n      mstore\n      0x20\n      add\n      0x596f7520617265206164756c7400000000000000000000000000000000000000\n      dup2\n      mstore\n      pop\n        /* \"contracts/MainContract.sol\":518:523  state */\n      0x02\n        /* \"contracts/MainContract.sol\":518:539  state=\"You are adult\" */\n      swap1\n      dup1\n      mload\n      swap1\n      0x20\n      add\n      swap1\n      tag_66\n      swap3\n      swap2\n      swap1\n      tag_67\n      jump\t// in\n    tag_66:\n      pop\n        /* \"contracts/MainContract.sol\":499:539  if(myage>=18)\r... */\n    tag_65:\n        /* \"contracts/MainContract.sol\":466:543  function checkAge() public{\r... */\n      jump\t// out\n        /* \"contracts/MainContract.sol\":197:217  uint public myage=21 */\n    tag_35:\n      sload(0x01)\n      dup2\n      jump\t// out\n        /* \"contracts/MainContract.sol\":978:1169  function countNumber() public  view returns(uint){\r... */\n    tag_38:\n        /* \"contracts/MainContract.sol\":1022:1026  uint */\n      0x00\n        /* \"contracts/MainContract.sol\":1034:1044  uint count */\n      dup1\n        /* \"contracts/MainContract.sol\":1045:1046  0 */\n      0x00\n        /* \"contracts/MainContract.sol\":1034:1046  uint count=0 */\n      swap1\n      pop\n        /* \"contracts/MainContract.sol\":1057:1063  uint i */\n      0x00\n        /* \"contracts/MainContract.sol\":1053:1146  for(uint i=0;i<nbr.length;i++){\r... */\n    tag_69:\n        /* \"contracts/MainContract.sol\":1068:1071  nbr */\n      0x04\n        /* \"contracts/MainContract.sol\":1068:1078  nbr.length */\n      dup1\n      sload\n      swap1\n      pop\n        /* \"contracts/MainContract.sol\":1066:1067  i */\n      dup2\n        /* \"contracts/MainContract.sol\":1066:1078  i<nbr.length */\n      lt\n        /* \"contracts/MainContract.sol\":1053:1146  for(uint i=0;i<nbr.length;i++){\r... */\n      iszero\n      tag_70\n      jumpi\n        /* \"contracts/MainContract.sol\":1097:1111  isEven(nbr[i]) */\n      tag_72\n        /* \"contracts/MainContract.sol\":1104:1107  nbr */\n      0x04\n        /* \"contracts/MainContract.sol\":1108:1109  i */\n      dup3\n        /* \"contracts/MainContract.sol\":1104:1110  nbr[i] */\n      dup2\n      sload\n      dup2\n      lt\n      tag_73\n      jumpi\n      tag_74\n      tag_75\n      jump\t// in\n    tag_74:\n    tag_73:\n      swap1\n      0x00\n      mstore\n      keccak256(0x00, 0x20)\n      add\n      sload\n        /* \"contracts/MainContract.sol\":1097:1103  isEven */\n      tag_24\n        /* \"contracts/MainContract.sol\":1097:1111  isEven(nbr[i]) */\n      jump\t// in\n    tag_72:\n        /* \"contracts/MainContract.sol\":1094:1129  if(isEven(nbr[i]))\r... */\n      iszero\n      tag_77\n      jumpi\n        /* \"contracts/MainContract.sol\":1122:1129  count++ */\n      dup2\n      dup1\n      tag_78\n      swap1\n      tag_79\n      jump\t// in\n    tag_78:\n      swap3\n      pop\n      pop\n        /* \"contracts/MainContract.sol\":1094:1129  if(isEven(nbr[i]))\r... */\n    tag_77:\n        /* \"contracts/MainContract.sol\":1079:1082  i++ */\n      dup1\n      dup1\n      tag_80\n      swap1\n      tag_79\n      jump\t// in\n    tag_80:\n      swap2\n      pop\n      pop\n        /* \"contracts/MainContract.sol\":1053:1146  for(uint i=0;i<nbr.length;i++){\r... */\n      jump(tag_69)\n    tag_70:\n      pop\n        /* \"contracts/MainContract.sol\":1160:1165  count */\n      dup1\n        /* \"contracts/MainContract.sol\":1153:1165  return count */\n      swap2\n      pop\n      pop\n        /* \"contracts/MainContract.sol\":978:1169  function countNumber() public  view returns(uint){\r... */\n      swap1\n      jump\t// out\n        /* \"contracts/MainContract.sol\":642:703  string[] public web3=[\"nft\",\"etherium\",\"blockchaine\",\"dapps\"] */\n    tag_42:\n      0x03\n      dup2\n      dup2\n      sload\n      dup2\n      lt\n      tag_81\n      jumpi\n      0x00\n      dup1\n      revert\n    tag_81:\n      swap1\n      0x00\n      mstore\n      keccak256(0x00, 0x20)\n      add\n      0x00\n      swap2\n      pop\n      swap1\n      pop\n      dup1\n      sload\n      tag_83\n      swap1\n      tag_51\n      jump\t// in\n    tag_83:\n      dup1\n      0x1f\n      add\n      0x20\n      dup1\n      swap2\n      div\n      mul\n      0x20\n      add\n      mload(0x40)\n      swap1\n      dup2\n      add\n      0x40\n      mstore\n      dup1\n      swap3\n      swap2\n      swap1\n      dup2\n      dup2\n      mstore\n      0x20\n      add\n      dup3\n      dup1\n      sload\n      tag_84\n      swap1\n      tag_51\n      jump\t// in\n    tag_84:\n      dup1\n      iszero\n      tag_85\n      jumpi\n      dup1\n      0x1f\n      lt\n      tag_86\n      jumpi\n      0x0100\n      dup1\n      dup4\n      sload\n      div\n      mul\n      dup4\n      mstore\n      swap2\n      0x20\n      add\n      swap2\n      jump(tag_85)\n    tag_86:\n      dup3\n      add\n      swap2\n      swap1\n      0x00\n      mstore\n      keccak256(0x00, 0x20)\n      swap1\n    tag_87:\n      dup2\n      sload\n      dup2\n      mstore\n      swap1\n      0x01\n      add\n      swap1\n      0x20\n      add\n      dup1\n      dup4\n      gt\n      tag_87\n      jumpi\n      dup3\n      swap1\n      sub\n      0x1f\n      and\n      dup3\n      add\n      swap2\n    tag_85:\n      pop\n      pop\n      pop\n      pop\n      pop\n      dup2\n      jump\t// out\n        /* \"contracts/MainContract.sol\":716:792  function getLength() public view returns(uint){\r... */\n    tag_45:\n        /* \"contracts/MainContract.sol\":757:761  uint */\n      0x00\n        /* \"contracts/MainContract.sol\":777:781  web3 */\n      0x03\n        /* \"contracts/MainContract.sol\":777:788  web3.length */\n      dup1\n      sload\n      swap1\n      pop\n        /* \"contracts/MainContract.sol\":769:788  return  web3.length */\n      swap1\n      pop\n        /* \"contracts/MainContract.sol\":716:792  function getLength() public view returns(uint){\r... */\n      swap1\n      jump\t// out\n        /* \"contracts/MainContract.sol\":444:463  string public state */\n    tag_48:\n      0x02\n      dup1\n      sload\n      tag_89\n      swap1\n      tag_51\n      jump\t// in\n    tag_89:\n      dup1\n      0x1f\n      add\n      0x20\n      dup1\n      swap2\n      div\n      mul\n      0x20\n      add\n      mload(0x40)\n      swap1\n      dup2\n      add\n      0x40\n      mstore\n      dup1\n      swap3\n      swap2\n      swap1\n      dup2\n      dup2\n      mstore\n      0x20\n      add\n      dup3\n      dup1\n      sload\n      tag_90\n      swap1\n      tag_51\n      jump\t// in\n    tag_90:\n      dup1\n      iszero\n      tag_91\n      jumpi\n      dup1\n      0x1f\n      lt\n      tag_92\n      jumpi\n      0x0100\n      dup1\n      dup4\n      sload\n      div\n      mul\n      dup4\n      mstore\n      swap2\n      0x20\n      add\n      swap2\n      jump(tag_91)\n    tag_92:\n      dup3\n      add\n      swap2\n      swap1\n      0x00\n      mstore\n      keccak256(0x00, 0x20)\n      swap1\n    tag_93:\n      dup2\n      sload\n      dup2\n      mstore\n      swap1\n      0x01\n      add\n      swap1\n      0x20\n      add\n      dup1\n      dup4\n      gt\n      tag_93\n      jumpi\n      dup3\n      swap1\n      sub\n      0x1f\n      and\n      dup3\n      add\n      swap2\n    tag_91:\n      pop\n      pop\n      pop\n      pop\n      pop\n      dup2\n      jump\t// out\n    tag_67:\n      dup3\n      dup1\n      sload\n      tag_94\n      swap1\n      tag_51\n      jump\t// in\n    tag_94:\n      swap1\n      0x00\n      mstore\n      keccak256(0x00, 0x20)\n      swap1\n      0x1f\n      add\n      0x20\n      swap1\n      div\n      dup2\n      add\n      swap3\n      dup3\n      tag_96\n      jumpi\n      0x00\n      dup6\n      sstore\n      jump(tag_95)\n    tag_96:\n      dup3\n      0x1f\n      lt\n      tag_97\n      jumpi\n      dup1\n      mload\n      not(0xff)\n      and\n      dup4\n      dup1\n      add\n      or\n      dup6\n      sstore\n      jump(tag_95)\n    tag_97:\n      dup3\n      dup1\n      add\n      0x01\n      add\n      dup6\n      sstore\n      dup3\n      iszero\n      tag_95\n      jumpi\n      swap2\n      dup3\n      add\n    tag_98:\n      dup3\n      dup2\n      gt\n      iszero\n      tag_99\n      jumpi\n      dup3\n      mload\n      dup3\n      sstore\n      swap2\n      0x20\n      add\n      swap2\n      swap1\n      0x01\n      add\n      swap1\n      jump(tag_98)\n    tag_99:\n    tag_95:\n      pop\n      swap1\n      pop\n      tag_100\n      swap2\n      swap1\n      tag_101\n      jump\t// in\n    tag_100:\n      pop\n      swap1\n      jump\t// out\n    tag_101:\n    tag_102:\n      dup1\n      dup3\n      gt\n      iszero\n      tag_103\n      jumpi\n      0x00\n      dup2\n      0x00\n      swap1\n      sstore\n      pop\n      0x01\n      add\n      jump(tag_102)\n    tag_103:\n      pop\n      swap1\n      jump\t// out\n        /* \"#utility.yul\":7:146   */\n    tag_105:\n        /* \"#utility.yul\":53:58   */\n      0x00\n        /* \"#utility.yul\":91:97   */\n      dup2\n        /* \"#utility.yul\":78:98   */\n      calldataload\n        /* \"#utility.yul\":69:98   */\n      swap1\n      pop\n        /* \"#utility.yul\":107:140   */\n      tag_107\n        /* \"#utility.yul\":134:139   */\n      dup2\n        /* \"#utility.yul\":107:140   */\n      tag_108\n      jump\t// in\n    tag_107:\n        /* \"#utility.yul\":7:146   */\n      swap3\n      swap2\n      pop\n      pop\n      jump\t// out\n        /* \"#utility.yul\":152:481   */\n    tag_20:\n        /* \"#utility.yul\":211:217   */\n      0x00\n        /* \"#utility.yul\":260:262   */\n      0x20\n        /* \"#utility.yul\":248:257   */\n      dup3\n        /* \"#utility.yul\":239:246   */\n      dup5\n        /* \"#utility.yul\":235:258   */\n      sub\n        /* \"#utility.yul\":231:263   */\n      slt\n        /* \"#utility.yul\":228:347   */\n      iszero\n      tag_110\n      jumpi\n        /* \"#utility.yul\":266:345   */\n      tag_111\n      tag_112\n      jump\t// in\n    tag_111:\n        /* \"#utility.yul\":228:347   */\n    tag_110:\n        /* \"#utility.yul\":386:387   */\n      0x00\n        /* \"#utility.yul\":411:464   */\n      tag_113\n        /* \"#utility.yul\":456:463   */\n      dup5\n        /* \"#utility.yul\":447:453   */\n      dup3\n        /* \"#utility.yul\":436:445   */\n      dup6\n        /* \"#utility.yul\":432:454   */\n      add\n        /* \"#utility.yul\":411:464   */\n      tag_105\n      jump\t// in\n    tag_113:\n        /* \"#utility.yul\":401:464   */\n      swap2\n      pop\n        /* \"#utility.yul\":357:474   */\n      pop\n        /* \"#utility.yul\":152:481   */\n      swap3\n      swap2\n      pop\n      pop\n      jump\t// out\n        /* \"#utility.yul\":487:596   */\n    tag_114:\n        /* \"#utility.yul\":568:589   */\n      tag_116\n        /* \"#utility.yul\":583:588   */\n      dup2\n        /* \"#utility.yul\":568:589   */\n      tag_117\n      jump\t// in\n    tag_116:\n        /* \"#utility.yul\":563:566   */\n      dup3\n        /* \"#utility.yul\":556:590   */\n      mstore\n        /* \"#utility.yul\":487:596   */\n      pop\n      pop\n      jump\t// out\n        /* \"#utility.yul\":602:966   */\n    tag_118:\n        /* \"#utility.yul\":690:693   */\n      0x00\n        /* \"#utility.yul\":718:757   */\n      tag_120\n        /* \"#utility.yul\":751:756   */\n      dup3\n        /* \"#utility.yul\":718:757   */\n      tag_121\n      jump\t// in\n    tag_120:\n        /* \"#utility.yul\":773:844   */\n      tag_122\n        /* \"#utility.yul\":837:843   */\n      dup2\n        /* \"#utility.yul\":832:835   */\n      dup6\n        /* \"#utility.yul\":773:844   */\n      tag_123\n      jump\t// in\n    tag_122:\n        /* \"#utility.yul\":766:844   */\n      swap4\n      pop\n        /* \"#utility.yul\":853:905   */\n      tag_124\n        /* \"#utility.yul\":898:904   */\n      dup2\n        /* \"#utility.yul\":893:896   */\n      dup6\n        /* \"#utility.yul\":886:890   */\n      0x20\n        /* \"#utility.yul\":879:884   */\n      dup7\n        /* \"#utility.yul\":875:891   */\n      add\n        /* \"#utility.yul\":853:905   */\n      tag_125\n      jump\t// in\n    tag_124:\n        /* \"#utility.yul\":930:959   */\n      tag_126\n        /* \"#utility.yul\":952:958   */\n      dup2\n        /* \"#utility.yul\":930:959   */\n      tag_127\n      jump\t// in\n    tag_126:\n        /* \"#utility.yul\":925:928   */\n      dup5\n        /* \"#utility.yul\":921:960   */\n      add\n        /* \"#utility.yul\":914:960   */\n      swap2\n      pop\n        /* \"#utility.yul\":694:966   */\n      pop\n        /* \"#utility.yul\":602:966   */\n      swap3\n      swap2\n      pop\n      pop\n      jump\t// out\n        /* \"#utility.yul\":972:1090   */\n    tag_128:\n        /* \"#utility.yul\":1059:1083   */\n      tag_130\n        /* \"#utility.yul\":1077:1082   */\n      dup2\n        /* \"#utility.yul\":1059:1083   */\n      tag_131\n      jump\t// in\n    tag_130:\n        /* \"#utility.yul\":1054:1057   */\n      dup3\n        /* \"#utility.yul\":1047:1084   */\n      mstore\n        /* \"#utility.yul\":972:1090   */\n      pop\n      pop\n      jump\t// out\n        /* \"#utility.yul\":1096:1306   */\n    tag_26:\n        /* \"#utility.yul\":1183:1187   */\n      0x00\n        /* \"#utility.yul\":1221:1223   */\n      0x20\n        /* \"#utility.yul\":1210:1219   */\n      dup3\n        /* \"#utility.yul\":1206:1224   */\n      add\n        /* \"#utility.yul\":1198:1224   */\n      swap1\n      pop\n        /* \"#utility.yul\":1234:1299   */\n      tag_133\n        /* \"#utility.yul\":1296:1297   */\n      0x00\n        /* \"#utility.yul\":1285:1294   */\n      dup4\n        /* \"#utility.yul\":1281:1298   */\n      add\n        /* \"#utility.yul\":1272:1278   */\n      dup5\n        /* \"#utility.yul\":1234:1299   */\n      tag_114\n      jump\t// in\n    tag_133:\n        /* \"#utility.yul\":1096:1306   */\n      swap3\n      swap2\n      pop\n      pop\n      jump\t// out\n        /* \"#utility.yul\":1312:1625   */\n    tag_17:\n        /* \"#utility.yul\":1425:1429   */\n      0x00\n        /* \"#utility.yul\":1463:1465   */\n      0x20\n        /* \"#utility.yul\":1452:1461   */\n      dup3\n        /* \"#utility.yul\":1448:1466   */\n      add\n        /* \"#utility.yul\":1440:1466   */\n      swap1\n      pop\n        /* \"#utility.yul\":1512:1521   */\n      dup2\n        /* \"#utility.yul\":1506:1510   */\n      dup2\n        /* \"#utility.yul\":1502:1522   */\n      sub\n        /* \"#utility.yul\":1498:1499   */\n      0x00\n        /* \"#utility.yul\":1487:1496   */\n      dup4\n        /* \"#utility.yul\":1483:1500   */\n      add\n        /* \"#utility.yul\":1476:1523   */\n      mstore\n        /* \"#utility.yul\":1540:1618   */\n      tag_135\n        /* \"#utility.yul\":1613:1617   */\n      dup2\n        /* \"#utility.yul\":1604:1610   */\n      dup5\n        /* \"#utility.yul\":1540:1618   */\n      tag_118\n      jump\t// in\n    tag_135:\n        /* \"#utility.yul\":1532:1618   */\n      swap1\n      pop\n        /* \"#utility.yul\":1312:1625   */\n      swap3\n      swap2\n      pop\n      pop\n      jump\t// out\n        /* \"#utility.yul\":1631:1853   */\n    tag_31:\n        /* \"#utility.yul\":1724:1728   */\n      0x00\n        /* \"#utility.yul\":1762:1764   */\n      0x20\n        /* \"#utility.yul\":1751:1760   */\n      dup3\n        /* \"#utility.yul\":1747:1765   */\n      add\n        /* \"#utility.yul\":1739:1765   */\n      swap1\n      pop\n        /* \"#utility.yul\":1775:1846   */\n      tag_137\n        /* \"#utility.yul\":1843:1844   */\n      0x00\n        /* \"#utility.yul\":1832:1841   */\n      dup4\n        /* \"#utility.yul\":1828:1845   */\n      add\n        /* \"#utility.yul\":1819:1825   */\n      dup5\n        /* \"#utility.yul\":1775:1846   */\n      tag_128\n      jump\t// in\n    tag_137:\n        /* \"#utility.yul\":1631:1853   */\n      swap3\n      swap2\n      pop\n      pop\n      jump\t// out\n        /* \"#utility.yul\":1940:2039   */\n    tag_121:\n        /* \"#utility.yul\":1992:1998   */\n      0x00\n        /* \"#utility.yul\":2026:2031   */\n      dup2\n        /* \"#utility.yul\":2020:2032   */\n      mload\n        /* \"#utility.yul\":2010:2032   */\n      swap1\n      pop\n        /* \"#utility.yul\":1940:2039   */\n      swap2\n      swap1\n      pop\n      jump\t// out\n        /* \"#utility.yul\":2045:2214   */\n    tag_123:\n        /* \"#utility.yul\":2129:2140   */\n      0x00\n        /* \"#utility.yul\":2163:2169   */\n      dup3\n        /* \"#utility.yul\":2158:2161   */\n      dup3\n        /* \"#utility.yul\":2151:2170   */\n      mstore\n        /* \"#utility.yul\":2203:2207   */\n      0x20\n        /* \"#utility.yul\":2198:2201   */\n      dup3\n        /* \"#utility.yul\":2194:2208   */\n      add\n        /* \"#utility.yul\":2179:2208   */\n      swap1\n      pop\n        /* \"#utility.yul\":2045:2214   */\n      swap3\n      swap2\n      pop\n      pop\n      jump\t// out\n        /* \"#utility.yul\":2220:2310   */\n    tag_117:\n        /* \"#utility.yul\":2254:2261   */\n      0x00\n        /* \"#utility.yul\":2297:2302   */\n      dup2\n        /* \"#utility.yul\":2290:2303   */\n      iszero\n        /* \"#utility.yul\":2283:2304   */\n      iszero\n        /* \"#utility.yul\":2272:2304   */\n      swap1\n      pop\n        /* \"#utility.yul\":2220:2310   */\n      swap2\n      swap1\n      pop\n      jump\t// out\n        /* \"#utility.yul\":2316:2393   */\n    tag_131:\n        /* \"#utility.yul\":2353:2360   */\n      0x00\n        /* \"#utility.yul\":2382:2387   */\n      dup2\n        /* \"#utility.yul\":2371:2387   */\n      swap1\n      pop\n        /* \"#utility.yul\":2316:2393   */\n      swap2\n      swap1\n      pop\n      jump\t// out\n        /* \"#utility.yul\":2399:2706   */\n    tag_125:\n        /* \"#utility.yul\":2467:2468   */\n      0x00\n        /* \"#utility.yul\":2477:2590   */\n    tag_145:\n        /* \"#utility.yul\":2491:2497   */\n      dup4\n        /* \"#utility.yul\":2488:2489   */\n      dup2\n        /* \"#utility.yul\":2485:2498   */\n      lt\n        /* \"#utility.yul\":2477:2590   */\n      iszero\n      tag_147\n      jumpi\n        /* \"#utility.yul\":2576:2577   */\n      dup1\n        /* \"#utility.yul\":2571:2574   */\n      dup3\n        /* \"#utility.yul\":2567:2578   */\n      add\n        /* \"#utility.yul\":2561:2579   */\n      mload\n        /* \"#utility.yul\":2557:2558   */\n      dup2\n        /* \"#utility.yul\":2552:2555   */\n      dup5\n        /* \"#utility.yul\":2548:2559   */\n      add\n        /* \"#utility.yul\":2541:2580   */\n      mstore\n        /* \"#utility.yul\":2513:2515   */\n      0x20\n        /* \"#utility.yul\":2510:2511   */\n      dup2\n        /* \"#utility.yul\":2506:2516   */\n      add\n        /* \"#utility.yul\":2501:2516   */\n      swap1\n      pop\n        /* \"#utility.yul\":2477:2590   */\n      jump(tag_145)\n    tag_147:\n        /* \"#utility.yul\":2608:2614   */\n      dup4\n        /* \"#utility.yul\":2605:2606   */\n      dup2\n        /* \"#utility.yul\":2602:2615   */\n      gt\n        /* \"#utility.yul\":2599:2700   */\n      iszero\n      tag_148\n      jumpi\n        /* \"#utility.yul\":2688:2689   */\n      0x00\n        /* \"#utility.yul\":2679:2685   */\n      dup5\n        /* \"#utility.yul\":2674:2677   */\n      dup5\n        /* \"#utility.yul\":2670:2686   */\n      add\n        /* \"#utility.yul\":2663:2690   */\n      mstore\n        /* \"#utility.yul\":2599:2700   */\n    tag_148:\n        /* \"#utility.yul\":2448:2706   */\n      pop\n        /* \"#utility.yul\":2399:2706   */\n      pop\n      pop\n      pop\n      jump\t// out\n        /* \"#utility.yul\":2712:3032   */\n    tag_51:\n        /* \"#utility.yul\":2756:2762   */\n      0x00\n        /* \"#utility.yul\":2793:2794   */\n      0x02\n        /* \"#utility.yul\":2787:2791   */\n      dup3\n        /* \"#utility.yul\":2783:2795   */\n      div\n        /* \"#utility.yul\":2773:2795   */\n      swap1\n      pop\n        /* \"#utility.yul\":2840:2841   */\n      0x01\n        /* \"#utility.yul\":2834:2838   */\n      dup3\n        /* \"#utility.yul\":2830:2842   */\n      and\n        /* \"#utility.yul\":2861:2879   */\n      dup1\n        /* \"#utility.yul\":2851:2932   */\n      tag_150\n      jumpi\n        /* \"#utility.yul\":2917:2921   */\n      0x7f\n        /* \"#utility.yul\":2909:2915   */\n      dup3\n        /* \"#utility.yul\":2905:2922   */\n      and\n        /* \"#utility.yul\":2895:2922   */\n      swap2\n      pop\n        /* \"#utility.yul\":2851:2932   */\n    tag_150:\n        /* \"#utility.yul\":2979:2981   */\n      0x20\n        /* \"#utility.yul\":2971:2977   */\n      dup3\n        /* \"#utility.yul\":2968:2982   */\n      lt\n        /* \"#utility.yul\":2948:2966   */\n      dup2\n        /* \"#utility.yul\":2945:2983   */\n      eq\n        /* \"#utility.yul\":2942:3026   */\n      iszero\n      tag_151\n      jumpi\n        /* \"#utility.yul\":2998:3016   */\n      tag_152\n      tag_153\n      jump\t// in\n    tag_152:\n        /* \"#utility.yul\":2942:3026   */\n    tag_151:\n        /* \"#utility.yul\":2763:3032   */\n      pop\n        /* \"#utility.yul\":2712:3032   */\n      swap2\n      swap1\n      pop\n      jump\t// out\n        /* \"#utility.yul\":3038:3271   */\n    tag_79:\n        /* \"#utility.yul\":3077:3080   */\n      0x00\n        /* \"#utility.yul\":3100:3124   */\n      tag_155\n        /* \"#utility.yul\":3118:3123   */\n      dup3\n        /* \"#utility.yul\":3100:3124   */\n      tag_131\n      jump\t// in\n    tag_155:\n        /* \"#utility.yul\":3091:3124   */\n      swap2\n      pop\n        /* \"#utility.yul\":3146:3212   */\n      0xffffffffffffffffffffffffffffffffffffffffffffffffffffffffffffffff\n        /* \"#utility.yul\":3139:3144   */\n      dup3\n        /* \"#utility.yul\":3136:3213   */\n      eq\n        /* \"#utility.yul\":3133:3236   */\n      iszero\n      tag_156\n      jumpi\n        /* \"#utility.yul\":3216:3234   */\n      tag_157\n      tag_158\n      jump\t// in\n    tag_157:\n        /* \"#utility.yul\":3133:3236   */\n    tag_156:\n        /* \"#utility.yul\":3263:3264   */\n      0x01\n        /* \"#utility.yul\":3256:3261   */\n      dup3\n        /* \"#utility.yul\":3252:3265   */\n      add\n        /* \"#utility.yul\":3245:3265   */\n      swap1\n      pop\n        /* \"#utility.yul\":3038:3271   */\n      swap2\n      swap1\n      pop\n      jump\t// out\n        /* \"#utility.yul\":3277:3453   */\n    tag_59:\n        /* \"#utility.yul\":3309:3310   */\n      0x00\n        /* \"#utility.yul\":3326:3346   */\n      tag_160\n        /* \"#utility.yul\":3344:3345   */\n      dup3\n        /* \"#utility.yul\":3326:3346   */\n      tag_131\n      jump\t// in\n    tag_160:\n        /* \"#utility.yul\":3321:3346   */\n      swap2\n      pop\n        /* \"#utility.yul\":3360:3380   */\n      tag_161\n        /* \"#utility.yul\":3378:3379   */\n      dup4\n        /* \"#utility.yul\":3360:3380   */\n      tag_131\n      jump\t// in\n    tag_161:\n        /* \"#utility.yul\":3355:3380   */\n      swap3\n      pop\n        /* \"#utility.yul\":3399:3400   */\n      dup3\n        /* \"#utility.yul\":3389:3424   */\n      tag_162\n      jumpi\n        /* \"#utility.yul\":3404:3422   */\n      tag_163\n      tag_164\n      jump\t// in\n    tag_163:\n        /* \"#utility.yul\":3389:3424   */\n    tag_162:\n        /* \"#utility.yul\":3445:3446   */\n      dup3\n        /* \"#utility.yul\":3442:3443   */\n      dup3\n        /* \"#utility.yul\":3438:3447   */\n      mod\n        /* \"#utility.yul\":3433:3447   */\n      swap1\n      pop\n        /* \"#utility.yul\":3277:3453   */\n      swap3\n      swap2\n      pop\n      pop\n      jump\t// out\n        /* \"#utility.yul\":3459:3639   */\n    tag_158:\n        /* \"#utility.yul\":3507:3584   */\n      0x4e487b7100000000000000000000000000000000000000000000000000000000\n        /* \"#utility.yul\":3504:3505   */\n      0x00\n        /* \"#utility.yul\":3497:3585   */\n      mstore\n        /* \"#utility.yul\":3604:3608   */\n      0x11\n        /* \"#utility.yul\":3601:3602   */\n      0x04\n        /* \"#utility.yul\":3594:3609   */\n      mstore\n        /* \"#utility.yul\":3628:3632   */\n      0x24\n        /* \"#utility.yul\":3625:3626   */\n      0x00\n        /* \"#utility.yul\":3618:3633   */\n      revert\n        /* \"#utility.yul\":3645:3825   */\n    tag_164:\n        /* \"#utility.yul\":3693:3770   */\n      0x4e487b7100000000000000000000000000000000000000000000000000000000\n        /* \"#utility.yul\":3690:3691   */\n      0x00\n        /* \"#utility.yul\":3683:3771   */\n      mstore\n        /* \"#utility.yul\":3790:3794   */\n      0x12\n        /* \"#utility.yul\":3787:3788   */\n      0x04\n        /* \"#utility.yul\":3780:3795   */\n      mstore\n        /* \"#utility.yul\":3814:3818   */\n      0x24\n        /* \"#utility.yul\":3811:3812   */\n      0x00\n        /* \"#utility.yul\":3804:3819   */\n      revert\n        /* \"#utility.yul\":3831:4011   */\n    tag_153:\n        /* \"#utility.yul\":3879:3956   */\n      0x4e487b7100000000000000000000000000000000000000000000000000000000\n        /* \"#utility.yul\":3876:3877   */\n      0x00\n        /* \"#utility.yul\":3869:3957   */\n      mstore\n        /* \"#utility.yul\":3976:3980   */\n      0x22\n        /* \"#utility.yul\":3973:3974   */\n      0x04\n        /* \"#utility.yul\":3966:3981   */\n      mstore\n        /* \"#utility.yul\":4000:4004   */\n      0x24\n        /* \"#utility.yul\":3997:3998   */\n      0x00\n        /* \"#utility.yul\":3990:4005   */\n      revert\n        /* \"#utility.yul\":4017:4197   */\n    tag_75:\n        /* \"#utility.yul\":4065:4142   */\n      0x4e487b7100000000000000000000000000000000000000000000000000000000\n        /* \"#utility.yul\":4062:4063   */\n      0x00\n        /* \"#utility.yul\":4055:4143   */\n      mstore\n        /* \"#utility.yul\":4162:4166   */\n      0x32\n        /* \"#utility.yul\":4159:4160   */\n      0x04\n        /* \"#utility.yul\":4152:4167   */\n      mstore\n        /* \"#utility.yul\":4186:4190   */\n      0x24\n        /* \"#utility.yul\":4183:4184   */\n      0x00\n        /* \"#utility.yul\":4176:4191   */\n      revert\n        /* \"#utility.yul\":4326:4443   */\n    tag_112:\n        /* \"#utility.yul\":4435:4436   */\n      0x00\n        /* \"#utility.yul\":4432:4433   */\n      dup1\n        /* \"#utility.yul\":4425:4437   */\n      revert\n        /* \"#utility.yul\":4449:4551   */\n    tag_127:\n        /* \"#utility.yul\":4490:4496   */\n      0x00\n        /* \"#utility.yul\":4541:4543   */\n      0x1f\n        /* \"#utility.yul\":4537:4544   */\n      not\n        /* \"#utility.yul\":4532:4534   */\n      0x1f\n        /* \"#utility.yul\":4525:4530   */\n      dup4\n        /* \"#utility.yul\":4521:4535   */\n      add\n        /* \"#utility.yul\":4517:4545   */\n      and\n        /* \"#utility.yul\":4507:4545   */\n      swap1\n      pop\n        /* \"#utility.yul\":4449:4551   */\n      swap2\n      swap1\n      pop\n      jump\t// out\n        /* \"#utility.yul\":4557:4679   */\n    tag_108:\n        /* \"#utility.yul\":4630:4654   */\n      tag_174\n        /* \"#utility.yul\":4648:4653   */\n      dup2\n        /* \"#utility.yul\":4630:4654   */\n      tag_131\n      jump\t// in\n    tag_174:\n        /* \"#utility.yul\":4623:4628   */\n      dup2\n        /* \"#utility.yul\":4620:4655   */\n      eq\n        /* \"#utility.yul\":4610:4673   */\n      tag_175\n      jumpi\n        /* \"#utility.yul\":4669:4670   */\n      0x00\n        /* \"#utility.yul\":4666:4667   */\n      dup1\n        /* \"#utility.yul\":4659:4671   */\n      revert\n        /* \"#utility.yul\":4610:4673   */\n    tag_175:\n        /* \"#utility.yul\":4557:4679   */\n      pop\n      jump\t// out\n\n    auxdata: 0xa26469706673582212203a3f9d33c99ee5463bc7fa5150724bcd5bf381fc60f35db0831d98c94ffc25ba64736f6c63430008070033\n}\n",
				"bytecode": {
					"linkReferences": {},
					"object": "60806040526040518060400160405280601981526020017f68656c6c6f20736f6c696469747920646576656c6f70657220000000000000008152506000908051906020019062000051929190620001f4565b50601560015560405180608001604052806040518060400160405280600381526020017f6e6674000000000000000000000000000000000000000000000000000000000081525081526020016040518060400160405280600881526020017f657468657269756d00000000000000000000000000000000000000000000000081525081526020016040518060400160405280600b81526020017f626c6f636b636861696e6500000000000000000000000000000000000000000081525081526020016040518060400160405280600581526020017f646170707300000000000000000000000000000000000000000000000000000081525081525060039060046200015e92919062000285565b50604051806101400160405280600060ff168152602001600160ff168152602001600260ff168152602001600360ff168152602001600460ff168152602001600560ff168152602001600660ff168152602001600760ff168152602001600860ff168152602001600960ff16815250600490600a620001df929190620002ec565b50348015620001ed57600080fd5b5062000435565b8280546200020290620003d0565b90600052602060002090601f01602090048101928262000226576000855562000272565b82601f106200024157805160ff191683800117855562000272565b8280016001018555821562000272579182015b828111156200027157825182559160200191906001019062000254565b5b50905062000281919062000343565b5090565b828054828255906000526020600020908101928215620002d9579160200282015b82811115620002d8578251829080519060200190620002c7929190620001f4565b5091602001919060010190620002a6565b5b509050620002e8919062000362565b5090565b82805482825590600052602060002090810192821562000330579160200282015b828111156200032f578251829060ff169055916020019190600101906200030d565b5b5090506200033f919062000343565b5090565b5b808211156200035e57600081600090555060010162000344565b5090565b5b808211156200038657600081816200037c91906200038a565b5060010162000363565b5090565b5080546200039890620003d0565b6000825580601f10620003ac5750620003cd565b601f016020900490600052602060002090810190620003cc919062000343565b5b50565b60006002820490506001821680620003e957607f821691505b602082108114156200040057620003ff62000406565b5b50919050565b7f4e487b7100000000000000000000000000000000000000000000000000000000600052602260045260246000fd5b6108ab80620004456000396000f3fe608060405234801561001057600080fd5b506004361061009e5760003560e01c8063951578af11610066578063951578af1461014757806395ccb57c146101655780639c1f8ae014610183578063be1c766b146101b3578063c19d93fb146101d15761009e565b806319ff1d21146100a357806329f3901e146100c15780632a2e1320146100dd57806372a818de1461010d578063741983c01461013d575b600080fd5b6100ab6101ef565b6040516100b8919061063e565b60405180910390f35b6100db60048036038101906100d6919061059f565b61027d565b005b6100f760048036038101906100f2919061059f565b610287565b6040516101049190610623565b60405180910390f35b6101276004803603810190610122919061059f565b6102b0565b6040516101349190610660565b60405180910390f35b6101456102d4565b005b61014f61032d565b60405161015c9190610660565b60405180910390f35b61016d610333565b60405161017a9190610660565b60405180910390f35b61019d6004803603810190610198919061059f565b6103a0565b6040516101aa919061063e565b60405180910390f35b6101bb61044c565b6040516101c89190610660565b60405180910390f35b6101d9610459565b6040516101e6919061063e565b60405180910390f35b600080546101fc906106e0565b80601f0160208091040260200160405190810160405280929190818152602001828054610228906106e0565b80156102755780601f1061024a57610100808354040283529160200191610275565b820191906000526020600020905b81548152906001019060200180831161025857829003601f168201915b505050505081565b8060018190555050565b600080600283610297919061075b565b14156102a657600190506102ab565b600090505b919050565b600481815481106102c057600080fd5b906000526020600020016000915090505481565b60126001541061032b576040518060400160405280600d81526020017f596f7520617265206164756c7400000000000000000000000000000000000000815250600290805190602001906103299291906104e7565b505b565b60015481565b6000806000905060005b600480549050811015610398576103716004828154811061036157610360610819565b5b9060005260206000200154610287565b1561038557818061038190610712565b9250505b808061039090610712565b91505061033d565b508091505090565b600381815481106103b057600080fd5b9060005260206000200160009150905080546103cb906106e0565b80601f01602080910402602001604051908101604052809291908181526020018280546103f7906106e0565b80156104445780601f1061041957610100808354040283529160200191610444565b820191906000526020600020905b81548152906001019060200180831161042757829003601f168201915b505050505081565b6000600380549050905090565b60028054610466906106e0565b80601f0160208091040260200160405190810160405280929190818152602001828054610492906106e0565b80156104df5780601f106104b4576101008083540402835291602001916104df565b820191906000526020600020905b8154815290600101906020018083116104c257829003601f168201915b505050505081565b8280546104f3906106e0565b90600052602060002090601f016020900481019282610515576000855561055c565b82601f1061052e57805160ff191683800117855561055c565b8280016001018555821561055c579182015b8281111561055b578251825591602001919060010190610540565b5b509050610569919061056d565b5090565b5b8082111561058657600081600090555060010161056e565b5090565b6000813590506105998161085e565b92915050565b6000602082840312156105b5576105b4610848565b5b60006105c38482850161058a565b91505092915050565b6105d581610697565b82525050565b60006105e68261067b565b6105f08185610686565b93506106008185602086016106ad565b6106098161084d565b840191505092915050565b61061d816106a3565b82525050565b600060208201905061063860008301846105cc565b92915050565b6000602082019050818103600083015261065881846105db565b905092915050565b60006020820190506106756000830184610614565b92915050565b600081519050919050565b600082825260208201905092915050565b60008115159050919050565b6000819050919050565b60005b838110156106cb5780820151818401526020810190506106b0565b838111156106da576000848401525b50505050565b600060028204905060018216806106f857607f821691505b6020821081141561070c5761070b6107ea565b5b50919050565b600061071d826106a3565b91507fffffffffffffffffffffffffffffffffffffffffffffffffffffffffffffffff8214156107505761074f61078c565b5b600182019050919050565b6000610766826106a3565b9150610771836106a3565b925082610781576107806107bb565b5b828206905092915050565b7f4e487b7100000000000000000000000000000000000000000000000000000000600052601160045260246000fd5b7f4e487b7100000000000000000000000000000000000000000000000000000000600052601260045260246000fd5b7f4e487b7100000000000000000000000000000000000000000000000000000000600052602260045260246000fd5b7f4e487b7100000000000000000000000000000000000000000000000000000000600052603260045260246000fd5b600080fd5b6000601f19601f8301169050919050565b610867816106a3565b811461087257600080fd5b5056fea26469706673582212203a3f9d33c99ee5463bc7fa5150724bcd5bf381fc60f35db0831d98c94ffc25ba64736f6c63430008070033",
					"opcodes": "PUSH1 0x80 PUSH1 0x40 MSTORE PUSH1 0x40 MLOAD DUP1 PUSH1 0x40 ADD PUSH1 0x40 MSTORE DUP1 PUSH1 0x19 DUP2 MSTORE PUSH1 0x20 ADD PUSH32 0x68656C6C6F20736F6C696469747920646576656C6F7065722000000000000000 DUP2 MSTORE POP PUSH1 0x0 SWAP1 DUP1 MLOAD SWAP1 PUSH1 0x20 ADD SWAP1 PUSH3 0x51 SWAP3 SWAP2 SWAP1 PUSH3 0x1F4 JUMP JUMPDEST POP PUSH1 0x15 PUSH1 0x1 SSTORE PUSH1 0x40 MLOAD DUP1 PUSH1 0x80 ADD PUSH1 0x40 MSTORE DUP1 PUSH1 0x40 MLOAD DUP1 PUSH1 0x40 ADD PUSH1 0x40 MSTORE DUP1 PUSH1 0x3 DUP2 MSTORE PUSH1 0x20 ADD PUSH32 0x6E66740000000000000000000000000000000000000000000000000000000000 DUP2 MSTORE POP DUP2 MSTORE PUSH1 0x20 ADD PUSH1 0x40 MLOAD DUP1 PUSH1 0x40 ADD PUSH1 0x40 MSTORE DUP1 PUSH1 0x8 DUP2 MSTORE PUSH1 0x20 ADD PUSH32 0x657468657269756D000000000000000000000000000000000000000000000000 DUP2 MSTORE POP DUP2 MSTORE PUSH1 0x20 ADD PUSH1 0x40 MLOAD DUP1 PUSH1 0x40 ADD PUSH1 0x40 MSTORE DUP1 PUSH1 0xB DUP2 MSTORE PUSH1 0x20 ADD PUSH32 0x626C6F636B636861696E65000000000000000000000000000000000000000000 DUP2 MSTORE POP DUP2 MSTORE PUSH1 0x20 ADD PUSH1 0x40 MLOAD DUP1 PUSH1 0x40 ADD PUSH1 0x40 MSTORE DUP1 PUSH1 0x5 DUP2 MSTORE PUSH1 0x20 ADD PUSH32 0x6461707073000000000000000000000000000000000000000000000000000000 DUP2 MSTORE POP DUP2 MSTORE POP PUSH1 0x3 SWAP1 PUSH1 0x4 PUSH3 0x15E SWAP3 SWAP2 SWAP1 PUSH3 0x285 JUMP JUMPDEST POP PUSH1 0x40 MLOAD DUP1 PUSH2 0x140 ADD PUSH1 0x40 MSTORE DUP1 PUSH1 0x0 PUSH1 0xFF AND DUP2 MSTORE PUSH1 0x20 ADD PUSH1 0x1 PUSH1 0xFF AND DUP2 MSTORE PUSH1 0x20 ADD PUSH1 0x2 PUSH1 0xFF AND DUP2 MSTORE PUSH1 0x20 ADD PUSH1 0x3 PUSH1 0xFF AND DUP2 MSTORE PUSH1 0x20 ADD PUSH1 0x4 PUSH1 0xFF AND DUP2 MSTORE PUSH1 0x20 ADD PUSH1 0x5 PUSH1 0xFF AND DUP2 MSTORE PUSH1 0x20 ADD PUSH1 0x6 PUSH1 0xFF AND DUP2 MSTORE PUSH1 0x20 ADD PUSH1 0x7 PUSH1 0xFF AND DUP2 MSTORE PUSH1 0x20 ADD PUSH1 0x8 PUSH1 0xFF AND DUP2 MSTORE PUSH1 0x20 ADD PUSH1 0x9 PUSH1 0xFF AND DUP2 MSTORE POP PUSH1 0x4 SWAP1 PUSH1 0xA PUSH3 0x1DF SWAP3 SWAP2 SWAP1 PUSH3 0x2EC JUMP JUMPDEST POP CALLVALUE DUP1 ISZERO PUSH3 0x1ED JUMPI PUSH1 0x0 DUP1 REVERT JUMPDEST POP PUSH3 0x435 JUMP JUMPDEST DUP3 DUP1 SLOAD PUSH3 0x202 SWAP1 PUSH3 0x3D0 JUMP JUMPDEST SWAP1 PUSH1 0x0 MSTORE PUSH1 0x20 PUSH1 0x0 KECCAK256 SWAP1 PUSH1 0x1F ADD PUSH1 0x20 SWAP1 DIV DUP2 ADD SWAP3 DUP3 PUSH3 0x226 JUMPI PUSH1 0x0 DUP6 SSTORE PUSH3 0x272 JUMP JUMPDEST DUP3 PUSH1 0x1F LT PUSH3 0x241 JUMPI DUP1 MLOAD PUSH1 0xFF NOT AND DUP4 DUP1 ADD OR DUP6 SSTORE PUSH3 0x272 JUMP JUMPDEST DUP3 DUP1 ADD PUSH1 0x1 ADD DUP6 SSTORE DUP3 ISZERO PUSH3 0x272 JUMPI SWAP2 DUP3 ADD JUMPDEST DUP3 DUP2 GT ISZERO PUSH3 0x271 JUMPI DUP3 MLOAD DUP3 SSTORE SWAP2 PUSH1 0x20 ADD SWAP2 SWAP1 PUSH1 0x1 ADD SWAP1 PUSH3 0x254 JUMP JUMPDEST JUMPDEST POP SWAP1 POP PUSH3 0x281 SWAP2 SWAP1 PUSH3 0x343 JUMP JUMPDEST POP SWAP1 JUMP JUMPDEST DUP3 DUP1 SLOAD DUP3 DUP3 SSTORE SWAP1 PUSH1 0x0 MSTORE PUSH1 0x20 PUSH1 0x0 KECCAK256 SWAP1 DUP2 ADD SWAP3 DUP3 ISZERO PUSH3 0x2D9 JUMPI SWAP2 PUSH1 0x20 MUL DUP3 ADD JUMPDEST DUP3 DUP2 GT ISZERO PUSH3 0x2D8 JUMPI DUP3 MLOAD DUP3 SWAP1 DUP1 MLOAD SWAP1 PUSH1 0x20 ADD SWAP1 PUSH3 0x2C7 SWAP3 SWAP2 SWAP1 PUSH3 0x1F4 JUMP JUMPDEST POP SWAP2 PUSH1 0x20 ADD SWAP2 SWAP1 PUSH1 0x1 ADD SWAP1 PUSH3 0x2A6 JUMP JUMPDEST JUMPDEST POP SWAP1 POP PUSH3 0x2E8 SWAP2 SWAP1 PUSH3 0x362 JUMP JUMPDEST POP SWAP1 JUMP JUMPDEST DUP3 DUP1 SLOAD DUP3 DUP3 SSTORE SWAP1 PUSH1 0x0 MSTORE PUSH1 0x20 PUSH1 0x0 KECCAK256 SWAP1 DUP2 ADD SWAP3 DUP3 ISZERO PUSH3 0x330 JUMPI SWAP2 PUSH1 0x20 MUL DUP3 ADD JUMPDEST DUP3 DUP2 GT ISZERO PUSH3 0x32F JUMPI DUP3 MLOAD DUP3 SWAP1 PUSH1 0xFF AND SWAP1 SSTORE SWAP2 PUSH1 0x20 ADD SWAP2 SWAP1 PUSH1 0x1 ADD SWAP1 PUSH3 0x30D JUMP JUMPDEST JUMPDEST POP SWAP1 POP PUSH3 0x33F SWAP2 SWAP1 PUSH3 0x343 JUMP JUMPDEST POP SWAP1 JUMP JUMPDEST JUMPDEST DUP1 DUP3 GT ISZERO PUSH3 0x35E JUMPI PUSH1 0x0 DUP2 PUSH1 0x0 SWAP1 SSTORE POP PUSH1 0x1 ADD PUSH3 0x344 JUMP JUMPDEST POP SWAP1 JUMP JUMPDEST JUMPDEST DUP1 DUP3 GT ISZERO PUSH3 0x386 JUMPI PUSH1 0x0 DUP2 DUP2 PUSH3 0x37C SWAP2 SWAP1 PUSH3 0x38A JUMP JUMPDEST POP PUSH1 0x1 ADD PUSH3 0x363 JUMP JUMPDEST POP SWAP1 JUMP JUMPDEST POP DUP1 SLOAD PUSH3 0x398 SWAP1 PUSH3 0x3D0 JUMP JUMPDEST PUSH1 0x0 DUP3 SSTORE DUP1 PUSH1 0x1F LT PUSH3 0x3AC JUMPI POP PUSH3 0x3CD JUMP JUMPDEST PUSH1 0x1F ADD PUSH1 0x20 SWAP1 DIV SWAP1 PUSH1 0x0 MSTORE PUSH1 0x20 PUSH1 0x0 KECCAK256 SWAP1 DUP2 ADD SWAP1 PUSH3 0x3CC SWAP2 SWAP1 PUSH3 0x343 JUMP JUMPDEST JUMPDEST POP JUMP JUMPDEST PUSH1 0x0 PUSH1 0x2 DUP3 DIV SWAP1 POP PUSH1 0x1 DUP3 AND DUP1 PUSH3 0x3E9 JUMPI PUSH1 0x7F DUP3 AND SWAP2 POP JUMPDEST PUSH1 0x20 DUP3 LT DUP2 EQ ISZERO PUSH3 0x400 JUMPI PUSH3 0x3FF PUSH3 0x406 JUMP JUMPDEST JUMPDEST POP SWAP2 SWAP1 POP JUMP JUMPDEST PUSH32 0x4E487B7100000000000000000000000000000000000000000000000000000000 PUSH1 0x0 MSTORE PUSH1 0x22 PUSH1 0x4 MSTORE PUSH1 0x24 PUSH1 0x0 REVERT JUMPDEST PUSH2 0x8AB DUP1 PUSH3 0x445 PUSH1 0x0 CODECOPY PUSH1 0x0 RETURN INVALID PUSH1 0x80 PUSH1 0x40 MSTORE CALLVALUE DUP1 ISZERO PUSH2 0x10 JUMPI PUSH1 0x0 DUP1 REVERT JUMPDEST POP PUSH1 0x4 CALLDATASIZE LT PUSH2 0x9E JUMPI PUSH1 0x0 CALLDATALOAD PUSH1 0xE0 SHR DUP1 PUSH4 0x951578AF GT PUSH2 0x66 JUMPI DUP1 PUSH4 0x951578AF EQ PUSH2 0x147 JUMPI DUP1 PUSH4 0x95CCB57C EQ PUSH2 0x165 JUMPI DUP1 PUSH4 0x9C1F8AE0 EQ PUSH2 0x183 JUMPI DUP1 PUSH4 0xBE1C766B EQ PUSH2 0x1B3 JUMPI DUP1 PUSH4 0xC19D93FB EQ PUSH2 0x1D1 JUMPI PUSH2 0x9E JUMP JUMPDEST DUP1 PUSH4 0x19FF1D21 EQ PUSH2 0xA3 JUMPI DUP1 PUSH4 0x29F3901E EQ PUSH2 0xC1 JUMPI DUP1 PUSH4 0x2A2E1320 EQ PUSH2 0xDD JUMPI DUP1 PUSH4 0x72A818DE EQ PUSH2 0x10D JUMPI DUP1 PUSH4 0x741983C0 EQ PUSH2 0x13D JUMPI JUMPDEST PUSH1 0x0 DUP1 REVERT JUMPDEST PUSH2 0xAB PUSH2 0x1EF JUMP JUMPDEST PUSH1 0x40 MLOAD PUSH2 0xB8 SWAP2 SWAP1 PUSH2 0x63E JUMP JUMPDEST PUSH1 0x40 MLOAD DUP1 SWAP2 SUB SWAP1 RETURN JUMPDEST PUSH2 0xDB PUSH1 0x4 DUP1 CALLDATASIZE SUB DUP2 ADD SWAP1 PUSH2 0xD6 SWAP2 SWAP1 PUSH2 0x59F JUMP JUMPDEST PUSH2 0x27D JUMP JUMPDEST STOP JUMPDEST PUSH2 0xF7 PUSH1 0x4 DUP1 CALLDATASIZE SUB DUP2 ADD SWAP1 PUSH2 0xF2 SWAP2 SWAP1 PUSH2 0x59F JUMP JUMPDEST PUSH2 0x287 JUMP JUMPDEST PUSH1 0x40 MLOAD PUSH2 0x104 SWAP2 SWAP1 PUSH2 0x623 JUMP JUMPDEST PUSH1 0x40 MLOAD DUP1 SWAP2 SUB SWAP1 RETURN JUMPDEST PUSH2 0x127 PUSH1 0x4 DUP1 CALLDATASIZE SUB DUP2 ADD SWAP1 PUSH2 0x122 SWAP2 SWAP1 PUSH2 0x59F JUMP JUMPDEST PUSH2 0x2B0 JUMP JUMPDEST PUSH1 0x40 MLOAD PUSH2 0x134 SWAP2 SWAP1 PUSH2 0x660 JUMP JUMPDEST PUSH1 0x40 MLOAD DUP1 SWAP2 SUB SWAP1 RETURN JUMPDEST PUSH2 0x145 PUSH2 0x2D4 JUMP JUMPDEST STOP JUMPDEST PUSH2 0x14F PUSH2 0x32D JUMP JUMPDEST PUSH1 0x40 MLOAD PUSH2 0x15C SWAP2 SWAP1 PUSH2 0x660 JUMP JUMPDEST PUSH1 0x40 MLOAD DUP1 SWAP2 SUB SWAP1 RETURN JUMPDEST PUSH2 0x16D PUSH2 0x333 JUMP JUMPDEST PUSH1 0x40 MLOAD PUSH2 0x17A SWAP2 SWAP1 PUSH2 0x660 JUMP JUMPDEST PUSH1 0x40 MLOAD DUP1 SWAP2 SUB SWAP1 RETURN JUMPDEST PUSH2 0x19D PUSH1 0x4 DUP1 CALLDATASIZE SUB DUP2 ADD SWAP1 PUSH2 0x198 SWAP2 SWAP1 PUSH2 0x59F JUMP JUMPDEST PUSH2 0x3A0 JUMP JUMPDEST PUSH1 0x40 MLOAD PUSH2 0x1AA SWAP2 SWAP1 PUSH2 0x63E JUMP JUMPDEST PUSH1 0x40 MLOAD DUP1 SWAP2 SUB SWAP1 RETURN JUMPDEST PUSH2 0x1BB PUSH2 0x44C JUMP JUMPDEST PUSH1 0x40 MLOAD PUSH2 0x1C8 SWAP2 SWAP1 PUSH2 0x660 JUMP JUMPDEST PUSH1 0x40 MLOAD DUP1 SWAP2 SUB SWAP1 RETURN JUMPDEST PUSH2 0x1D9 PUSH2 0x459 JUMP JUMPDEST PUSH1 0x40 MLOAD PUSH2 0x1E6 SWAP2 SWAP1 PUSH2 0x63E JUMP JUMPDEST PUSH1 0x40 MLOAD DUP1 SWAP2 SUB SWAP1 RETURN JUMPDEST PUSH1 0x0 DUP1 SLOAD PUSH2 0x1FC SWAP1 PUSH2 0x6E0 JUMP JUMPDEST DUP1 PUSH1 0x1F ADD PUSH1 0x20 DUP1 SWAP2 DIV MUL PUSH1 0x20 ADD PUSH1 0x40 MLOAD SWAP1 DUP2 ADD PUSH1 0x40 MSTORE DUP1 SWAP3 SWAP2 SWAP1 DUP2 DUP2 MSTORE PUSH1 0x20 ADD DUP3 DUP1 SLOAD PUSH2 0x228 SWAP1 PUSH2 0x6E0 JUMP JUMPDEST DUP1 ISZERO PUSH2 0x275 JUMPI DUP1 PUSH1 0x1F LT PUSH2 0x24A JUMPI PUSH2 0x100 DUP1 DUP4 SLOAD DIV MUL DUP4 MSTORE SWAP2 PUSH1 0x20 ADD SWAP2 PUSH2 0x275 JUMP JUMPDEST DUP3 ADD SWAP2 SWAP1 PUSH1 0x0 MSTORE PUSH1 0x20 PUSH1 0x0 KECCAK256 SWAP1 JUMPDEST DUP2 SLOAD DUP2 MSTORE SWAP1 PUSH1 0x1 ADD SWAP1 PUSH1 0x20 ADD DUP1 DUP4 GT PUSH2 0x258 JUMPI DUP3 SWAP1 SUB PUSH1 0x1F AND DUP3 ADD SWAP2 JUMPDEST POP POP POP POP POP DUP2 JUMP JUMPDEST DUP1 PUSH1 0x1 DUP2 SWAP1 SSTORE POP POP JUMP JUMPDEST PUSH1 0x0 DUP1 PUSH1 0x2 DUP4 PUSH2 0x297 SWAP2 SWAP1 PUSH2 0x75B JUMP JUMPDEST EQ ISZERO PUSH2 0x2A6 JUMPI PUSH1 0x1 SWAP1 POP PUSH2 0x2AB JUMP JUMPDEST PUSH1 0x0 SWAP1 POP JUMPDEST SWAP2 SWAP1 POP JUMP JUMPDEST PUSH1 0x4 DUP2 DUP2 SLOAD DUP2 LT PUSH2 0x2C0 JUMPI PUSH1 0x0 DUP1 REVERT JUMPDEST SWAP1 PUSH1 0x0 MSTORE PUSH1 0x20 PUSH1 0x0 KECCAK256 ADD PUSH1 0x0 SWAP2 POP SWAP1 POP SLOAD DUP2 JUMP JUMPDEST PUSH1 0x12 PUSH1 0x1 SLOAD LT PUSH2 0x32B JUMPI PUSH1 0x40 MLOAD DUP1 PUSH1 0x40 ADD PUSH1 0x40 MSTORE DUP1 PUSH1 0xD DUP2 MSTORE PUSH1 0x20 ADD PUSH32 0x596F7520617265206164756C7400000000000000000000000000000000000000 DUP2 MSTORE POP PUSH1 0x2 SWAP1 DUP1 MLOAD SWAP1 PUSH1 0x20 ADD SWAP1 PUSH2 0x329 SWAP3 SWAP2 SWAP1 PUSH2 0x4E7 JUMP JUMPDEST POP JUMPDEST JUMP JUMPDEST PUSH1 0x1 SLOAD DUP2 JUMP JUMPDEST PUSH1 0x0 DUP1 PUSH1 0x0 SWAP1 POP PUSH1 0x0 JUMPDEST PUSH1 0x4 DUP1 SLOAD SWAP1 POP DUP2 LT ISZERO PUSH2 0x398 JUMPI PUSH2 0x371 PUSH1 0x4 DUP3 DUP2 SLOAD DUP2 LT PUSH2 0x361 JUMPI PUSH2 0x360 PUSH2 0x819 JUMP JUMPDEST JUMPDEST SWAP1 PUSH1 0x0 MSTORE PUSH1 0x20 PUSH1 0x0 KECCAK256 ADD SLOAD PUSH2 0x287 JUMP JUMPDEST ISZERO PUSH2 0x385 JUMPI DUP2 DUP1 PUSH2 0x381 SWAP1 PUSH2 0x712 JUMP JUMPDEST SWAP3 POP POP JUMPDEST DUP1 DUP1 PUSH2 0x390 SWAP1 PUSH2 0x712 JUMP JUMPDEST SWAP2 POP POP PUSH2 0x33D JUMP JUMPDEST POP DUP1 SWAP2 POP POP SWAP1 JUMP JUMPDEST PUSH1 0x3 DUP2 DUP2 SLOAD DUP2 LT PUSH2 0x3B0 JUMPI PUSH1 0x0 DUP1 REVERT JUMPDEST SWAP1 PUSH1 0x0 MSTORE PUSH1 0x20 PUSH1 0x0 KECCAK256 ADD PUSH1 0x0 SWAP2 POP SWAP1 POP DUP1 SLOAD PUSH2 0x3CB SWAP1 PUSH2 0x6E0 JUMP JUMPDEST DUP1 PUSH1 0x1F ADD PUSH1 0x20 DUP1 SWAP2 DIV MUL PUSH1 0x20 ADD PUSH1 0x40 MLOAD SWAP1 DUP2 ADD PUSH1 0x40 MSTORE DUP1 SWAP3 SWAP2 SWAP1 DUP2 DUP2 MSTORE PUSH1 0x20 ADD DUP3 DUP1 SLOAD PUSH2 0x3F7 SWAP1 PUSH2 0x6E0 JUMP JUMPDEST DUP1 ISZERO PUSH2 0x444 JUMPI DUP1 PUSH1 0x1F LT PUSH2 0x419 JUMPI PUSH2 0x100 DUP1 DUP4 SLOAD DIV MUL DUP4 MSTORE SWAP2 PUSH1 0x20 ADD SWAP2 PUSH2 0x444 JUMP JUMPDEST DUP3 ADD SWAP2 SWAP1 PUSH1 0x0 MSTORE PUSH1 0x20 PUSH1 0x0 KECCAK256 SWAP1 JUMPDEST DUP2 SLOAD DUP2 MSTORE SWAP1 PUSH1 0x1 ADD SWAP1 PUSH1 0x20 ADD DUP1 DUP4 GT PUSH2 0x427 JUMPI DUP3 SWAP1 SUB PUSH1 0x1F AND DUP3 ADD SWAP2 JUMPDEST POP POP POP POP POP DUP2 JUMP JUMPDEST PUSH1 0x0 PUSH1 0x3 DUP1 SLOAD SWAP1 POP SWAP1 POP SWAP1 JUMP JUMPDEST PUSH1 0x2 DUP1 SLOAD PUSH2 0x466 SWAP1 PUSH2 0x6E0 JUMP JUMPDEST DUP1 PUSH1 0x1F ADD PUSH1 0x20 DUP1 SWAP2 DIV MUL PUSH1 0x20 ADD PUSH1 0x40 MLOAD SWAP1 DUP2 ADD PUSH1 0x40 MSTORE DUP1 SWAP3 SWAP2 SWAP1 DUP2 DUP2 MSTORE PUSH1 0x20 ADD DUP3 DUP1 SLOAD PUSH2 0x492 SWAP1 PUSH2 0x6E0 JUMP JUMPDEST DUP1 ISZERO PUSH2 0x4DF JUMPI DUP1 PUSH1 0x1F LT PUSH2 0x4B4 JUMPI PUSH2 0x100 DUP1 DUP4 SLOAD DIV MUL DUP4 MSTORE SWAP2 PUSH1 0x20 ADD SWAP2 PUSH2 0x4DF JUMP JUMPDEST DUP3 ADD SWAP2 SWAP1 PUSH1 0x0 MSTORE PUSH1 0x20 PUSH1 0x0 KECCAK256 SWAP1 JUMPDEST DUP2 SLOAD DUP2 MSTORE SWAP1 PUSH1 0x1 ADD SWAP1 PUSH1 0x20 ADD DUP1 DUP4 GT PUSH2 0x4C2 JUMPI DUP3 SWAP1 SUB PUSH1 0x1F AND DUP3 ADD SWAP2 JUMPDEST POP POP POP POP POP DUP2 JUMP JUMPDEST DUP3 DUP1 SLOAD PUSH2 0x4F3 SWAP1 PUSH2 0x6E0 JUMP JUMPDEST SWAP1 PUSH1 0x0 MSTORE PUSH1 0x20 PUSH1 0x0 KECCAK256 SWAP1 PUSH1 0x1F ADD PUSH1 0x20 SWAP1 DIV DUP2 ADD SWAP3 DUP3 PUSH2 0x515 JUMPI PUSH1 0x0 DUP6 SSTORE PUSH2 0x55C JUMP JUMPDEST DUP3 PUSH1 0x1F LT PUSH2 0x52E JUMPI DUP1 MLOAD PUSH1 0xFF NOT AND DUP4 DUP1 ADD OR DUP6 SSTORE PUSH2 0x55C JUMP JUMPDEST DUP3 DUP1 ADD PUSH1 0x1 ADD DUP6 SSTORE DUP3 ISZERO PUSH2 0x55C JUMPI SWAP2 DUP3 ADD JUMPDEST DUP3 DUP2 GT ISZERO PUSH2 0x55B JUMPI DUP3 MLOAD DUP3 SSTORE SWAP2 PUSH1 0x20 ADD SWAP2 SWAP1 PUSH1 0x1 ADD SWAP1 PUSH2 0x540 JUMP JUMPDEST JUMPDEST POP SWAP1 POP PUSH2 0x569 SWAP2 SWAP1 PUSH2 0x56D JUMP JUMPDEST POP SWAP1 JUMP JUMPDEST JUMPDEST DUP1 DUP3 GT ISZERO PUSH2 0x586 JUMPI PUSH1 0x0 DUP2 PUSH1 0x0 SWAP1 SSTORE POP PUSH1 0x1 ADD PUSH2 0x56E JUMP JUMPDEST POP SWAP1 JUMP JUMPDEST PUSH1 0x0 DUP2 CALLDATALOAD SWAP1 POP PUSH2 0x599 DUP2 PUSH2 0x85E JUMP JUMPDEST SWAP3 SWAP2 POP POP JUMP JUMPDEST PUSH1 0x0 PUSH1 0x20 DUP3 DUP5 SUB SLT ISZERO PUSH2 0x5B5 JUMPI PUSH2 0x5B4 PUSH2 0x848 JUMP JUMPDEST JUMPDEST PUSH1 0x0 PUSH2 0x5C3 DUP5 DUP3 DUP6 ADD PUSH2 0x58A JUMP JUMPDEST SWAP2 POP POP SWAP3 SWAP2 POP POP JUMP JUMPDEST PUSH2 0x5D5 DUP2 PUSH2 0x697 JUMP JUMPDEST DUP3 MSTORE POP POP JUMP JUMPDEST PUSH1 0x0 PUSH2 0x5E6 DUP3 PUSH2 0x67B JUMP JUMPDEST PUSH2 0x5F0 DUP2 DUP6 PUSH2 0x686 JUMP JUMPDEST SWAP4 POP PUSH2 0x600 DUP2 DUP6 PUSH1 0x20 DUP7 ADD PUSH2 0x6AD JUMP JUMPDEST PUSH2 0x609 DUP2 PUSH2 0x84D JUMP JUMPDEST DUP5 ADD SWAP2 POP POP SWAP3 SWAP2 POP POP JUMP JUMPDEST PUSH2 0x61D DUP2 PUSH2 0x6A3 JUMP JUMPDEST DUP3 MSTORE POP POP JUMP JUMPDEST PUSH1 0x0 PUSH1 0x20 DUP3 ADD SWAP1 POP PUSH2 0x638 PUSH1 0x0 DUP4 ADD DUP5 PUSH2 0x5CC JUMP JUMPDEST SWAP3 SWAP2 POP POP JUMP JUMPDEST PUSH1 0x0 PUSH1 0x20 DUP3 ADD SWAP1 POP DUP2 DUP2 SUB PUSH1 0x0 DUP4 ADD MSTORE PUSH2 0x658 DUP2 DUP5 PUSH2 0x5DB JUMP JUMPDEST SWAP1 POP SWAP3 SWAP2 POP POP JUMP JUMPDEST PUSH1 0x0 PUSH1 0x20 DUP3 ADD SWAP1 POP PUSH2 0x675 PUSH1 0x0 DUP4 ADD DUP5 PUSH2 0x614 JUMP JUMPDEST SWAP3 SWAP2 POP POP JUMP JUMPDEST PUSH1 0x0 DUP2 MLOAD SWAP1 POP SWAP2 SWAP1 POP JUMP JUMPDEST PUSH1 0x0 DUP3 DUP3 MSTORE PUSH1 0x20 DUP3 ADD SWAP1 POP SWAP3 SWAP2 POP POP JUMP JUMPDEST PUSH1 0x0 DUP2 ISZERO ISZERO SWAP1 POP SWAP2 SWAP1 POP JUMP JUMPDEST PUSH1 0x0 DUP2 SWAP1 POP SWAP2 SWAP1 POP JUMP JUMPDEST PUSH1 0x0 JUMPDEST DUP4 DUP2 LT ISZERO PUSH2 0x6CB JUMPI DUP1 DUP3 ADD MLOAD DUP2 DUP5 ADD MSTORE PUSH1 0x20 DUP2 ADD SWAP1 POP PUSH2 0x6B0 JUMP JUMPDEST DUP4 DUP2 GT ISZERO PUSH2 0x6DA JUMPI PUSH1 0x0 DUP5 DUP5 ADD MSTORE JUMPDEST POP POP POP POP JUMP JUMPDEST PUSH1 0x0 PUSH1 0x2 DUP3 DIV SWAP1 POP PUSH1 0x1 DUP3 AND DUP1 PUSH2 0x6F8 JUMPI PUSH1 0x7F DUP3 AND SWAP2 POP JUMPDEST PUSH1 0x20 DUP3 LT DUP2 EQ ISZERO PUSH2 0x70C JUMPI PUSH2 0x70B PUSH2 0x7EA JUMP JUMPDEST JUMPDEST POP SWAP2 SWAP1 POP JUMP JUMPDEST PUSH1 0x0 PUSH2 0x71D DUP3 PUSH2 0x6A3 JUMP JUMPDEST SWAP2 POP PUSH32 0xFFFFFFFFFFFFFFFFFFFFFFFFFFFFFFFFFFFFFFFFFFFFFFFFFFFFFFFFFFFFFFFF DUP3 EQ ISZERO PUSH2 0x750 JUMPI PUSH2 0x74F PUSH2 0x78C JUMP JUMPDEST JUMPDEST PUSH1 0x1 DUP3 ADD SWAP1 POP SWAP2 SWAP1 POP JUMP JUMPDEST PUSH1 0x0 PUSH2 0x766 DUP3 PUSH2 0x6A3 JUMP JUMPDEST SWAP2 POP PUSH2 0x771 DUP4 PUSH2 0x6A3 JUMP JUMPDEST SWAP3 POP DUP3 PUSH2 0x781 JUMPI PUSH2 0x780 PUSH2 0x7BB JUMP JUMPDEST JUMPDEST DUP3 DUP3 MOD SWAP1 POP SWAP3 SWAP2 POP POP JUMP JUMPDEST PUSH32 0x4E487B7100000000000000000000000000000000000000000000000000000000 PUSH1 0x0 MSTORE PUSH1 0x11 PUSH1 0x4 MSTORE PUSH1 0x24 PUSH1 0x0 REVERT JUMPDEST PUSH32 0x4E487B7100000000000000000000000000000000000000000000000000000000 PUSH1 0x0 MSTORE PUSH1 0x12 PUSH1 0x4 MSTORE PUSH1 0x24 PUSH1 0x0 REVERT JUMPDEST PUSH32 0x4E487B7100000000000000000000000000000000000000000000000000000000 PUSH1 0x0 MSTORE PUSH1 0x22 PUSH1 0x4 MSTORE PUSH1 0x24 PUSH1 0x0 REVERT JUMPDEST PUSH32 0x4E487B7100000000000000000000000000000000000000000000000000000000 PUSH1 0x0 MSTORE PUSH1 0x32 PUSH1 0x4 MSTORE PUSH1 0x24 PUSH1 0x0 REVERT JUMPDEST PUSH1 0x0 DUP1 REVERT JUMPDEST PUSH1 0x0 PUSH1 0x1F NOT PUSH1 0x1F DUP4 ADD AND SWAP1 POP SWAP2 SWAP1 POP JUMP JUMPDEST PUSH2 0x867 DUP2 PUSH2 0x6A3 JUMP JUMPDEST DUP2 EQ PUSH2 0x872 JUMPI PUSH1 0x0 DUP1 REVERT JUMPDEST POP JUMP INVALID LOG2 PUSH5 0x6970667358 0x22 SLT KECCAK256 GASPRICE EXTCODEHASH SWAP14 CALLER 0xC9 SWAP15 0xE5 CHAINID EXTCODESIZE 0xC7 STATICCALL MLOAD POP PUSH19 0x4BCD5BF381FC60F35DB0831D98C94FFC25BA64 PUSH20 0x6F6C634300080700330000000000000000000000 "
				},
				"gasEstimates": {
					"creation": {
						"codeDepositCost": "443800",
						"executionCost": "infinite",
						"totalCost": "infinite"
					},
					"external": {
						"checkAge()": "infinite",
						"countNumber()": "infinite",
						"getLength()": "2511",
						"getMyAge(uint256)": "22543",
						"hello()": "infinite",
						"isEven(uint256)": "infinite",
						"myage()": "2429",
						"nbr(uint256)": "infinite",
						"state()": "infinite",
						"web3(uint256)": "infinite"
					}
				},
				"methodIdentifiers": {
					"checkAge()": "741983c0",
					"countNumber()": "95ccb57c",
					"getLength()": "be1c766b",
					"getMyAge(uint256)": "29f3901e",
					"hello()": "19ff1d21",
					"isEven(uint256)": "2a2e1320",
					"myage()": "951578af",
					"nbr(uint256)": "72a818de",
					"state()": "c19d93fb",
					"web3(uint256)": "9c1f8ae0"
				}
			},
			"storageLayout": {
				"storage": [
					{
						"astId": 4,
						"contract": "contracts/MainContract.sol:Main",
						"label": "hello",
						"offset": 0,
						"slot": "0",
						"type": "t_string_storage"
					},
					{
						"astId": 7,
						"contract": "contracts/MainContract.sol:Main",
						"label": "myage",
						"offset": 0,
						"slot": "1",
						"type": "t_uint256"
					},
					{
						"astId": 19,
						"contract": "contracts/MainContract.sol:Main",
						"label": "state",
						"offset": 0,
						"slot": "2",
						"type": "t_string_storage"
					},
					{
						"astId": 39,
						"contract": "contracts/MainContract.sol:Main",
						"label": "web3",
						"offset": 0,
						"slot": "3",
						"type": "t_array(t_string_storage)dyn_storage"
					},
					{
						"astId": 62,
						"contract": "contracts/MainContract.sol:Main",
						"label": "nbr",
						"offset": 0,
						"slot": "4",
						"type": "t_array(t_uint256)dyn_storage"
					}
				],
				"types": {
					"t_array(t_string_storage)dyn_storage": {
						"base": "t_string_storage",
						"encoding": "dynamic_array",
						"label": "string[]",
						"numberOfBytes": "32"
					},
					"t_array(t_uint256)dyn_storage": {
						"base": "t_uint256",
						"encoding": "dynamic_array",
						"label": "uint256[]",
						"numberOfBytes": "32"
					},
					"t_string_storage": {
						"encoding": "bytes",
						"label": "string",
						"numberOfBytes": "32"
					},
					"t_uint256": {
						"encoding": "inplace",
						"label": "uint256",
						"numberOfBytes": "32"
					}
				}
			},
			"userdoc": {
				"kind": "user",
				"methods": {},
				"version": 1
			}
		}
	}
}