{
	"contracts/MainContract.sol": {
		"Main": {
			"abi": [
				{
					"inputs": [],
					"name": "checkAge",
					"outputs": [],
					"stateMutability": "nonpayable",
					"type": "function"
				},
				{
					"inputs": [],
					"name": "getLength",
					"outputs": [
						{
							"internalType": "uint256",
							"name": "",
							"type": "uint256"
						}
					],
					"stateMutability": "view",
					"type": "function"
				},
				{
					"inputs": [
						{
							"internalType": "uint256",
							"name": "_newAge",
							"type": "uint256"
						}
					],
					"name": "getMyAge",
					"outputs": [],
					"stateMutability": "nonpayable",
					"type": "function"
				},
				{
					"inputs": [],
					"name": "hello",
					"outputs": [
						{
							"internalType": "string",
							"name": "",
							"type": "string"
						}
					],
					"stateMutability": "view",
					"type": "function"
				},
				{
					"inputs": [
						{
							"internalType": "uint256",
							"name": "_n",
							"type": "uint256"
						}
					],
					"name": "isEven",
					"outputs": [
						{
							"internalType": "bool",
							"name": "",
							"type": "bool"
						}
					],
					"stateMutability": "view",
					"type": "function"
				},
				{
					"inputs": [],
					"name": "myage",
					"outputs": [
						{
							"internalType": "uint256",
							"name": "",
							"type": "uint256"
						}
					],
					"stateMutability": "view",
					"type": "function"
				},
				{
					"inputs": [],
					"name": "state",
					"outputs": [
						{
							"internalType": "string",
							"name": "",
							"type": "string"
						}
					],
					"stateMutability": "view",
					"type": "function"
				},
				{
					"inputs": [
						{
							"internalType": "uint256",
							"name": "",
							"type": "uint256"
						}
					],
					"name": "web3",
					"outputs": [
						{
							"internalType": "string",
							"name": "",
							"type": "string"
						}
					],
					"stateMutability": "view",
					"type": "function"
				}
			],
			"devdoc": {
				"kind": "dev",
				"methods": {},
				"version": 1
			},
			"evm": {
				"assembly": "    /* \"contracts/MainContract.sol\":74:912  contract Main{\r... */\n  mstore(0x40, 0x80)\n    /* \"contracts/MainContract.sol\":90:137  string public hello=\"hello solidity developer \" */\n  mload(0x40)\n  dup1\n  0x40\n  add\n  0x40\n  mstore\n  dup1\n  0x19\n  dup2\n  mstore\n  0x20\n  add\n  0x68656c6c6f20736f6c696469747920646576656c6f7065722000000000000000\n  dup2\n  mstore\n  pop\n  0x00\n  swap1\n  dup1\n  mload\n  swap1\n  0x20\n  add\n  swap1\n  tag_1\n  swap3\n  swap2\n  swap1\n  tag_2\n  jump\t// in\ntag_1:\n  pop\n    /* \"contracts/MainContract.sol\":215:217  21 */\n  0x15\n    /* \"contracts/MainContract.sol\":197:217  uint public myage=21 */\n  0x01\n  sstore\n    /* \"contracts/MainContract.sol\":642:703  string[] public web3=[\"nft\",\"etherium\",\"blockchaine\",\"dapps\"] */\n  mload(0x40)\n  dup1\n  0x80\n  add\n  0x40\n  mstore\n  dup1\n  mload(0x40)\n  dup1\n  0x40\n  add\n  0x40\n  mstore\n  dup1\n  0x03\n  dup2\n  mstore\n  0x20\n  add\n  0x6e66740000000000000000000000000000000000000000000000000000000000\n  dup2\n  mstore\n  pop\n  dup2\n  mstore\n  0x20\n  add\n  mload(0x40)\n  dup1\n  0x40\n  add\n  0x40\n  mstore\n  dup1\n  0x08\n  dup2\n  mstore\n  0x20\n  add\n  0x657468657269756d000000000000000000000000000000000000000000000000\n  dup2\n  mstore\n  pop\n  dup2\n  mstore\n  0x20\n  add\n  mload(0x40)\n  dup1\n  0x40\n  add\n  0x40\n  mstore\n  dup1\n  0x0b\n  dup2\n  mstore\n  0x20\n  add\n  0x626c6f636b636861696e65000000000000000000000000000000000000000000\n  dup2\n  mstore\n  pop\n  dup2\n  mstore\n  0x20\n  add\n  mload(0x40)\n  dup1\n  0x40\n  add\n  0x40\n  mstore\n  dup1\n  0x05\n  dup2\n  mstore\n  0x20\n  add\n  0x6461707073000000000000000000000000000000000000000000000000000000\n  dup2\n  mstore\n  pop\n  dup2\n  mstore\n  pop\n  0x03\n  swap1\n  0x04\n  tag_3\n  swap3\n  swap2\n  swap1\n  tag_4\n  jump\t// in\ntag_3:\n  pop\n    /* \"contracts/MainContract.sol\":814:844  uint[] nbr=[1,2,3,4,5,6,7,8,9] */\n  mload(0x40)\n  dup1\n  0x0120\n  add\n  0x40\n  mstore\n  dup1\n    /* \"contracts/MainContract.sol\":826:827  1 */\n  0x01\n    /* \"contracts/MainContract.sol\":814:844  uint[] nbr=[1,2,3,4,5,6,7,8,9] */\n  0xff\n  and\n  dup2\n  mstore\n  0x20\n  add\n    /* \"contracts/MainContract.sol\":828:829  2 */\n  0x02\n    /* \"contracts/MainContract.sol\":814:844  uint[] nbr=[1,2,3,4,5,6,7,8,9] */\n  0xff\n  and\n  dup2\n  mstore\n  0x20\n  add\n    /* \"contracts/MainContract.sol\":830:831  3 */\n  0x03\n    /* \"contracts/MainContract.sol\":814:844  uint[] nbr=[1,2,3,4,5,6,7,8,9] */\n  0xff\n  and\n  dup2\n  mstore\n  0x20\n  add\n    /* \"contracts/MainContract.sol\":832:833  4 */\n  0x04\n    /* \"contracts/MainContract.sol\":814:844  uint[] nbr=[1,2,3,4,5,6,7,8,9] */\n  0xff\n  and\n  dup2\n  mstore\n  0x20\n  add\n    /* \"contracts/MainContract.sol\":834:835  5 */\n  0x05\n    /* \"contracts/MainContract.sol\":814:844  uint[] nbr=[1,2,3,4,5,6,7,8,9] */\n  0xff\n  and\n  dup2\n  mstore\n  0x20\n  add\n    /* \"contracts/MainContract.sol\":836:837  6 */\n  0x06\n    /* \"contracts/MainContract.sol\":814:844  uint[] nbr=[1,2,3,4,5,6,7,8,9] */\n  0xff\n  and\n  dup2\n  mstore\n  0x20\n  add\n    /* \"contracts/MainContract.sol\":838:839  7 */\n  0x07\n    /* \"contracts/MainContract.sol\":814:844  uint[] nbr=[1,2,3,4,5,6,7,8,9] */\n  0xff\n  and\n  dup2\n  mstore\n  0x20\n  add\n    /* \"contracts/MainContract.sol\":840:841  8 */\n  0x08\n    /* \"contracts/MainContract.sol\":814:844  uint[] nbr=[1,2,3,4,5,6,7,8,9] */\n  0xff\n  and\n  dup2\n  mstore\n  0x20\n  add\n    /* \"contracts/MainContract.sol\":842:843  9 */\n  0x09\n    /* \"contracts/MainContract.sol\":814:844  uint[] nbr=[1,2,3,4,5,6,7,8,9] */\n  0xff\n  and\n  dup2\n  mstore\n  pop\n  0x04\n  swap1\n  0x09\n  tag_5\n  swap3\n  swap2\n  swap1\n  tag_6\n  jump\t// in\ntag_5:\n  pop\n    /* \"contracts/MainContract.sol\":74:912  contract Main{\r... */\n  callvalue\n  dup1\n  iszero\n  tag_7\n  jumpi\n  0x00\n  dup1\n  revert\ntag_7:\n  pop\n  jump(tag_8)\ntag_2:\n  dup3\n  dup1\n  sload\n  tag_9\n  swap1\n  tag_10\n  jump\t// in\ntag_9:\n  swap1\n  0x00\n  mstore\n  keccak256(0x00, 0x20)\n  swap1\n  0x1f\n  add\n  0x20\n  swap1\n  div\n  dup2\n  add\n  swap3\n  dup3\n  tag_12\n  jumpi\n  0x00\n  dup6\n  sstore\n  jump(tag_11)\ntag_12:\n  dup3\n  0x1f\n  lt\n  tag_13\n  jumpi\n  dup1\n  mload\n  not(0xff)\n  and\n  dup4\n  dup1\n  add\n  or\n  dup6\n  sstore\n  jump(tag_11)\ntag_13:\n  dup3\n  dup1\n  add\n  0x01\n  add\n  dup6\n  sstore\n  dup3\n  iszero\n  tag_11\n  jumpi\n  swap2\n  dup3\n  add\ntag_14:\n  dup3\n  dup2\n  gt\n  iszero\n  tag_15\n  jumpi\n  dup3\n  mload\n  dup3\n  sstore\n  swap2\n  0x20\n  add\n  swap2\n  swap1\n  0x01\n  add\n  swap1\n  jump(tag_14)\ntag_15:\ntag_11:\n  pop\n  swap1\n  pop\n  tag_16\n  swap2\n  swap1\n  tag_17\n  jump\t// in\ntag_16:\n  pop\n  swap1\n  jump\t// out\ntag_4:\n  dup3\n  dup1\n  sload\n  dup3\n  dup3\n  sstore\n  swap1\n  0x00\n  mstore\n  keccak256(0x00, 0x20)\n  swap1\n  dup2\n  add\n  swap3\n  dup3\n  iszero\n  tag_18\n  jumpi\n  swap2\n  0x20\n  mul\n  dup3\n  add\ntag_19:\n  dup3\n  dup2\n  gt\n  iszero\n  tag_20\n  jumpi\n  dup3\n  mload\n  dup3\n  swap1\n  dup1\n  mload\n  swap1\n  0x20\n  add\n  swap1\n  tag_21\n  swap3\n  swap2\n  swap1\n  tag_2\n  jump\t// in\ntag_21:\n  pop\n  swap2\n  0x20\n  add\n  swap2\n  swap1\n  0x01\n  add\n  swap1\n  jump(tag_19)\ntag_20:\ntag_18:\n  pop\n  swap1\n  pop\n  tag_22\n  swap2\n  swap1\n  tag_23\n  jump\t// in\ntag_22:\n  pop\n  swap1\n  jump\t// out\ntag_6:\n  dup3\n  dup1\n  sload\n  dup3\n  dup3\n  sstore\n  swap1\n  0x00\n  mstore\n  keccak256(0x00, 0x20)\n  swap1\n  dup2\n  add\n  swap3\n  dup3\n  iszero\n  tag_24\n  jumpi\n  swap2\n  0x20\n  mul\n  dup3\n  add\ntag_25:\n  dup3\n  dup2\n  gt\n  iszero\n  tag_26\n  jumpi\n  dup3\n  mload\n  dup3\n  swap1\n  0xff\n  and\n  swap1\n  sstore\n  swap2\n  0x20\n  add\n  swap2\n  swap1\n  0x01\n  add\n  swap1\n  jump(tag_25)\ntag_26:\ntag_24:\n  pop\n  swap1\n  pop\n  tag_27\n  swap2\n  swap1\n  tag_17\n  jump\t// in\ntag_27:\n  pop\n  swap1\n  jump\t// out\ntag_17:\ntag_28:\n  dup1\n  dup3\n  gt\n  iszero\n  tag_29\n  jumpi\n  0x00\n  dup2\n  0x00\n  swap1\n  sstore\n  pop\n  0x01\n  add\n  jump(tag_28)\ntag_29:\n  pop\n  swap1\n  jump\t// out\ntag_23:\ntag_30:\n  dup1\n  dup3\n  gt\n  iszero\n  tag_31\n  jumpi\n  0x00\n  dup2\n  dup2\n  tag_32\n  swap2\n  swap1\n  tag_33\n  jump\t// in\ntag_32:\n  pop\n  0x01\n  add\n  jump(tag_30)\ntag_31:\n  pop\n  swap1\n  jump\t// out\ntag_33:\n  pop\n  dup1\n  sload\n  tag_34\n  swap1\n  tag_10\n  jump\t// in\ntag_34:\n  0x00\n  dup3\n  sstore\n  dup1\n  0x1f\n  lt\n  tag_36\n  jumpi\n  pop\n  jump(tag_35)\ntag_36:\n  0x1f\n  add\n  0x20\n  swap1\n  div\n  swap1\n  0x00\n  mstore\n  keccak256(0x00, 0x20)\n  swap1\n  dup2\n  add\n  swap1\n  tag_37\n  swap2\n  swap1\n  tag_17\n  jump\t// in\ntag_37:\ntag_35:\n  pop\n  jump\t// out\n    /* \"#utility.yul\":7:327   */\ntag_10:\n    /* \"#utility.yul\":51:57   */\n  0x00\n    /* \"#utility.yul\":88:89   */\n  0x02\n    /* \"#utility.yul\":82:86   */\n  dup3\n    /* \"#utility.yul\":78:90   */\n  div\n    /* \"#utility.yul\":68:90   */\n  swap1\n  pop\n    /* \"#utility.yul\":135:136   */\n  0x01\n    /* \"#utility.yul\":129:133   */\n  dup3\n    /* \"#utility.yul\":125:137   */\n  and\n    /* \"#utility.yul\":156:174   */\n  dup1\n    /* \"#utility.yul\":146:227   */\n  tag_40\n  jumpi\n    /* \"#utility.yul\":212:216   */\n  0x7f\n    /* \"#utility.yul\":204:210   */\n  dup3\n    /* \"#utility.yul\":200:217   */\n  and\n    /* \"#utility.yul\":190:217   */\n  swap2\n  pop\n    /* \"#utility.yul\":146:227   */\ntag_40:\n    /* \"#utility.yul\":274:276   */\n  0x20\n    /* \"#utility.yul\":266:272   */\n  dup3\n    /* \"#utility.yul\":263:277   */\n  lt\n    /* \"#utility.yul\":243:261   */\n  dup2\n    /* \"#utility.yul\":240:278   */\n  eq\n    /* \"#utility.yul\":237:321   */\n  iszero\n  tag_41\n  jumpi\n    /* \"#utility.yul\":293:311   */\n  tag_42\n  tag_43\n  jump\t// in\ntag_42:\n    /* \"#utility.yul\":237:321   */\ntag_41:\n    /* \"#utility.yul\":58:327   */\n  pop\n    /* \"#utility.yul\":7:327   */\n  swap2\n  swap1\n  pop\n  jump\t// out\n    /* \"#utility.yul\":333:513   */\ntag_43:\n    /* \"#utility.yul\":381:458   */\n  0x4e487b7100000000000000000000000000000000000000000000000000000000\n    /* \"#utility.yul\":378:379   */\n  0x00\n    /* \"#utility.yul\":371:459   */\n  mstore\n    /* \"#utility.yul\":478:482   */\n  0x22\n    /* \"#utility.yul\":475:476   */\n  0x04\n    /* \"#utility.yul\":468:483   */\n  mstore\n    /* \"#utility.yul\":502:506   */\n  0x24\n    /* \"#utility.yul\":499:500   */\n  0x00\n    /* \"#utility.yul\":492:507   */\n  revert\n    /* \"contracts/MainContract.sol\":74:912  contract Main{\r... */\ntag_8:\n  dataSize(sub_0)\n  dup1\n  dataOffset(sub_0)\n  0x00\n  codecopy\n  0x00\n  return\nstop\n\nsub_0: assembly {\n        /* \"contracts/MainContract.sol\":74:912  contract Main{\r... */\n      mstore(0x40, 0x80)\n      callvalue\n      dup1\n      iszero\n      tag_1\n      jumpi\n      0x00\n      dup1\n      revert\n    tag_1:\n      pop\n      jumpi(tag_2, lt(calldatasize, 0x04))\n      shr(0xe0, calldataload(0x00))\n      dup1\n      0x951578af\n      gt\n      tag_11\n      jumpi\n      dup1\n      0x951578af\n      eq\n      tag_7\n      jumpi\n      dup1\n      0x9c1f8ae0\n      eq\n      tag_8\n      jumpi\n      dup1\n      0xbe1c766b\n      eq\n      tag_9\n      jumpi\n      dup1\n      0xc19d93fb\n      eq\n      tag_10\n      jumpi\n      jump(tag_2)\n    tag_11:\n      dup1\n      0x19ff1d21\n      eq\n      tag_3\n      jumpi\n      dup1\n      0x29f3901e\n      eq\n      tag_4\n      jumpi\n      dup1\n      0x2a2e1320\n      eq\n      tag_5\n      jumpi\n      dup1\n      0x741983c0\n      eq\n      tag_6\n      jumpi\n    tag_2:\n      0x00\n      dup1\n      revert\n        /* \"contracts/MainContract.sol\":90:137  string public hello=\"hello solidity developer \" */\n    tag_3:\n      tag_12\n      tag_13\n      jump\t// in\n    tag_12:\n      mload(0x40)\n      tag_14\n      swap2\n      swap1\n      tag_15\n      jump\t// in\n    tag_14:\n      mload(0x40)\n      dup1\n      swap2\n      sub\n      swap1\n      return\n        /* \"contracts/MainContract.sol\":329:408  function getMyAge(uint _newAge) public{ // _ for private\r... */\n    tag_4:\n      tag_16\n      0x04\n      dup1\n      calldatasize\n      sub\n      dup2\n      add\n      swap1\n      tag_17\n      swap2\n      swap1\n      tag_18\n      jump\t// in\n    tag_17:\n      tag_19\n      jump\t// in\n    tag_16:\n      stop\n        /* \"contracts/MainContract.sol\":847:909  function isEven(uint _n) public view returns(bool){\r... */\n    tag_5:\n      tag_20\n      0x04\n      dup1\n      calldatasize\n      sub\n      dup2\n      add\n      swap1\n      tag_21\n      swap2\n      swap1\n      tag_18\n      jump\t// in\n    tag_21:\n      tag_22\n      jump\t// in\n    tag_20:\n      mload(0x40)\n      tag_23\n      swap2\n      swap1\n      tag_24\n      jump\t// in\n    tag_23:\n      mload(0x40)\n      dup1\n      swap2\n      sub\n      swap1\n      return\n        /* \"contracts/MainContract.sol\":466:543  function checkAge() public{\r... */\n    tag_6:\n      tag_25\n      tag_26\n      jump\t// in\n    tag_25:\n      stop\n        /* \"contracts/MainContract.sol\":197:217  uint public myage=21 */\n    tag_7:\n      tag_27\n      tag_28\n      jump\t// in\n    tag_27:\n      mload(0x40)\n      tag_29\n      swap2\n      swap1\n      tag_30\n      jump\t// in\n    tag_29:\n      mload(0x40)\n      dup1\n      swap2\n      sub\n      swap1\n      return\n        /* \"contracts/MainContract.sol\":642:703  string[] public web3=[\"nft\",\"etherium\",\"blockchaine\",\"dapps\"] */\n    tag_8:\n      tag_31\n      0x04\n      dup1\n      calldatasize\n      sub\n      dup2\n      add\n      swap1\n      tag_32\n      swap2\n      swap1\n      tag_18\n      jump\t// in\n    tag_32:\n      tag_33\n      jump\t// in\n    tag_31:\n      mload(0x40)\n      tag_34\n      swap2\n      swap1\n      tag_15\n      jump\t// in\n    tag_34:\n      mload(0x40)\n      dup1\n      swap2\n      sub\n      swap1\n      return\n        /* \"contracts/MainContract.sol\":716:792  function getLength() public view returns(uint){\r... */\n    tag_9:\n      tag_35\n      tag_36\n      jump\t// in\n    tag_35:\n      mload(0x40)\n      tag_37\n      swap2\n      swap1\n      tag_30\n      jump\t// in\n    tag_37:\n      mload(0x40)\n      dup1\n      swap2\n      sub\n      swap1\n      return\n        /* \"contracts/MainContract.sol\":444:463  string public state */\n    tag_10:\n      tag_38\n      tag_39\n      jump\t// in\n    tag_38:\n      mload(0x40)\n      tag_40\n      swap2\n      swap1\n      tag_15\n      jump\t// in\n    tag_40:\n      mload(0x40)\n      dup1\n      swap2\n      sub\n      swap1\n      return\n        /* \"contracts/MainContract.sol\":90:137  string public hello=\"hello solidity developer \" */\n    tag_13:\n      0x00\n      dup1\n      sload\n      tag_41\n      swap1\n      tag_42\n      jump\t// in\n    tag_41:\n      dup1\n      0x1f\n      add\n      0x20\n      dup1\n      swap2\n      div\n      mul\n      0x20\n      add\n      mload(0x40)\n      swap1\n      dup2\n      add\n      0x40\n      mstore\n      dup1\n      swap3\n      swap2\n      swap1\n      dup2\n      dup2\n      mstore\n      0x20\n      add\n      dup3\n      dup1\n      sload\n      tag_43\n      swap1\n      tag_42\n      jump\t// in\n    tag_43:\n      dup1\n      iszero\n      tag_44\n      jumpi\n      dup1\n      0x1f\n      lt\n      tag_45\n      jumpi\n      0x0100\n      dup1\n      dup4\n      sload\n      div\n      mul\n      dup4\n      mstore\n      swap2\n      0x20\n      add\n      swap2\n      jump(tag_44)\n    tag_45:\n      dup3\n      add\n      swap2\n      swap1\n      0x00\n      mstore\n      keccak256(0x00, 0x20)\n      swap1\n    tag_46:\n      dup2\n      sload\n      dup2\n      mstore\n      swap1\n      0x01\n      add\n      swap1\n      0x20\n      add\n      dup1\n      dup4\n      gt\n      tag_46\n      jumpi\n      dup3\n      swap1\n      sub\n      0x1f\n      and\n      dup3\n      add\n      swap2\n    tag_44:\n      pop\n      pop\n      pop\n      pop\n      pop\n      dup2\n      jump\t// out\n        /* \"contracts/MainContract.sol\":329:408  function getMyAge(uint _newAge) public{ // _ for private\r... */\n    tag_19:\n        /* \"contracts/MainContract.sol\":397:404  _newAge */\n      dup1\n        /* \"contracts/MainContract.sol\":391:396  myage */\n      0x01\n        /* \"contracts/MainContract.sol\":391:404  myage=_newAge */\n      dup2\n      swap1\n      sstore\n      pop\n        /* \"contracts/MainContract.sol\":329:408  function getMyAge(uint _newAge) public{ // _ for private\r... */\n      pop\n      jump\t// out\n        /* \"contracts/MainContract.sol\":847:909  function isEven(uint _n) public view returns(bool){\r... */\n    tag_22:\n        /* \"contracts/MainContract.sol\":892:896  bool */\n      0x00\n        /* \"contracts/MainContract.sol\":847:909  function isEven(uint _n) public view returns(bool){\r... */\n      swap2\n      swap1\n      pop\n      jump\t// out\n        /* \"contracts/MainContract.sol\":466:543  function checkAge() public{\r... */\n    tag_26:\n        /* \"contracts/MainContract.sol\":509:511  18 */\n      0x12\n        /* \"contracts/MainContract.sol\":502:507  myage */\n      sload(0x01)\n        /* \"contracts/MainContract.sol\":502:511  myage>=18 */\n      lt\n        /* \"contracts/MainContract.sol\":499:539  if(myage>=18)\r... */\n      tag_50\n      jumpi\n        /* \"contracts/MainContract.sol\":518:539  state=\"You are adult\" */\n      mload(0x40)\n      dup1\n      0x40\n      add\n      0x40\n      mstore\n      dup1\n      0x0d\n      dup2\n      mstore\n      0x20\n      add\n      0x596f7520617265206164756c7400000000000000000000000000000000000000\n      dup2\n      mstore\n      pop\n        /* \"contracts/MainContract.sol\":518:523  state */\n      0x02\n        /* \"contracts/MainContract.sol\":518:539  state=\"You are adult\" */\n      swap1\n      dup1\n      mload\n      swap1\n      0x20\n      add\n      swap1\n      tag_51\n      swap3\n      swap2\n      swap1\n      tag_52\n      jump\t// in\n    tag_51:\n      pop\n        /* \"contracts/MainContract.sol\":499:539  if(myage>=18)\r... */\n    tag_50:\n        /* \"contracts/MainContract.sol\":466:543  function checkAge() public{\r... */\n      jump\t// out\n        /* \"contracts/MainContract.sol\":197:217  uint public myage=21 */\n    tag_28:\n      sload(0x01)\n      dup2\n      jump\t// out\n        /* \"contracts/MainContract.sol\":642:703  string[] public web3=[\"nft\",\"etherium\",\"blockchaine\",\"dapps\"] */\n    tag_33:\n      0x03\n      dup2\n      dup2\n      sload\n      dup2\n      lt\n      tag_53\n      jumpi\n      0x00\n      dup1\n      revert\n    tag_53:\n      swap1\n      0x00\n      mstore\n      keccak256(0x00, 0x20)\n      add\n      0x00\n      swap2\n      pop\n      swap1\n      pop\n      dup1\n      sload\n      tag_55\n      swap1\n      tag_42\n      jump\t// in\n    tag_55:\n      dup1\n      0x1f\n      add\n      0x20\n      dup1\n      swap2\n      div\n      mul\n      0x20\n      add\n      mload(0x40)\n      swap1\n      dup2\n      add\n      0x40\n      mstore\n      dup1\n      swap3\n      swap2\n      swap1\n      dup2\n      dup2\n      mstore\n      0x20\n      add\n      dup3\n      dup1\n      sload\n      tag_56\n      swap1\n      tag_42\n      jump\t// in\n    tag_56:\n      dup1\n      iszero\n      tag_57\n      jumpi\n      dup1\n      0x1f\n      lt\n      tag_58\n      jumpi\n      0x0100\n      dup1\n      dup4\n      sload\n      div\n      mul\n      dup4\n      mstore\n      swap2\n      0x20\n      add\n      swap2\n      jump(tag_57)\n    tag_58:\n      dup3\n      add\n      swap2\n      swap1\n      0x00\n      mstore\n      keccak256(0x00, 0x20)\n      swap1\n    tag_59:\n      dup2\n      sload\n      dup2\n      mstore\n      swap1\n      0x01\n      add\n      swap1\n      0x20\n      add\n      dup1\n      dup4\n      gt\n      tag_59\n      jumpi\n      dup3\n      swap1\n      sub\n      0x1f\n      and\n      dup3\n      add\n      swap2\n    tag_57:\n      pop\n      pop\n      pop\n      pop\n      pop\n      dup2\n      jump\t// out\n        /* \"contracts/MainContract.sol\":716:792  function getLength() public view returns(uint){\r... */\n    tag_36:\n        /* \"contracts/MainContract.sol\":757:761  uint */\n      0x00\n        /* \"contracts/MainContract.sol\":777:781  web3 */\n      0x03\n        /* \"contracts/MainContract.sol\":777:788  web3.length */\n      dup1\n      sload\n      swap1\n      pop\n        /* \"contracts/MainContract.sol\":769:788  return  web3.length */\n      swap1\n      pop\n        /* \"contracts/MainContract.sol\":716:792  function getLength() public view returns(uint){\r... */\n      swap1\n      jump\t// out\n        /* \"contracts/MainContract.sol\":444:463  string public state */\n    tag_39:\n      0x02\n      dup1\n      sload\n      tag_61\n      swap1\n      tag_42\n      jump\t// in\n    tag_61:\n      dup1\n      0x1f\n      add\n      0x20\n      dup1\n      swap2\n      div\n      mul\n      0x20\n      add\n      mload(0x40)\n      swap1\n      dup2\n      add\n      0x40\n      mstore\n      dup1\n      swap3\n      swap2\n      swap1\n      dup2\n      dup2\n      mstore\n      0x20\n      add\n      dup3\n      dup1\n      sload\n      tag_62\n      swap1\n      tag_42\n      jump\t// in\n    tag_62:\n      dup1\n      iszero\n      tag_63\n      jumpi\n      dup1\n      0x1f\n      lt\n      tag_64\n      jumpi\n      0x0100\n      dup1\n      dup4\n      sload\n      div\n      mul\n      dup4\n      mstore\n      swap2\n      0x20\n      add\n      swap2\n      jump(tag_63)\n    tag_64:\n      dup3\n      add\n      swap2\n      swap1\n      0x00\n      mstore\n      keccak256(0x00, 0x20)\n      swap1\n    tag_65:\n      dup2\n      sload\n      dup2\n      mstore\n      swap1\n      0x01\n      add\n      swap1\n      0x20\n      add\n      dup1\n      dup4\n      gt\n      tag_65\n      jumpi\n      dup3\n      swap1\n      sub\n      0x1f\n      and\n      dup3\n      add\n      swap2\n    tag_63:\n      pop\n      pop\n      pop\n      pop\n      pop\n      dup2\n      jump\t// out\n    tag_52:\n      dup3\n      dup1\n      sload\n      tag_66\n      swap1\n      tag_42\n      jump\t// in\n    tag_66:\n      swap1\n      0x00\n      mstore\n      keccak256(0x00, 0x20)\n      swap1\n      0x1f\n      add\n      0x20\n      swap1\n      div\n      dup2\n      add\n      swap3\n      dup3\n      tag_68\n      jumpi\n      0x00\n      dup6\n      sstore\n      jump(tag_67)\n    tag_68:\n      dup3\n      0x1f\n      lt\n      tag_69\n      jumpi\n      dup1\n      mload\n      not(0xff)\n      and\n      dup4\n      dup1\n      add\n      or\n      dup6\n      sstore\n      jump(tag_67)\n    tag_69:\n      dup3\n      dup1\n      add\n      0x01\n      add\n      dup6\n      sstore\n      dup3\n      iszero\n      tag_67\n      jumpi\n      swap2\n      dup3\n      add\n    tag_70:\n      dup3\n      dup2\n      gt\n      iszero\n      tag_71\n      jumpi\n      dup3\n      mload\n      dup3\n      sstore\n      swap2\n      0x20\n      add\n      swap2\n      swap1\n      0x01\n      add\n      swap1\n      jump(tag_70)\n    tag_71:\n    tag_67:\n      pop\n      swap1\n      pop\n      tag_72\n      swap2\n      swap1\n      tag_73\n      jump\t// in\n    tag_72:\n      pop\n      swap1\n      jump\t// out\n    tag_73:\n    tag_74:\n      dup1\n      dup3\n      gt\n      iszero\n      tag_75\n      jumpi\n      0x00\n      dup2\n      0x00\n      swap1\n      sstore\n      pop\n      0x01\n      add\n      jump(tag_74)\n    tag_75:\n      pop\n      swap1\n      jump\t// out\n        /* \"#utility.yul\":7:146   */\n    tag_77:\n        /* \"#utility.yul\":53:58   */\n      0x00\n        /* \"#utility.yul\":91:97   */\n      dup2\n        /* \"#utility.yul\":78:98   */\n      calldataload\n        /* \"#utility.yul\":69:98   */\n      swap1\n      pop\n        /* \"#utility.yul\":107:140   */\n      tag_79\n        /* \"#utility.yul\":134:139   */\n      dup2\n        /* \"#utility.yul\":107:140   */\n      tag_80\n      jump\t// in\n    tag_79:\n        /* \"#utility.yul\":7:146   */\n      swap3\n      swap2\n      pop\n      pop\n      jump\t// out\n        /* \"#utility.yul\":152:481   */\n    tag_18:\n        /* \"#utility.yul\":211:217   */\n      0x00\n        /* \"#utility.yul\":260:262   */\n      0x20\n        /* \"#utility.yul\":248:257   */\n      dup3\n        /* \"#utility.yul\":239:246   */\n      dup5\n        /* \"#utility.yul\":235:258   */\n      sub\n        /* \"#utility.yul\":231:263   */\n      slt\n        /* \"#utility.yul\":228:347   */\n      iszero\n      tag_82\n      jumpi\n        /* \"#utility.yul\":266:345   */\n      tag_83\n      tag_84\n      jump\t// in\n    tag_83:\n        /* \"#utility.yul\":228:347   */\n    tag_82:\n        /* \"#utility.yul\":386:387   */\n      0x00\n        /* \"#utility.yul\":411:464   */\n      tag_85\n        /* \"#utility.yul\":456:463   */\n      dup5\n        /* \"#utility.yul\":447:453   */\n      dup3\n        /* \"#utility.yul\":436:445   */\n      dup6\n        /* \"#utility.yul\":432:454   */\n      add\n        /* \"#utility.yul\":411:464   */\n      tag_77\n      jump\t// in\n    tag_85:\n        /* \"#utility.yul\":401:464   */\n      swap2\n      pop\n        /* \"#utility.yul\":357:474   */\n      pop\n        /* \"#utility.yul\":152:481   */\n      swap3\n      swap2\n      pop\n      pop\n      jump\t// out\n        /* \"#utility.yul\":487:596   */\n    tag_86:\n        /* \"#utility.yul\":568:589   */\n      tag_88\n        /* \"#utility.yul\":583:588   */\n      dup2\n        /* \"#utility.yul\":568:589   */\n      tag_89\n      jump\t// in\n    tag_88:\n        /* \"#utility.yul\":563:566   */\n      dup3\n        /* \"#utility.yul\":556:590   */\n      mstore\n        /* \"#utility.yul\":487:596   */\n      pop\n      pop\n      jump\t// out\n        /* \"#utility.yul\":602:966   */\n    tag_90:\n        /* \"#utility.yul\":690:693   */\n      0x00\n        /* \"#utility.yul\":718:757   */\n      tag_92\n        /* \"#utility.yul\":751:756   */\n      dup3\n        /* \"#utility.yul\":718:757   */\n      tag_93\n      jump\t// in\n    tag_92:\n        /* \"#utility.yul\":773:844   */\n      tag_94\n        /* \"#utility.yul\":837:843   */\n      dup2\n        /* \"#utility.yul\":832:835   */\n      dup6\n        /* \"#utility.yul\":773:844   */\n      tag_95\n      jump\t// in\n    tag_94:\n        /* \"#utility.yul\":766:844   */\n      swap4\n      pop\n        /* \"#utility.yul\":853:905   */\n      tag_96\n        /* \"#utility.yul\":898:904   */\n      dup2\n        /* \"#utility.yul\":893:896   */\n      dup6\n        /* \"#utility.yul\":886:890   */\n      0x20\n        /* \"#utility.yul\":879:884   */\n      dup7\n        /* \"#utility.yul\":875:891   */\n      add\n        /* \"#utility.yul\":853:905   */\n      tag_97\n      jump\t// in\n    tag_96:\n        /* \"#utility.yul\":930:959   */\n      tag_98\n        /* \"#utility.yul\":952:958   */\n      dup2\n        /* \"#utility.yul\":930:959   */\n      tag_99\n      jump\t// in\n    tag_98:\n        /* \"#utility.yul\":925:928   */\n      dup5\n        /* \"#utility.yul\":921:960   */\n      add\n        /* \"#utility.yul\":914:960   */\n      swap2\n      pop\n        /* \"#utility.yul\":694:966   */\n      pop\n        /* \"#utility.yul\":602:966   */\n      swap3\n      swap2\n      pop\n      pop\n      jump\t// out\n        /* \"#utility.yul\":972:1090   */\n    tag_100:\n        /* \"#utility.yul\":1059:1083   */\n      tag_102\n        /* \"#utility.yul\":1077:1082   */\n      dup2\n        /* \"#utility.yul\":1059:1083   */\n      tag_103\n      jump\t// in\n    tag_102:\n        /* \"#utility.yul\":1054:1057   */\n      dup3\n        /* \"#utility.yul\":1047:1084   */\n      mstore\n        /* \"#utility.yul\":972:1090   */\n      pop\n      pop\n      jump\t// out\n        /* \"#utility.yul\":1096:1306   */\n    tag_24:\n        /* \"#utility.yul\":1183:1187   */\n      0x00\n        /* \"#utility.yul\":1221:1223   */\n      0x20\n        /* \"#utility.yul\":1210:1219   */\n      dup3\n        /* \"#utility.yul\":1206:1224   */\n      add\n        /* \"#utility.yul\":1198:1224   */\n      swap1\n      pop\n        /* \"#utility.yul\":1234:1299   */\n      tag_105\n        /* \"#utility.yul\":1296:1297   */\n      0x00\n        /* \"#utility.yul\":1285:1294   */\n      dup4\n        /* \"#utility.yul\":1281:1298   */\n      add\n        /* \"#utility.yul\":1272:1278   */\n      dup5\n        /* \"#utility.yul\":1234:1299   */\n      tag_86\n      jump\t// in\n    tag_105:\n        /* \"#utility.yul\":1096:1306   */\n      swap3\n      swap2\n      pop\n      pop\n      jump\t// out\n        /* \"#utility.yul\":1312:1625   */\n    tag_15:\n        /* \"#utility.yul\":1425:1429   */\n      0x00\n        /* \"#utility.yul\":1463:1465   */\n      0x20\n        /* \"#utility.yul\":1452:1461   */\n      dup3\n        /* \"#utility.yul\":1448:1466   */\n      add\n        /* \"#utility.yul\":1440:1466   */\n      swap1\n      pop\n        /* \"#utility.yul\":1512:1521   */\n      dup2\n        /* \"#utility.yul\":1506:1510   */\n      dup2\n        /* \"#utility.yul\":1502:1522   */\n      sub\n        /* \"#utility.yul\":1498:1499   */\n      0x00\n        /* \"#utility.yul\":1487:1496   */\n      dup4\n        /* \"#utility.yul\":1483:1500   */\n      add\n        /* \"#utility.yul\":1476:1523   */\n      mstore\n        /* \"#utility.yul\":1540:1618   */\n      tag_107\n        /* \"#utility.yul\":1613:1617   */\n      dup2\n        /* \"#utility.yul\":1604:1610   */\n      dup5\n        /* \"#utility.yul\":1540:1618   */\n      tag_90\n      jump\t// in\n    tag_107:\n        /* \"#utility.yul\":1532:1618   */\n      swap1\n      pop\n        /* \"#utility.yul\":1312:1625   */\n      swap3\n      swap2\n      pop\n      pop\n      jump\t// out\n        /* \"#utility.yul\":1631:1853   */\n    tag_30:\n        /* \"#utility.yul\":1724:1728   */\n      0x00\n        /* \"#utility.yul\":1762:1764   */\n      0x20\n        /* \"#utility.yul\":1751:1760   */\n      dup3\n        /* \"#utility.yul\":1747:1765   */\n      add\n        /* \"#utility.yul\":1739:1765   */\n      swap1\n      pop\n        /* \"#utility.yul\":1775:1846   */\n      tag_109\n        /* \"#utility.yul\":1843:1844   */\n      0x00\n        /* \"#utility.yul\":1832:1841   */\n      dup4\n        /* \"#utility.yul\":1828:1845   */\n      add\n        /* \"#utility.yul\":1819:1825   */\n      dup5\n        /* \"#utility.yul\":1775:1846   */\n      tag_100\n      jump\t// in\n    tag_109:\n        /* \"#utility.yul\":1631:1853   */\n      swap3\n      swap2\n      pop\n      pop\n      jump\t// out\n        /* \"#utility.yul\":1940:2039   */\n    tag_93:\n        /* \"#utility.yul\":1992:1998   */\n      0x00\n        /* \"#utility.yul\":2026:2031   */\n      dup2\n        /* \"#utility.yul\":2020:2032   */\n      mload\n        /* \"#utility.yul\":2010:2032   */\n      swap1\n      pop\n        /* \"#utility.yul\":1940:2039   */\n      swap2\n      swap1\n      pop\n      jump\t// out\n        /* \"#utility.yul\":2045:2214   */\n    tag_95:\n        /* \"#utility.yul\":2129:2140   */\n      0x00\n        /* \"#utility.yul\":2163:2169   */\n      dup3\n        /* \"#utility.yul\":2158:2161   */\n      dup3\n        /* \"#utility.yul\":2151:2170   */\n      mstore\n        /* \"#utility.yul\":2203:2207   */\n      0x20\n        /* \"#utility.yul\":2198:2201   */\n      dup3\n        /* \"#utility.yul\":2194:2208   */\n      add\n        /* \"#utility.yul\":2179:2208   */\n      swap1\n      pop\n        /* \"#utility.yul\":2045:2214   */\n      swap3\n      swap2\n      pop\n      pop\n      jump\t// out\n        /* \"#utility.yul\":2220:2310   */\n    tag_89:\n        /* \"#utility.yul\":2254:2261   */\n      0x00\n        /* \"#utility.yul\":2297:2302   */\n      dup2\n        /* \"#utility.yul\":2290:2303   */\n      iszero\n        /* \"#utility.yul\":2283:2304   */\n      iszero\n        /* \"#utility.yul\":2272:2304   */\n      swap1\n      pop\n        /* \"#utility.yul\":2220:2310   */\n      swap2\n      swap1\n      pop\n      jump\t// out\n        /* \"#utility.yul\":2316:2393   */\n    tag_103:\n        /* \"#utility.yul\":2353:2360   */\n      0x00\n        /* \"#utility.yul\":2382:2387   */\n      dup2\n        /* \"#utility.yul\":2371:2387   */\n      swap1\n      pop\n        /* \"#utility.yul\":2316:2393   */\n      swap2\n      swap1\n      pop\n      jump\t// out\n        /* \"#utility.yul\":2399:2706   */\n    tag_97:\n        /* \"#utility.yul\":2467:2468   */\n      0x00\n        /* \"#utility.yul\":2477:2590   */\n    tag_117:\n        /* \"#utility.yul\":2491:2497   */\n      dup4\n        /* \"#utility.yul\":2488:2489   */\n      dup2\n        /* \"#utility.yul\":2485:2498   */\n      lt\n        /* \"#utility.yul\":2477:2590   */\n      iszero\n      tag_119\n      jumpi\n        /* \"#utility.yul\":2576:2577   */\n      dup1\n        /* \"#utility.yul\":2571:2574   */\n      dup3\n        /* \"#utility.yul\":2567:2578   */\n      add\n        /* \"#utility.yul\":2561:2579   */\n      mload\n        /* \"#utility.yul\":2557:2558   */\n      dup2\n        /* \"#utility.yul\":2552:2555   */\n      dup5\n        /* \"#utility.yul\":2548:2559   */\n      add\n        /* \"#utility.yul\":2541:2580   */\n      mstore\n        /* \"#utility.yul\":2513:2515   */\n      0x20\n        /* \"#utility.yul\":2510:2511   */\n      dup2\n        /* \"#utility.yul\":2506:2516   */\n      add\n        /* \"#utility.yul\":2501:2516   */\n      swap1\n      pop\n        /* \"#utility.yul\":2477:2590   */\n      jump(tag_117)\n    tag_119:\n        /* \"#utility.yul\":2608:2614   */\n      dup4\n        /* \"#utility.yul\":2605:2606   */\n      dup2\n        /* \"#utility.yul\":2602:2615   */\n      gt\n        /* \"#utility.yul\":2599:2700   */\n      iszero\n      tag_120\n      jumpi\n        /* \"#utility.yul\":2688:2689   */\n      0x00\n        /* \"#utility.yul\":2679:2685   */\n      dup5\n        /* \"#utility.yul\":2674:2677   */\n      dup5\n        /* \"#utility.yul\":2670:2686   */\n      add\n        /* \"#utility.yul\":2663:2690   */\n      mstore\n        /* \"#utility.yul\":2599:2700   */\n    tag_120:\n        /* \"#utility.yul\":2448:2706   */\n      pop\n        /* \"#utility.yul\":2399:2706   */\n      pop\n      pop\n      pop\n      jump\t// out\n        /* \"#utility.yul\":2712:3032   */\n    tag_42:\n        /* \"#utility.yul\":2756:2762   */\n      0x00\n        /* \"#utility.yul\":2793:2794   */\n      0x02\n        /* \"#utility.yul\":2787:2791   */\n      dup3\n        /* \"#utility.yul\":2783:2795   */\n      div\n        /* \"#utility.yul\":2773:2795   */\n      swap1\n      pop\n        /* \"#utility.yul\":2840:2841   */\n      0x01\n        /* \"#utility.yul\":2834:2838   */\n      dup3\n        /* \"#utility.yul\":2830:2842   */\n      and\n        /* \"#utility.yul\":2861:2879   */\n      dup1\n        /* \"#utility.yul\":2851:2932   */\n      tag_122\n      jumpi\n        /* \"#utility.yul\":2917:2921   */\n      0x7f\n        /* \"#utility.yul\":2909:2915   */\n      dup3\n        /* \"#utility.yul\":2905:2922   */\n      and\n        /* \"#utility.yul\":2895:2922   */\n      swap2\n      pop\n        /* \"#utility.yul\":2851:2932   */\n    tag_122:\n        /* \"#utility.yul\":2979:2981   */\n      0x20\n        /* \"#utility.yul\":2971:2977   */\n      dup3\n        /* \"#utility.yul\":2968:2982   */\n      lt\n        /* \"#utility.yul\":2948:2966   */\n      dup2\n        /* \"#utility.yul\":2945:2983   */\n      eq\n        /* \"#utility.yul\":2942:3026   */\n      iszero\n      tag_123\n      jumpi\n        /* \"#utility.yul\":2998:3016   */\n      tag_124\n      tag_125\n      jump\t// in\n    tag_124:\n        /* \"#utility.yul\":2942:3026   */\n    tag_123:\n        /* \"#utility.yul\":2763:3032   */\n      pop\n        /* \"#utility.yul\":2712:3032   */\n      swap2\n      swap1\n      pop\n      jump\t// out\n        /* \"#utility.yul\":3038:3218   */\n    tag_125:\n        /* \"#utility.yul\":3086:3163   */\n      0x4e487b7100000000000000000000000000000000000000000000000000000000\n        /* \"#utility.yul\":3083:3084   */\n      0x00\n        /* \"#utility.yul\":3076:3164   */\n      mstore\n        /* \"#utility.yul\":3183:3187   */\n      0x22\n        /* \"#utility.yul\":3180:3181   */\n      0x04\n        /* \"#utility.yul\":3173:3188   */\n      mstore\n        /* \"#utility.yul\":3207:3211   */\n      0x24\n        /* \"#utility.yul\":3204:3205   */\n      0x00\n        /* \"#utility.yul\":3197:3212   */\n      revert\n        /* \"#utility.yul\":3347:3464   */\n    tag_84:\n        /* \"#utility.yul\":3456:3457   */\n      0x00\n        /* \"#utility.yul\":3453:3454   */\n      dup1\n        /* \"#utility.yul\":3446:3458   */\n      revert\n        /* \"#utility.yul\":3470:3572   */\n    tag_99:\n        /* \"#utility.yul\":3511:3517   */\n      0x00\n        /* \"#utility.yul\":3562:3564   */\n      0x1f\n        /* \"#utility.yul\":3558:3565   */\n      not\n        /* \"#utility.yul\":3553:3555   */\n      0x1f\n        /* \"#utility.yul\":3546:3551   */\n      dup4\n        /* \"#utility.yul\":3542:3556   */\n      add\n        /* \"#utility.yul\":3538:3566   */\n      and\n        /* \"#utility.yul\":3528:3566   */\n      swap1\n      pop\n        /* \"#utility.yul\":3470:3572   */\n      swap2\n      swap1\n      pop\n      jump\t// out\n        /* \"#utility.yul\":3578:3700   */\n    tag_80:\n        /* \"#utility.yul\":3651:3675   */\n      tag_132\n        /* \"#utility.yul\":3669:3674   */\n      dup2\n        /* \"#utility.yul\":3651:3675   */\n      tag_103\n      jump\t// in\n    tag_132:\n        /* \"#utility.yul\":3644:3649   */\n      dup2\n        /* \"#utility.yul\":3641:3676   */\n      eq\n        /* \"#utility.yul\":3631:3694   */\n      tag_133\n      jumpi\n        /* \"#utility.yul\":3690:3691   */\n      0x00\n        /* \"#utility.yul\":3687:3688   */\n      dup1\n        /* \"#utility.yul\":3680:3692   */\n      revert\n        /* \"#utility.yul\":3631:3694   */\n    tag_133:\n        /* \"#utility.yul\":3578:3700   */\n      pop\n      jump\t// out\n\n    auxdata: 0xa26469706673582212209a39bd76d84403dd8da7ca45d6d02997c007bf5fdbe2d23528ab6d957c6a00de64736f6c63430008070033\n}\n",
				"bytecode": {
					"linkReferences": {},
					"object": "60806040526040518060400160405280601981526020017f68656c6c6f20736f6c696469747920646576656c6f70657220000000000000008152506000908051906020019062000051929190620001ea565b50601560015560405180608001604052806040518060400160405280600381526020017f6e6674000000000000000000000000000000000000000000000000000000000081525081526020016040518060400160405280600881526020017f657468657269756d00000000000000000000000000000000000000000000000081525081526020016040518060400160405280600b81526020017f626c6f636b636861696e6500000000000000000000000000000000000000000081525081526020016040518060400160405280600581526020017f646170707300000000000000000000000000000000000000000000000000000081525081525060039060046200015e9291906200027b565b50604051806101200160405280600160ff168152602001600260ff168152602001600360ff168152602001600460ff168152602001600560ff168152602001600660ff168152602001600760ff168152602001600860ff168152602001600960ff168152506004906009620001d5929190620002e2565b50348015620001e357600080fd5b506200042b565b828054620001f890620003c6565b90600052602060002090601f0160209004810192826200021c576000855562000268565b82601f106200023757805160ff191683800117855562000268565b8280016001018555821562000268579182015b82811115620002675782518255916020019190600101906200024a565b5b50905062000277919062000339565b5090565b828054828255906000526020600020908101928215620002cf579160200282015b82811115620002ce578251829080519060200190620002bd929190620001ea565b50916020019190600101906200029c565b5b509050620002de919062000358565b5090565b82805482825590600052602060002090810192821562000326579160200282015b8281111562000325578251829060ff1690559160200191906001019062000303565b5b50905062000335919062000339565b5090565b5b80821115620003545760008160009055506001016200033a565b5090565b5b808211156200037c576000818162000372919062000380565b5060010162000359565b5090565b5080546200038e90620003c6565b6000825580601f10620003a25750620003c3565b601f016020900490600052602060002090810190620003c2919062000339565b5b50565b60006002820490506001821680620003df57607f821691505b60208210811415620003f657620003f5620003fc565b5b50919050565b7f4e487b7100000000000000000000000000000000000000000000000000000000600052602260045260246000fd5b61068d806200043b6000396000f3fe608060405234801561001057600080fd5b50600436106100885760003560e01c8063951578af1161005b578063951578af146101015780639c1f8ae01461011f578063be1c766b1461014f578063c19d93fb1461016d57610088565b806319ff1d211461008d57806329f3901e146100ab5780632a2e1320146100c7578063741983c0146100f7575b600080fd5b61009561018b565b6040516100a29190610527565b60405180910390f35b6100c560048036038101906100c09190610488565b610219565b005b6100e160048036038101906100dc9190610488565b610223565b6040516100ee919061050c565b60405180910390f35b6100ff61022a565b005b610109610283565b6040516101169190610549565b60405180910390f35b61013960048036038101906101349190610488565b610289565b6040516101469190610527565b60405180910390f35b610157610335565b6040516101649190610549565b60405180910390f35b610175610342565b6040516101829190610527565b60405180910390f35b60008054610198906105c9565b80601f01602080910402602001604051908101604052809291908181526020018280546101c4906105c9565b80156102115780601f106101e657610100808354040283529160200191610211565b820191906000526020600020905b8154815290600101906020018083116101f457829003601f168201915b505050505081565b8060018190555050565b6000919050565b601260015410610281576040518060400160405280600d81526020017f596f7520617265206164756c74000000000000000000000000000000000000008152506002908051906020019061027f9291906103d0565b505b565b60015481565b6003818154811061029957600080fd5b9060005260206000200160009150905080546102b4906105c9565b80601f01602080910402602001604051908101604052809291908181526020018280546102e0906105c9565b801561032d5780601f106103025761010080835404028352916020019161032d565b820191906000526020600020905b81548152906001019060200180831161031057829003601f168201915b505050505081565b6000600380549050905090565b6002805461034f906105c9565b80601f016020809104026020016040519081016040528092919081815260200182805461037b906105c9565b80156103c85780601f1061039d576101008083540402835291602001916103c8565b820191906000526020600020905b8154815290600101906020018083116103ab57829003601f168201915b505050505081565b8280546103dc906105c9565b90600052602060002090601f0160209004810192826103fe5760008555610445565b82601f1061041757805160ff1916838001178555610445565b82800160010185558215610445579182015b82811115610444578251825591602001919060010190610429565b5b5090506104529190610456565b5090565b5b8082111561046f576000816000905550600101610457565b5090565b60008135905061048281610640565b92915050565b60006020828403121561049e5761049d61062a565b5b60006104ac84828501610473565b91505092915050565b6104be81610580565b82525050565b60006104cf82610564565b6104d9818561056f565b93506104e9818560208601610596565b6104f28161062f565b840191505092915050565b6105068161058c565b82525050565b600060208201905061052160008301846104b5565b92915050565b6000602082019050818103600083015261054181846104c4565b905092915050565b600060208201905061055e60008301846104fd565b92915050565b600081519050919050565b600082825260208201905092915050565b60008115159050919050565b6000819050919050565b60005b838110156105b4578082015181840152602081019050610599565b838111156105c3576000848401525b50505050565b600060028204905060018216806105e157607f821691505b602082108114156105f5576105f46105fb565b5b50919050565b7f4e487b7100000000000000000000000000000000000000000000000000000000600052602260045260246000fd5b600080fd5b6000601f19601f8301169050919050565b6106498161058c565b811461065457600080fd5b5056fea26469706673582212209a39bd76d84403dd8da7ca45d6d02997c007bf5fdbe2d23528ab6d957c6a00de64736f6c63430008070033",
					"opcodes": "PUSH1 0x80 PUSH1 0x40 MSTORE PUSH1 0x40 MLOAD DUP1 PUSH1 0x40 ADD PUSH1 0x40 MSTORE DUP1 PUSH1 0x19 DUP2 MSTORE PUSH1 0x20 ADD PUSH32 0x68656C6C6F20736F6C696469747920646576656C6F7065722000000000000000 DUP2 MSTORE POP PUSH1 0x0 SWAP1 DUP1 MLOAD SWAP1 PUSH1 0x20 ADD SWAP1 PUSH3 0x51 SWAP3 SWAP2 SWAP1 PUSH3 0x1EA JUMP JUMPDEST POP PUSH1 0x15 PUSH1 0x1 SSTORE PUSH1 0x40 MLOAD DUP1 PUSH1 0x80 ADD PUSH1 0x40 MSTORE DUP1 PUSH1 0x40 MLOAD DUP1 PUSH1 0x40 ADD PUSH1 0x40 MSTORE DUP1 PUSH1 0x3 DUP2 MSTORE PUSH1 0x20 ADD PUSH32 0x6E66740000000000000000000000000000000000000000000000000000000000 DUP2 MSTORE POP DUP2 MSTORE PUSH1 0x20 ADD PUSH1 0x40 MLOAD DUP1 PUSH1 0x40 ADD PUSH1 0x40 MSTORE DUP1 PUSH1 0x8 DUP2 MSTORE PUSH1 0x20 ADD PUSH32 0x657468657269756D000000000000000000000000000000000000000000000000 DUP2 MSTORE POP DUP2 MSTORE PUSH1 0x20 ADD PUSH1 0x40 MLOAD DUP1 PUSH1 0x40 ADD PUSH1 0x40 MSTORE DUP1 PUSH1 0xB DUP2 MSTORE PUSH1 0x20 ADD PUSH32 0x626C6F636B636861696E65000000000000000000000000000000000000000000 DUP2 MSTORE POP DUP2 MSTORE PUSH1 0x20 ADD PUSH1 0x40 MLOAD DUP1 PUSH1 0x40 ADD PUSH1 0x40 MSTORE DUP1 PUSH1 0x5 DUP2 MSTORE PUSH1 0x20 ADD PUSH32 0x6461707073000000000000000000000000000000000000000000000000000000 DUP2 MSTORE POP DUP2 MSTORE POP PUSH1 0x3 SWAP1 PUSH1 0x4 PUSH3 0x15E SWAP3 SWAP2 SWAP1 PUSH3 0x27B JUMP JUMPDEST POP PUSH1 0x40 MLOAD DUP1 PUSH2 0x120 ADD PUSH1 0x40 MSTORE DUP1 PUSH1 0x1 PUSH1 0xFF AND DUP2 MSTORE PUSH1 0x20 ADD PUSH1 0x2 PUSH1 0xFF AND DUP2 MSTORE PUSH1 0x20 ADD PUSH1 0x3 PUSH1 0xFF AND DUP2 MSTORE PUSH1 0x20 ADD PUSH1 0x4 PUSH1 0xFF AND DUP2 MSTORE PUSH1 0x20 ADD PUSH1 0x5 PUSH1 0xFF AND DUP2 MSTORE PUSH1 0x20 ADD PUSH1 0x6 PUSH1 0xFF AND DUP2 MSTORE PUSH1 0x20 ADD PUSH1 0x7 PUSH1 0xFF AND DUP2 MSTORE PUSH1 0x20 ADD PUSH1 0x8 PUSH1 0xFF AND DUP2 MSTORE PUSH1 0x20 ADD PUSH1 0x9 PUSH1 0xFF AND DUP2 MSTORE POP PUSH1 0x4 SWAP1 PUSH1 0x9 PUSH3 0x1D5 SWAP3 SWAP2 SWAP1 PUSH3 0x2E2 JUMP JUMPDEST POP CALLVALUE DUP1 ISZERO PUSH3 0x1E3 JUMPI PUSH1 0x0 DUP1 REVERT JUMPDEST POP PUSH3 0x42B JUMP JUMPDEST DUP3 DUP1 SLOAD PUSH3 0x1F8 SWAP1 PUSH3 0x3C6 JUMP JUMPDEST SWAP1 PUSH1 0x0 MSTORE PUSH1 0x20 PUSH1 0x0 KECCAK256 SWAP1 PUSH1 0x1F ADD PUSH1 0x20 SWAP1 DIV DUP2 ADD SWAP3 DUP3 PUSH3 0x21C JUMPI PUSH1 0x0 DUP6 SSTORE PUSH3 0x268 JUMP JUMPDEST DUP3 PUSH1 0x1F LT PUSH3 0x237 JUMPI DUP1 MLOAD PUSH1 0xFF NOT AND DUP4 DUP1 ADD OR DUP6 SSTORE PUSH3 0x268 JUMP JUMPDEST DUP3 DUP1 ADD PUSH1 0x1 ADD DUP6 SSTORE DUP3 ISZERO PUSH3 0x268 JUMPI SWAP2 DUP3 ADD JUMPDEST DUP3 DUP2 GT ISZERO PUSH3 0x267 JUMPI DUP3 MLOAD DUP3 SSTORE SWAP2 PUSH1 0x20 ADD SWAP2 SWAP1 PUSH1 0x1 ADD SWAP1 PUSH3 0x24A JUMP JUMPDEST JUMPDEST POP SWAP1 POP PUSH3 0x277 SWAP2 SWAP1 PUSH3 0x339 JUMP JUMPDEST POP SWAP1 JUMP JUMPDEST DUP3 DUP1 SLOAD DUP3 DUP3 SSTORE SWAP1 PUSH1 0x0 MSTORE PUSH1 0x20 PUSH1 0x0 KECCAK256 SWAP1 DUP2 ADD SWAP3 DUP3 ISZERO PUSH3 0x2CF JUMPI SWAP2 PUSH1 0x20 MUL DUP3 ADD JUMPDEST DUP3 DUP2 GT ISZERO PUSH3 0x2CE JUMPI DUP3 MLOAD DUP3 SWAP1 DUP1 MLOAD SWAP1 PUSH1 0x20 ADD SWAP1 PUSH3 0x2BD SWAP3 SWAP2 SWAP1 PUSH3 0x1EA JUMP JUMPDEST POP SWAP2 PUSH1 0x20 ADD SWAP2 SWAP1 PUSH1 0x1 ADD SWAP1 PUSH3 0x29C JUMP JUMPDEST JUMPDEST POP SWAP1 POP PUSH3 0x2DE SWAP2 SWAP1 PUSH3 0x358 JUMP JUMPDEST POP SWAP1 JUMP JUMPDEST DUP3 DUP1 SLOAD DUP3 DUP3 SSTORE SWAP1 PUSH1 0x0 MSTORE PUSH1 0x20 PUSH1 0x0 KECCAK256 SWAP1 DUP2 ADD SWAP3 DUP3 ISZERO PUSH3 0x326 JUMPI SWAP2 PUSH1 0x20 MUL DUP3 ADD JUMPDEST DUP3 DUP2 GT ISZERO PUSH3 0x325 JUMPI DUP3 MLOAD DUP3 SWAP1 PUSH1 0xFF AND SWAP1 SSTORE SWAP2 PUSH1 0x20 ADD SWAP2 SWAP1 PUSH1 0x1 ADD SWAP1 PUSH3 0x303 JUMP JUMPDEST JUMPDEST POP SWAP1 POP PUSH3 0x335 SWAP2 SWAP1 PUSH3 0x339 JUMP JUMPDEST POP SWAP1 JUMP JUMPDEST JUMPDEST DUP1 DUP3 GT ISZERO PUSH3 0x354 JUMPI PUSH1 0x0 DUP2 PUSH1 0x0 SWAP1 SSTORE POP PUSH1 0x1 ADD PUSH3 0x33A JUMP JUMPDEST POP SWAP1 JUMP JUMPDEST JUMPDEST DUP1 DUP3 GT ISZERO PUSH3 0x37C JUMPI PUSH1 0x0 DUP2 DUP2 PUSH3 0x372 SWAP2 SWAP1 PUSH3 0x380 JUMP JUMPDEST POP PUSH1 0x1 ADD PUSH3 0x359 JUMP JUMPDEST POP SWAP1 JUMP JUMPDEST POP DUP1 SLOAD PUSH3 0x38E SWAP1 PUSH3 0x3C6 JUMP JUMPDEST PUSH1 0x0 DUP3 SSTORE DUP1 PUSH1 0x1F LT PUSH3 0x3A2 JUMPI POP PUSH3 0x3C3 JUMP JUMPDEST PUSH1 0x1F ADD PUSH1 0x20 SWAP1 DIV SWAP1 PUSH1 0x0 MSTORE PUSH1 0x20 PUSH1 0x0 KECCAK256 SWAP1 DUP2 ADD SWAP1 PUSH3 0x3C2 SWAP2 SWAP1 PUSH3 0x339 JUMP JUMPDEST JUMPDEST POP JUMP JUMPDEST PUSH1 0x0 PUSH1 0x2 DUP3 DIV SWAP1 POP PUSH1 0x1 DUP3 AND DUP1 PUSH3 0x3DF JUMPI PUSH1 0x7F DUP3 AND SWAP2 POP JUMPDEST PUSH1 0x20 DUP3 LT DUP2 EQ ISZERO PUSH3 0x3F6 JUMPI PUSH3 0x3F5 PUSH3 0x3FC JUMP JUMPDEST JUMPDEST POP SWAP2 SWAP1 POP JUMP JUMPDEST PUSH32 0x4E487B7100000000000000000000000000000000000000000000000000000000 PUSH1 0x0 MSTORE PUSH1 0x22 PUSH1 0x4 MSTORE PUSH1 0x24 PUSH1 0x0 REVERT JUMPDEST PUSH2 0x68D DUP1 PUSH3 0x43B PUSH1 0x0 CODECOPY PUSH1 0x0 RETURN INVALID PUSH1 0x80 PUSH1 0x40 MSTORE CALLVALUE DUP1 ISZERO PUSH2 0x10 JUMPI PUSH1 0x0 DUP1 REVERT JUMPDEST POP PUSH1 0x4 CALLDATASIZE LT PUSH2 0x88 JUMPI PUSH1 0x0 CALLDATALOAD PUSH1 0xE0 SHR DUP1 PUSH4 0x951578AF GT PUSH2 0x5B JUMPI DUP1 PUSH4 0x951578AF EQ PUSH2 0x101 JUMPI DUP1 PUSH4 0x9C1F8AE0 EQ PUSH2 0x11F JUMPI DUP1 PUSH4 0xBE1C766B EQ PUSH2 0x14F JUMPI DUP1 PUSH4 0xC19D93FB EQ PUSH2 0x16D JUMPI PUSH2 0x88 JUMP JUMPDEST DUP1 PUSH4 0x19FF1D21 EQ PUSH2 0x8D JUMPI DUP1 PUSH4 0x29F3901E EQ PUSH2 0xAB JUMPI DUP1 PUSH4 0x2A2E1320 EQ PUSH2 0xC7 JUMPI DUP1 PUSH4 0x741983C0 EQ PUSH2 0xF7 JUMPI JUMPDEST PUSH1 0x0 DUP1 REVERT JUMPDEST PUSH2 0x95 PUSH2 0x18B JUMP JUMPDEST PUSH1 0x40 MLOAD PUSH2 0xA2 SWAP2 SWAP1 PUSH2 0x527 JUMP JUMPDEST PUSH1 0x40 MLOAD DUP1 SWAP2 SUB SWAP1 RETURN JUMPDEST PUSH2 0xC5 PUSH1 0x4 DUP1 CALLDATASIZE SUB DUP2 ADD SWAP1 PUSH2 0xC0 SWAP2 SWAP1 PUSH2 0x488 JUMP JUMPDEST PUSH2 0x219 JUMP JUMPDEST STOP JUMPDEST PUSH2 0xE1 PUSH1 0x4 DUP1 CALLDATASIZE SUB DUP2 ADD SWAP1 PUSH2 0xDC SWAP2 SWAP1 PUSH2 0x488 JUMP JUMPDEST PUSH2 0x223 JUMP JUMPDEST PUSH1 0x40 MLOAD PUSH2 0xEE SWAP2 SWAP1 PUSH2 0x50C JUMP JUMPDEST PUSH1 0x40 MLOAD DUP1 SWAP2 SUB SWAP1 RETURN JUMPDEST PUSH2 0xFF PUSH2 0x22A JUMP JUMPDEST STOP JUMPDEST PUSH2 0x109 PUSH2 0x283 JUMP JUMPDEST PUSH1 0x40 MLOAD PUSH2 0x116 SWAP2 SWAP1 PUSH2 0x549 JUMP JUMPDEST PUSH1 0x40 MLOAD DUP1 SWAP2 SUB SWAP1 RETURN JUMPDEST PUSH2 0x139 PUSH1 0x4 DUP1 CALLDATASIZE SUB DUP2 ADD SWAP1 PUSH2 0x134 SWAP2 SWAP1 PUSH2 0x488 JUMP JUMPDEST PUSH2 0x289 JUMP JUMPDEST PUSH1 0x40 MLOAD PUSH2 0x146 SWAP2 SWAP1 PUSH2 0x527 JUMP JUMPDEST PUSH1 0x40 MLOAD DUP1 SWAP2 SUB SWAP1 RETURN JUMPDEST PUSH2 0x157 PUSH2 0x335 JUMP JUMPDEST PUSH1 0x40 MLOAD PUSH2 0x164 SWAP2 SWAP1 PUSH2 0x549 JUMP JUMPDEST PUSH1 0x40 MLOAD DUP1 SWAP2 SUB SWAP1 RETURN JUMPDEST PUSH2 0x175 PUSH2 0x342 JUMP JUMPDEST PUSH1 0x40 MLOAD PUSH2 0x182 SWAP2 SWAP1 PUSH2 0x527 JUMP JUMPDEST PUSH1 0x40 MLOAD DUP1 SWAP2 SUB SWAP1 RETURN JUMPDEST PUSH1 0x0 DUP1 SLOAD PUSH2 0x198 SWAP1 PUSH2 0x5C9 JUMP JUMPDEST DUP1 PUSH1 0x1F ADD PUSH1 0x20 DUP1 SWAP2 DIV MUL PUSH1 0x20 ADD PUSH1 0x40 MLOAD SWAP1 DUP2 ADD PUSH1 0x40 MSTORE DUP1 SWAP3 SWAP2 SWAP1 DUP2 DUP2 MSTORE PUSH1 0x20 ADD DUP3 DUP1 SLOAD PUSH2 0x1C4 SWAP1 PUSH2 0x5C9 JUMP JUMPDEST DUP1 ISZERO PUSH2 0x211 JUMPI DUP1 PUSH1 0x1F LT PUSH2 0x1E6 JUMPI PUSH2 0x100 DUP1 DUP4 SLOAD DIV MUL DUP4 MSTORE SWAP2 PUSH1 0x20 ADD SWAP2 PUSH2 0x211 JUMP JUMPDEST DUP3 ADD SWAP2 SWAP1 PUSH1 0x0 MSTORE PUSH1 0x20 PUSH1 0x0 KECCAK256 SWAP1 JUMPDEST DUP2 SLOAD DUP2 MSTORE SWAP1 PUSH1 0x1 ADD SWAP1 PUSH1 0x20 ADD DUP1 DUP4 GT PUSH2 0x1F4 JUMPI DUP3 SWAP1 SUB PUSH1 0x1F AND DUP3 ADD SWAP2 JUMPDEST POP POP POP POP POP DUP2 JUMP JUMPDEST DUP1 PUSH1 0x1 DUP2 SWAP1 SSTORE POP POP JUMP JUMPDEST PUSH1 0x0 SWAP2 SWAP1 POP JUMP JUMPDEST PUSH1 0x12 PUSH1 0x1 SLOAD LT PUSH2 0x281 JUMPI PUSH1 0x40 MLOAD DUP1 PUSH1 0x40 ADD PUSH1 0x40 MSTORE DUP1 PUSH1 0xD DUP2 MSTORE PUSH1 0x20 ADD PUSH32 0x596F7520617265206164756C7400000000000000000000000000000000000000 DUP2 MSTORE POP PUSH1 0x2 SWAP1 DUP1 MLOAD SWAP1 PUSH1 0x20 ADD SWAP1 PUSH2 0x27F SWAP3 SWAP2 SWAP1 PUSH2 0x3D0 JUMP JUMPDEST POP JUMPDEST JUMP JUMPDEST PUSH1 0x1 SLOAD DUP2 JUMP JUMPDEST PUSH1 0x3 DUP2 DUP2 SLOAD DUP2 LT PUSH2 0x299 JUMPI PUSH1 0x0 DUP1 REVERT JUMPDEST SWAP1 PUSH1 0x0 MSTORE PUSH1 0x20 PUSH1 0x0 KECCAK256 ADD PUSH1 0x0 SWAP2 POP SWAP1 POP DUP1 SLOAD PUSH2 0x2B4 SWAP1 PUSH2 0x5C9 JUMP JUMPDEST DUP1 PUSH1 0x1F ADD PUSH1 0x20 DUP1 SWAP2 DIV MUL PUSH1 0x20 ADD PUSH1 0x40 MLOAD SWAP1 DUP2 ADD PUSH1 0x40 MSTORE DUP1 SWAP3 SWAP2 SWAP1 DUP2 DUP2 MSTORE PUSH1 0x20 ADD DUP3 DUP1 SLOAD PUSH2 0x2E0 SWAP1 PUSH2 0x5C9 JUMP JUMPDEST DUP1 ISZERO PUSH2 0x32D JUMPI DUP1 PUSH1 0x1F LT PUSH2 0x302 JUMPI PUSH2 0x100 DUP1 DUP4 SLOAD DIV MUL DUP4 MSTORE SWAP2 PUSH1 0x20 ADD SWAP2 PUSH2 0x32D JUMP JUMPDEST DUP3 ADD SWAP2 SWAP1 PUSH1 0x0 MSTORE PUSH1 0x20 PUSH1 0x0 KECCAK256 SWAP1 JUMPDEST DUP2 SLOAD DUP2 MSTORE SWAP1 PUSH1 0x1 ADD SWAP1 PUSH1 0x20 ADD DUP1 DUP4 GT PUSH2 0x310 JUMPI DUP3 SWAP1 SUB PUSH1 0x1F AND DUP3 ADD SWAP2 JUMPDEST POP POP POP POP POP DUP2 JUMP JUMPDEST PUSH1 0x0 PUSH1 0x3 DUP1 SLOAD SWAP1 POP SWAP1 POP SWAP1 JUMP JUMPDEST PUSH1 0x2 DUP1 SLOAD PUSH2 0x34F SWAP1 PUSH2 0x5C9 JUMP JUMPDEST DUP1 PUSH1 0x1F ADD PUSH1 0x20 DUP1 SWAP2 DIV MUL PUSH1 0x20 ADD PUSH1 0x40 MLOAD SWAP1 DUP2 ADD PUSH1 0x40 MSTORE DUP1 SWAP3 SWAP2 SWAP1 DUP2 DUP2 MSTORE PUSH1 0x20 ADD DUP3 DUP1 SLOAD PUSH2 0x37B SWAP1 PUSH2 0x5C9 JUMP JUMPDEST DUP1 ISZERO PUSH2 0x3C8 JUMPI DUP1 PUSH1 0x1F LT PUSH2 0x39D JUMPI PUSH2 0x100 DUP1 DUP4 SLOAD DIV MUL DUP4 MSTORE SWAP2 PUSH1 0x20 ADD SWAP2 PUSH2 0x3C8 JUMP JUMPDEST DUP3 ADD SWAP2 SWAP1 PUSH1 0x0 MSTORE PUSH1 0x20 PUSH1 0x0 KECCAK256 SWAP1 JUMPDEST DUP2 SLOAD DUP2 MSTORE SWAP1 PUSH1 0x1 ADD SWAP1 PUSH1 0x20 ADD DUP1 DUP4 GT PUSH2 0x3AB JUMPI DUP3 SWAP1 SUB PUSH1 0x1F AND DUP3 ADD SWAP2 JUMPDEST POP POP POP POP POP DUP2 JUMP JUMPDEST DUP3 DUP1 SLOAD PUSH2 0x3DC SWAP1 PUSH2 0x5C9 JUMP JUMPDEST SWAP1 PUSH1 0x0 MSTORE PUSH1 0x20 PUSH1 0x0 KECCAK256 SWAP1 PUSH1 0x1F ADD PUSH1 0x20 SWAP1 DIV DUP2 ADD SWAP3 DUP3 PUSH2 0x3FE JUMPI PUSH1 0x0 DUP6 SSTORE PUSH2 0x445 JUMP JUMPDEST DUP3 PUSH1 0x1F LT PUSH2 0x417 JUMPI DUP1 MLOAD PUSH1 0xFF NOT AND DUP4 DUP1 ADD OR DUP6 SSTORE PUSH2 0x445 JUMP JUMPDEST DUP3 DUP1 ADD PUSH1 0x1 ADD DUP6 SSTORE DUP3 ISZERO PUSH2 0x445 JUMPI SWAP2 DUP3 ADD JUMPDEST DUP3 DUP2 GT ISZERO PUSH2 0x444 JUMPI DUP3 MLOAD DUP3 SSTORE SWAP2 PUSH1 0x20 ADD SWAP2 SWAP1 PUSH1 0x1 ADD SWAP1 PUSH2 0x429 JUMP JUMPDEST JUMPDEST POP SWAP1 POP PUSH2 0x452 SWAP2 SWAP1 PUSH2 0x456 JUMP JUMPDEST POP SWAP1 JUMP JUMPDEST JUMPDEST DUP1 DUP3 GT ISZERO PUSH2 0x46F JUMPI PUSH1 0x0 DUP2 PUSH1 0x0 SWAP1 SSTORE POP PUSH1 0x1 ADD PUSH2 0x457 JUMP JUMPDEST POP SWAP1 JUMP JUMPDEST PUSH1 0x0 DUP2 CALLDATALOAD SWAP1 POP PUSH2 0x482 DUP2 PUSH2 0x640 JUMP JUMPDEST SWAP3 SWAP2 POP POP JUMP JUMPDEST PUSH1 0x0 PUSH1 0x20 DUP3 DUP5 SUB SLT ISZERO PUSH2 0x49E JUMPI PUSH2 0x49D PUSH2 0x62A JUMP JUMPDEST JUMPDEST PUSH1 0x0 PUSH2 0x4AC DUP5 DUP3 DUP6 ADD PUSH2 0x473 JUMP JUMPDEST SWAP2 POP POP SWAP3 SWAP2 POP POP JUMP JUMPDEST PUSH2 0x4BE DUP2 PUSH2 0x580 JUMP JUMPDEST DUP3 MSTORE POP POP JUMP JUMPDEST PUSH1 0x0 PUSH2 0x4CF DUP3 PUSH2 0x564 JUMP JUMPDEST PUSH2 0x4D9 DUP2 DUP6 PUSH2 0x56F JUMP JUMPDEST SWAP4 POP PUSH2 0x4E9 DUP2 DUP6 PUSH1 0x20 DUP7 ADD PUSH2 0x596 JUMP JUMPDEST PUSH2 0x4F2 DUP2 PUSH2 0x62F JUMP JUMPDEST DUP5 ADD SWAP2 POP POP SWAP3 SWAP2 POP POP JUMP JUMPDEST PUSH2 0x506 DUP2 PUSH2 0x58C JUMP JUMPDEST DUP3 MSTORE POP POP JUMP JUMPDEST PUSH1 0x0 PUSH1 0x20 DUP3 ADD SWAP1 POP PUSH2 0x521 PUSH1 0x0 DUP4 ADD DUP5 PUSH2 0x4B5 JUMP JUMPDEST SWAP3 SWAP2 POP POP JUMP JUMPDEST PUSH1 0x0 PUSH1 0x20 DUP3 ADD SWAP1 POP DUP2 DUP2 SUB PUSH1 0x0 DUP4 ADD MSTORE PUSH2 0x541 DUP2 DUP5 PUSH2 0x4C4 JUMP JUMPDEST SWAP1 POP SWAP3 SWAP2 POP POP JUMP JUMPDEST PUSH1 0x0 PUSH1 0x20 DUP3 ADD SWAP1 POP PUSH2 0x55E PUSH1 0x0 DUP4 ADD DUP5 PUSH2 0x4FD JUMP JUMPDEST SWAP3 SWAP2 POP POP JUMP JUMPDEST PUSH1 0x0 DUP2 MLOAD SWAP1 POP SWAP2 SWAP1 POP JUMP JUMPDEST PUSH1 0x0 DUP3 DUP3 MSTORE PUSH1 0x20 DUP3 ADD SWAP1 POP SWAP3 SWAP2 POP POP JUMP JUMPDEST PUSH1 0x0 DUP2 ISZERO ISZERO SWAP1 POP SWAP2 SWAP1 POP JUMP JUMPDEST PUSH1 0x0 DUP2 SWAP1 POP SWAP2 SWAP1 POP JUMP JUMPDEST PUSH1 0x0 JUMPDEST DUP4 DUP2 LT ISZERO PUSH2 0x5B4 JUMPI DUP1 DUP3 ADD MLOAD DUP2 DUP5 ADD MSTORE PUSH1 0x20 DUP2 ADD SWAP1 POP PUSH2 0x599 JUMP JUMPDEST DUP4 DUP2 GT ISZERO PUSH2 0x5C3 JUMPI PUSH1 0x0 DUP5 DUP5 ADD MSTORE JUMPDEST POP POP POP POP JUMP JUMPDEST PUSH1 0x0 PUSH1 0x2 DUP3 DIV SWAP1 POP PUSH1 0x1 DUP3 AND DUP1 PUSH2 0x5E1 JUMPI PUSH1 0x7F DUP3 AND SWAP2 POP JUMPDEST PUSH1 0x20 DUP3 LT DUP2 EQ ISZERO PUSH2 0x5F5 JUMPI PUSH2 0x5F4 PUSH2 0x5FB JUMP JUMPDEST JUMPDEST POP SWAP2 SWAP1 POP JUMP JUMPDEST PUSH32 0x4E487B7100000000000000000000000000000000000000000000000000000000 PUSH1 0x0 MSTORE PUSH1 0x22 PUSH1 0x4 MSTORE PUSH1 0x24 PUSH1 0x0 REVERT JUMPDEST PUSH1 0x0 DUP1 REVERT JUMPDEST PUSH1 0x0 PUSH1 0x1F NOT PUSH1 0x1F DUP4 ADD AND SWAP1 POP SWAP2 SWAP1 POP JUMP JUMPDEST PUSH2 0x649 DUP2 PUSH2 0x58C JUMP JUMPDEST DUP2 EQ PUSH2 0x654 JUMPI PUSH1 0x0 DUP1 REVERT JUMPDEST POP JUMP INVALID LOG2 PUSH5 0x6970667358 0x22 SLT KECCAK256 SWAP11 CODECOPY 0xBD PUSH23 0xD84403DD8DA7CA45D6D02997C007BF5FDBE2D23528AB6D SWAP6 PUSH29 0x6A00DE64736F6C63430008070033000000000000000000000000000000 "
				},
				"gasEstimates": {
					"creation": {
						"codeDepositCost": "335400",
						"executionCost": "infinite",
						"totalCost": "infinite"
					},
					"external": {
						"checkAge()": "infinite",
						"getLength()": "2489",
						"getMyAge(uint256)": "22543",
						"hello()": "infinite",
						"isEven(uint256)": "645",
						"myage()": "2429",
						"state()": "infinite",
						"web3(uint256)": "infinite"
					}
				},
				"methodIdentifiers": {
					"checkAge()": "741983c0",
					"getLength()": "be1c766b",
					"getMyAge(uint256)": "29f3901e",
					"hello()": "19ff1d21",
					"isEven(uint256)": "2a2e1320",
					"myage()": "951578af",
					"state()": "c19d93fb",
					"web3(uint256)": "9c1f8ae0"
				}
			},
			"storageLayout": {
				"storage": [
					{
						"astId": 4,
						"contract": "contracts/MainContract.sol:Main",
						"label": "hello",
						"offset": 0,
						"slot": "0",
						"type": "t_string_storage"
					},
					{
						"astId": 7,
						"contract": "contracts/MainContract.sol:Main",
						"label": "myage",
						"offset": 0,
						"slot": "1",
						"type": "t_uint256"
					},
					{
						"astId": 19,
						"contract": "contracts/MainContract.sol:Main",
						"label": "state",
						"offset": 0,
						"slot": "2",
						"type": "t_string_storage"
					},
					{
						"astId": 39,
						"contract": "contracts/MainContract.sol:Main",
						"label": "web3",
						"offset": 0,
						"slot": "3",
						"type": "t_array(t_string_storage)dyn_storage"
					},
					{
						"astId": 61,
						"contract": "contracts/MainContract.sol:Main",
						"label": "nbr",
						"offset": 0,
						"slot": "4",
						"type": "t_array(t_uint256)dyn_storage"
					}
				],
				"types": {
					"t_array(t_string_storage)dyn_storage": {
						"base": "t_string_storage",
						"encoding": "dynamic_array",
						"label": "string[]",
						"numberOfBytes": "32"
					},
					"t_array(t_uint256)dyn_storage": {
						"base": "t_uint256",
						"encoding": "dynamic_array",
						"label": "uint256[]",
						"numberOfBytes": "32"
					},
					"t_string_storage": {
						"encoding": "bytes",
						"label": "string",
						"numberOfBytes": "32"
					},
					"t_uint256": {
						"encoding": "inplace",
						"label": "uint256",
						"numberOfBytes": "32"
					}
				}
			},
			"userdoc": {
				"kind": "user",
				"methods": {},
				"version": 1
			}
		}
	}
}