{
	"contracts/MainContract.sol": {
		"Main": {
			"abi": [
				{
					"inputs": [],
					"name": "checkAge",
					"outputs": [],
					"stateMutability": "nonpayable",
					"type": "function"
				},
				{
					"inputs": [],
					"name": "countNumber",
					"outputs": [
						{
							"internalType": "uint256",
							"name": "",
							"type": "uint256"
						}
					],
					"stateMutability": "view",
					"type": "function"
				},
				{
					"inputs": [],
					"name": "getLength",
					"outputs": [
						{
							"internalType": "uint256",
							"name": "",
							"type": "uint256"
						}
					],
					"stateMutability": "view",
					"type": "function"
				},
				{
					"inputs": [
						{
							"internalType": "uint256",
							"name": "_newAge",
							"type": "uint256"
						}
					],
					"name": "getMyAge",
					"outputs": [],
					"stateMutability": "nonpayable",
					"type": "function"
				},
				{
					"inputs": [],
					"name": "getName",
					"outputs": [
						{
							"internalType": "string",
							"name": "",
							"type": "string"
						}
					],
					"stateMutability": "view",
					"type": "function"
				},
				{
					"inputs": [],
					"name": "hello",
					"outputs": [
						{
							"internalType": "string",
							"name": "",
							"type": "string"
						}
					],
					"stateMutability": "view",
					"type": "function"
				},
				{
					"inputs": [],
					"name": "myage",
					"outputs": [
						{
							"internalType": "uint256",
							"name": "",
							"type": "uint256"
						}
					],
					"stateMutability": "view",
					"type": "function"
				},
				{
					"inputs": [
						{
							"internalType": "uint256",
							"name": "",
							"type": "uint256"
						}
					],
					"name": "nbr",
					"outputs": [
						{
							"internalType": "uint256",
							"name": "",
							"type": "uint256"
						}
					],
					"stateMutability": "view",
					"type": "function"
				},
				{
					"inputs": [],
					"name": "p1",
					"outputs": [
						{
							"internalType": "uint256",
							"name": "id",
							"type": "uint256"
						},
						{
							"internalType": "string",
							"name": "name",
							"type": "string"
						},
						{
							"internalType": "bool",
							"name": "alive",
							"type": "bool"
						}
					],
					"stateMutability": "view",
					"type": "function"
				},
				{
					"inputs": [],
					"name": "p2",
					"outputs": [
						{
							"internalType": "uint256",
							"name": "id",
							"type": "uint256"
						},
						{
							"internalType": "string",
							"name": "name",
							"type": "string"
						},
						{
							"internalType": "bool",
							"name": "alive",
							"type": "bool"
						}
					],
					"stateMutability": "view",
					"type": "function"
				},
				{
					"inputs": [],
					"name": "p3",
					"outputs": [
						{
							"internalType": "uint256",
							"name": "id",
							"type": "uint256"
						},
						{
							"internalType": "string",
							"name": "name",
							"type": "string"
						},
						{
							"internalType": "bool",
							"name": "alive",
							"type": "bool"
						}
					],
					"stateMutability": "view",
					"type": "function"
				},
				{
					"inputs": [],
					"name": "state",
					"outputs": [
						{
							"internalType": "string",
							"name": "",
							"type": "string"
						}
					],
					"stateMutability": "view",
					"type": "function"
				},
				{
					"inputs": [
						{
							"internalType": "uint256",
							"name": "",
							"type": "uint256"
						}
					],
					"name": "web3",
					"outputs": [
						{
							"internalType": "string",
							"name": "",
							"type": "string"
						}
					],
					"stateMutability": "view",
					"type": "function"
				}
			],
			"devdoc": {
				"kind": "dev",
				"methods": {},
				"version": 1
			},
			"evm": {
				"assembly": "    /* \"contracts/MainContract.sol\":74:1615  contract Main{\r... */\n  mstore(0x40, 0x80)\n    /* \"contracts/MainContract.sol\":90:137  string public hello=\"hello solidity developer \" */\n  mload(0x40)\n  dup1\n  0x40\n  add\n  0x40\n  mstore\n  dup1\n  0x19\n  dup2\n  mstore\n  0x20\n  add\n  0x68656c6c6f20736f6c696469747920646576656c6f7065722000000000000000\n  dup2\n  mstore\n  pop\n  0x00\n  swap1\n  dup1\n  mload\n  swap1\n  0x20\n  add\n  swap1\n  tag_1\n  swap3\n  swap2\n  swap1\n  tag_2\n  jump\t// in\ntag_1:\n  pop\n    /* \"contracts/MainContract.sol\":215:217  21 */\n  0x15\n    /* \"contracts/MainContract.sol\":197:217  uint public myage=21 */\n  0x01\n  sstore\n    /* \"contracts/MainContract.sol\":642:703  string[] public web3=[\"nft\",\"etherium\",\"blockchaine\",\"dapps\"] */\n  mload(0x40)\n  dup1\n  0x80\n  add\n  0x40\n  mstore\n  dup1\n  mload(0x40)\n  dup1\n  0x40\n  add\n  0x40\n  mstore\n  dup1\n  0x03\n  dup2\n  mstore\n  0x20\n  add\n  0x6e66740000000000000000000000000000000000000000000000000000000000\n  dup2\n  mstore\n  pop\n  dup2\n  mstore\n  0x20\n  add\n  mload(0x40)\n  dup1\n  0x40\n  add\n  0x40\n  mstore\n  dup1\n  0x08\n  dup2\n  mstore\n  0x20\n  add\n  0x657468657269756d000000000000000000000000000000000000000000000000\n  dup2\n  mstore\n  pop\n  dup2\n  mstore\n  0x20\n  add\n  mload(0x40)\n  dup1\n  0x40\n  add\n  0x40\n  mstore\n  dup1\n  0x0b\n  dup2\n  mstore\n  0x20\n  add\n  0x626c6f636b636861696e65000000000000000000000000000000000000000000\n  dup2\n  mstore\n  pop\n  dup2\n  mstore\n  0x20\n  add\n  mload(0x40)\n  dup1\n  0x40\n  add\n  0x40\n  mstore\n  dup1\n  0x05\n  dup2\n  mstore\n  0x20\n  add\n  0x6461707073000000000000000000000000000000000000000000000000000000\n  dup2\n  mstore\n  pop\n  dup2\n  mstore\n  pop\n  0x03\n  swap1\n  0x04\n  tag_3\n  swap3\n  swap2\n  swap1\n  tag_4\n  jump\t// in\ntag_3:\n  pop\n    /* \"contracts/MainContract.sol\":833:872  uint[] public nbr=[0,1,2,3,4,5,6,7,8,9] */\n  mload(0x40)\n  dup1\n  0x0140\n  add\n  0x40\n  mstore\n  dup1\n    /* \"contracts/MainContract.sol\":852:853  0 */\n  0x00\n    /* \"contracts/MainContract.sol\":833:872  uint[] public nbr=[0,1,2,3,4,5,6,7,8,9] */\n  0xff\n  and\n  dup2\n  mstore\n  0x20\n  add\n    /* \"contracts/MainContract.sol\":854:855  1 */\n  0x01\n    /* \"contracts/MainContract.sol\":833:872  uint[] public nbr=[0,1,2,3,4,5,6,7,8,9] */\n  0xff\n  and\n  dup2\n  mstore\n  0x20\n  add\n    /* \"contracts/MainContract.sol\":856:857  2 */\n  0x02\n    /* \"contracts/MainContract.sol\":833:872  uint[] public nbr=[0,1,2,3,4,5,6,7,8,9] */\n  0xff\n  and\n  dup2\n  mstore\n  0x20\n  add\n    /* \"contracts/MainContract.sol\":858:859  3 */\n  0x03\n    /* \"contracts/MainContract.sol\":833:872  uint[] public nbr=[0,1,2,3,4,5,6,7,8,9] */\n  0xff\n  and\n  dup2\n  mstore\n  0x20\n  add\n    /* \"contracts/MainContract.sol\":860:861  4 */\n  0x04\n    /* \"contracts/MainContract.sol\":833:872  uint[] public nbr=[0,1,2,3,4,5,6,7,8,9] */\n  0xff\n  and\n  dup2\n  mstore\n  0x20\n  add\n    /* \"contracts/MainContract.sol\":862:863  5 */\n  0x05\n    /* \"contracts/MainContract.sol\":833:872  uint[] public nbr=[0,1,2,3,4,5,6,7,8,9] */\n  0xff\n  and\n  dup2\n  mstore\n  0x20\n  add\n    /* \"contracts/MainContract.sol\":864:865  6 */\n  0x06\n    /* \"contracts/MainContract.sol\":833:872  uint[] public nbr=[0,1,2,3,4,5,6,7,8,9] */\n  0xff\n  and\n  dup2\n  mstore\n  0x20\n  add\n    /* \"contracts/MainContract.sol\":866:867  7 */\n  0x07\n    /* \"contracts/MainContract.sol\":833:872  uint[] public nbr=[0,1,2,3,4,5,6,7,8,9] */\n  0xff\n  and\n  dup2\n  mstore\n  0x20\n  add\n    /* \"contracts/MainContract.sol\":868:869  8 */\n  0x08\n    /* \"contracts/MainContract.sol\":833:872  uint[] public nbr=[0,1,2,3,4,5,6,7,8,9] */\n  0xff\n  and\n  dup2\n  mstore\n  0x20\n  add\n    /* \"contracts/MainContract.sol\":870:871  9 */\n  0x09\n    /* \"contracts/MainContract.sol\":833:872  uint[] public nbr=[0,1,2,3,4,5,6,7,8,9] */\n  0xff\n  and\n  dup2\n  mstore\n  pop\n  0x04\n  swap1\n  0x0a\n  tag_5\n  swap3\n  swap2\n  swap1\n  tag_6\n  jump\t// in\ntag_5:\n  pop\n    /* \"contracts/MainContract.sol\":1247:1269  string name=\"devloper\" */\n  mload(0x40)\n  dup1\n  0x40\n  add\n  0x40\n  mstore\n  dup1\n  0x08\n  dup2\n  mstore\n  0x20\n  add\n  0x6465766c6f706572000000000000000000000000000000000000000000000000\n  dup2\n  mstore\n  pop\n  0x05\n  swap1\n  dup1\n  mload\n  swap1\n  0x20\n  add\n  swap1\n  tag_7\n  swap3\n  swap2\n  swap1\n  tag_2\n  jump\t// in\ntag_7:\n  pop\n    /* \"contracts/MainContract.sol\":1471:1495  Person(1234,\"raid\",true) */\n  mload(0x40)\n  dup1\n  0x60\n  add\n  0x40\n  mstore\n  dup1\n    /* \"contracts/MainContract.sol\":1478:1482  1234 */\n  0x04d2\n    /* \"contracts/MainContract.sol\":1471:1495  Person(1234,\"raid\",true) */\n  dup2\n  mstore\n  0x20\n  add\n  mload(0x40)\n  dup1\n  0x40\n  add\n  0x40\n  mstore\n  dup1\n  0x04\n  dup2\n  mstore\n  0x20\n  add\n  0x7261696400000000000000000000000000000000000000000000000000000000\n  dup2\n  mstore\n  pop\n  dup2\n  mstore\n  0x20\n  add\n    /* \"contracts/MainContract.sol\":1490:1494  true */\n  0x01\n    /* \"contracts/MainContract.sol\":1471:1495  Person(1234,\"raid\",true) */\n  iszero\n  iszero\n  dup2\n  mstore\n  pop\n    /* \"contracts/MainContract.sol\":1454:1495  Person public p1=Person(1234,\"raid\",true) */\n  0x06\n  0x00\n  dup3\n  add\n  mload\n  dup2\n  0x00\n  add\n  sstore\n  0x20\n  dup3\n  add\n  mload\n  dup2\n  0x01\n  add\n  swap1\n  dup1\n  mload\n  swap1\n  0x20\n  add\n  swap1\n  tag_8\n  swap3\n  swap2\n  swap1\n  tag_2\n  jump\t// in\ntag_8:\n  pop\n  0x40\n  dup3\n  add\n  mload\n  dup2\n  0x02\n  add\n  exp(0x0100, 0x00)\n  dup2\n  sload\n  dup2\n  0xff\n  mul\n  not\n  and\n  swap1\n  dup4\n  iszero\n  iszero\n  mul\n  or\n  swap1\n  sstore\n  pop\n  pop\n  pop\n    /* \"contracts/MainContract.sol\":1515:1543  Person(191943,\"salim\",false) */\n  mload(0x40)\n  dup1\n  0x60\n  add\n  0x40\n  mstore\n  dup1\n    /* \"contracts/MainContract.sol\":1522:1528  191943 */\n  0x02edc7\n    /* \"contracts/MainContract.sol\":1515:1543  Person(191943,\"salim\",false) */\n  dup2\n  mstore\n  0x20\n  add\n  mload(0x40)\n  dup1\n  0x40\n  add\n  0x40\n  mstore\n  dup1\n  0x05\n  dup2\n  mstore\n  0x20\n  add\n  0x73616c696d000000000000000000000000000000000000000000000000000000\n  dup2\n  mstore\n  pop\n  dup2\n  mstore\n  0x20\n  add\n    /* \"contracts/MainContract.sol\":1537:1542  false */\n  0x00\n    /* \"contracts/MainContract.sol\":1515:1543  Person(191943,\"salim\",false) */\n  iszero\n  iszero\n  dup2\n  mstore\n  pop\n    /* \"contracts/MainContract.sol\":1498:1543  Person public p2=Person(191943,\"salim\",false) */\n  0x09\n  0x00\n  dup3\n  add\n  mload\n  dup2\n  0x00\n  add\n  sstore\n  0x20\n  dup3\n  add\n  mload\n  dup2\n  0x01\n  add\n  swap1\n  dup1\n  mload\n  swap1\n  0x20\n  add\n  swap1\n  tag_9\n  swap3\n  swap2\n  swap1\n  tag_2\n  jump\t// in\ntag_9:\n  pop\n  0x40\n  dup3\n  add\n  mload\n  dup2\n  0x02\n  add\n  exp(0x0100, 0x00)\n  dup2\n  sload\n  dup2\n  0xff\n  mul\n  not\n  and\n  swap1\n  dup4\n  iszero\n  iszero\n  mul\n  or\n  swap1\n  sstore\n  pop\n  pop\n  pop\n    /* \"contracts/MainContract.sol\":1563:1607  Person({id:191943,name:\"salim\",alive:false}) */\n  mload(0x40)\n  dup1\n  0x60\n  add\n  0x40\n  mstore\n  dup1\n    /* \"contracts/MainContract.sol\":1574:1580  191943 */\n  0x02edc7\n    /* \"contracts/MainContract.sol\":1563:1607  Person({id:191943,name:\"salim\",alive:false}) */\n  dup2\n  mstore\n  0x20\n  add\n  mload(0x40)\n  dup1\n  0x40\n  add\n  0x40\n  mstore\n  dup1\n  0x05\n  dup2\n  mstore\n  0x20\n  add\n  0x73616c696d000000000000000000000000000000000000000000000000000000\n  dup2\n  mstore\n  pop\n  dup2\n  mstore\n  0x20\n  add\n    /* \"contracts/MainContract.sol\":1600:1605  false */\n  0x00\n    /* \"contracts/MainContract.sol\":1563:1607  Person({id:191943,name:\"salim\",alive:false}) */\n  iszero\n  iszero\n  dup2\n  mstore\n  pop\n    /* \"contracts/MainContract.sol\":1546:1607  Person public p3=Person({id:191943,name:\"salim\",alive:false}) */\n  0x0c\n  0x00\n  dup3\n  add\n  mload\n  dup2\n  0x00\n  add\n  sstore\n  0x20\n  dup3\n  add\n  mload\n  dup2\n  0x01\n  add\n  swap1\n  dup1\n  mload\n  swap1\n  0x20\n  add\n  swap1\n  tag_10\n  swap3\n  swap2\n  swap1\n  tag_2\n  jump\t// in\ntag_10:\n  pop\n  0x40\n  dup3\n  add\n  mload\n  dup2\n  0x02\n  add\n  exp(0x0100, 0x00)\n  dup2\n  sload\n  dup2\n  0xff\n  mul\n  not\n  and\n  swap1\n  dup4\n  iszero\n  iszero\n  mul\n  or\n  swap1\n  sstore\n  pop\n  pop\n  pop\n    /* \"contracts/MainContract.sol\":74:1615  contract Main{\r... */\n  callvalue\n  dup1\n  iszero\n  tag_11\n  jumpi\n  0x00\n  dup1\n  revert\ntag_11:\n  pop\n  jump(tag_12)\ntag_2:\n  dup3\n  dup1\n  sload\n  tag_13\n  swap1\n  tag_14\n  jump\t// in\ntag_13:\n  swap1\n  0x00\n  mstore\n  keccak256(0x00, 0x20)\n  swap1\n  0x1f\n  add\n  0x20\n  swap1\n  div\n  dup2\n  add\n  swap3\n  dup3\n  tag_16\n  jumpi\n  0x00\n  dup6\n  sstore\n  jump(tag_15)\ntag_16:\n  dup3\n  0x1f\n  lt\n  tag_17\n  jumpi\n  dup1\n  mload\n  not(0xff)\n  and\n  dup4\n  dup1\n  add\n  or\n  dup6\n  sstore\n  jump(tag_15)\ntag_17:\n  dup3\n  dup1\n  add\n  0x01\n  add\n  dup6\n  sstore\n  dup3\n  iszero\n  tag_15\n  jumpi\n  swap2\n  dup3\n  add\ntag_18:\n  dup3\n  dup2\n  gt\n  iszero\n  tag_19\n  jumpi\n  dup3\n  mload\n  dup3\n  sstore\n  swap2\n  0x20\n  add\n  swap2\n  swap1\n  0x01\n  add\n  swap1\n  jump(tag_18)\ntag_19:\ntag_15:\n  pop\n  swap1\n  pop\n  tag_20\n  swap2\n  swap1\n  tag_21\n  jump\t// in\ntag_20:\n  pop\n  swap1\n  jump\t// out\ntag_4:\n  dup3\n  dup1\n  sload\n  dup3\n  dup3\n  sstore\n  swap1\n  0x00\n  mstore\n  keccak256(0x00, 0x20)\n  swap1\n  dup2\n  add\n  swap3\n  dup3\n  iszero\n  tag_22\n  jumpi\n  swap2\n  0x20\n  mul\n  dup3\n  add\ntag_23:\n  dup3\n  dup2\n  gt\n  iszero\n  tag_24\n  jumpi\n  dup3\n  mload\n  dup3\n  swap1\n  dup1\n  mload\n  swap1\n  0x20\n  add\n  swap1\n  tag_25\n  swap3\n  swap2\n  swap1\n  tag_2\n  jump\t// in\ntag_25:\n  pop\n  swap2\n  0x20\n  add\n  swap2\n  swap1\n  0x01\n  add\n  swap1\n  jump(tag_23)\ntag_24:\ntag_22:\n  pop\n  swap1\n  pop\n  tag_26\n  swap2\n  swap1\n  tag_27\n  jump\t// in\ntag_26:\n  pop\n  swap1\n  jump\t// out\ntag_6:\n  dup3\n  dup1\n  sload\n  dup3\n  dup3\n  sstore\n  swap1\n  0x00\n  mstore\n  keccak256(0x00, 0x20)\n  swap1\n  dup2\n  add\n  swap3\n  dup3\n  iszero\n  tag_28\n  jumpi\n  swap2\n  0x20\n  mul\n  dup3\n  add\ntag_29:\n  dup3\n  dup2\n  gt\n  iszero\n  tag_30\n  jumpi\n  dup3\n  mload\n  dup3\n  swap1\n  0xff\n  and\n  swap1\n  sstore\n  swap2\n  0x20\n  add\n  swap2\n  swap1\n  0x01\n  add\n  swap1\n  jump(tag_29)\ntag_30:\ntag_28:\n  pop\n  swap1\n  pop\n  tag_31\n  swap2\n  swap1\n  tag_21\n  jump\t// in\ntag_31:\n  pop\n  swap1\n  jump\t// out\ntag_21:\ntag_32:\n  dup1\n  dup3\n  gt\n  iszero\n  tag_33\n  jumpi\n  0x00\n  dup2\n  0x00\n  swap1\n  sstore\n  pop\n  0x01\n  add\n  jump(tag_32)\ntag_33:\n  pop\n  swap1\n  jump\t// out\ntag_27:\ntag_34:\n  dup1\n  dup3\n  gt\n  iszero\n  tag_35\n  jumpi\n  0x00\n  dup2\n  dup2\n  tag_36\n  swap2\n  swap1\n  tag_37\n  jump\t// in\ntag_36:\n  pop\n  0x01\n  add\n  jump(tag_34)\ntag_35:\n  pop\n  swap1\n  jump\t// out\ntag_37:\n  pop\n  dup1\n  sload\n  tag_38\n  swap1\n  tag_14\n  jump\t// in\ntag_38:\n  0x00\n  dup3\n  sstore\n  dup1\n  0x1f\n  lt\n  tag_40\n  jumpi\n  pop\n  jump(tag_39)\ntag_40:\n  0x1f\n  add\n  0x20\n  swap1\n  div\n  swap1\n  0x00\n  mstore\n  keccak256(0x00, 0x20)\n  swap1\n  dup2\n  add\n  swap1\n  tag_41\n  swap2\n  swap1\n  tag_21\n  jump\t// in\ntag_41:\ntag_39:\n  pop\n  jump\t// out\n    /* \"#utility.yul\":7:327   */\ntag_14:\n    /* \"#utility.yul\":51:57   */\n  0x00\n    /* \"#utility.yul\":88:89   */\n  0x02\n    /* \"#utility.yul\":82:86   */\n  dup3\n    /* \"#utility.yul\":78:90   */\n  div\n    /* \"#utility.yul\":68:90   */\n  swap1\n  pop\n    /* \"#utility.yul\":135:136   */\n  0x01\n    /* \"#utility.yul\":129:133   */\n  dup3\n    /* \"#utility.yul\":125:137   */\n  and\n    /* \"#utility.yul\":156:174   */\n  dup1\n    /* \"#utility.yul\":146:227   */\n  tag_44\n  jumpi\n    /* \"#utility.yul\":212:216   */\n  0x7f\n    /* \"#utility.yul\":204:210   */\n  dup3\n    /* \"#utility.yul\":200:217   */\n  and\n    /* \"#utility.yul\":190:217   */\n  swap2\n  pop\n    /* \"#utility.yul\":146:227   */\ntag_44:\n    /* \"#utility.yul\":274:276   */\n  0x20\n    /* \"#utility.yul\":266:272   */\n  dup3\n    /* \"#utility.yul\":263:277   */\n  lt\n    /* \"#utility.yul\":243:261   */\n  dup2\n    /* \"#utility.yul\":240:278   */\n  eq\n    /* \"#utility.yul\":237:321   */\n  iszero\n  tag_45\n  jumpi\n    /* \"#utility.yul\":293:311   */\n  tag_46\n  tag_47\n  jump\t// in\ntag_46:\n    /* \"#utility.yul\":237:321   */\ntag_45:\n    /* \"#utility.yul\":58:327   */\n  pop\n    /* \"#utility.yul\":7:327   */\n  swap2\n  swap1\n  pop\n  jump\t// out\n    /* \"#utility.yul\":333:513   */\ntag_47:\n    /* \"#utility.yul\":381:458   */\n  0x4e487b7100000000000000000000000000000000000000000000000000000000\n    /* \"#utility.yul\":378:379   */\n  0x00\n    /* \"#utility.yul\":371:459   */\n  mstore\n    /* \"#utility.yul\":478:482   */\n  0x22\n    /* \"#utility.yul\":475:476   */\n  0x04\n    /* \"#utility.yul\":468:483   */\n  mstore\n    /* \"#utility.yul\":502:506   */\n  0x24\n    /* \"#utility.yul\":499:500   */\n  0x00\n    /* \"#utility.yul\":492:507   */\n  revert\n    /* \"contracts/MainContract.sol\":74:1615  contract Main{\r... */\ntag_12:\n  dataSize(sub_0)\n  dup1\n  dataOffset(sub_0)\n  0x00\n  codecopy\n  0x00\n  return\nstop\n\nsub_0: assembly {\n        /* \"contracts/MainContract.sol\":74:1615  contract Main{\r... */\n      mstore(0x40, 0x80)\n      callvalue\n      dup1\n      iszero\n      tag_1\n      jumpi\n      0x00\n      dup1\n      revert\n    tag_1:\n      pop\n      jumpi(tag_2, lt(calldatasize, 0x04))\n      shr(0xe0, calldataload(0x00))\n      dup1\n      0x81d01ed3\n      gt\n      tag_16\n      jumpi\n      dup1\n      0x9c1f8ae0\n      gt\n      tag_17\n      jumpi\n      dup1\n      0x9c1f8ae0\n      eq\n      tag_12\n      jumpi\n      dup1\n      0xbe1c766b\n      eq\n      tag_13\n      jumpi\n      dup1\n      0xc19d93fb\n      eq\n      tag_14\n      jumpi\n      dup1\n      0xc2a2747b\n      eq\n      tag_15\n      jumpi\n      jump(tag_2)\n    tag_17:\n      dup1\n      0x81d01ed3\n      eq\n      tag_9\n      jumpi\n      dup1\n      0x951578af\n      eq\n      tag_10\n      jumpi\n      dup1\n      0x95ccb57c\n      eq\n      tag_11\n      jumpi\n      jump(tag_2)\n    tag_16:\n      dup1\n      0x17d7de7c\n      eq\n      tag_3\n      jumpi\n      dup1\n      0x19ff1d21\n      eq\n      tag_4\n      jumpi\n      dup1\n      0x29f3901e\n      eq\n      tag_5\n      jumpi\n      dup1\n      0x6e219667\n      eq\n      tag_6\n      jumpi\n      dup1\n      0x72a818de\n      eq\n      tag_7\n      jumpi\n      dup1\n      0x741983c0\n      eq\n      tag_8\n      jumpi\n    tag_2:\n      0x00\n      dup1\n      revert\n        /* \"contracts/MainContract.sol\":1272:1347  function getName() public view returns(string memory){\r... */\n    tag_3:\n      tag_18\n      tag_19\n      jump\t// in\n    tag_18:\n      mload(0x40)\n      tag_20\n      swap2\n      swap1\n      tag_21\n      jump\t// in\n    tag_20:\n      mload(0x40)\n      dup1\n      swap2\n      sub\n      swap1\n      return\n        /* \"contracts/MainContract.sol\":90:137  string public hello=\"hello solidity developer \" */\n    tag_4:\n      tag_22\n      tag_23\n      jump\t// in\n    tag_22:\n      mload(0x40)\n      tag_24\n      swap2\n      swap1\n      tag_21\n      jump\t// in\n    tag_24:\n      mload(0x40)\n      dup1\n      swap2\n      sub\n      swap1\n      return\n        /* \"contracts/MainContract.sol\":329:408  function getMyAge(uint _newAge) public{ // _ for private\r... */\n    tag_5:\n      tag_25\n      0x04\n      dup1\n      calldatasize\n      sub\n      dup2\n      add\n      swap1\n      tag_26\n      swap2\n      swap1\n      tag_27\n      jump\t// in\n    tag_26:\n      tag_28\n      jump\t// in\n    tag_25:\n      stop\n        /* \"contracts/MainContract.sol\":1546:1607  Person public p3=Person({id:191943,name:\"salim\",alive:false}) */\n    tag_6:\n      tag_29\n      tag_30\n      jump\t// in\n    tag_29:\n      mload(0x40)\n      tag_31\n      swap4\n      swap3\n      swap2\n      swap1\n      tag_32\n      jump\t// in\n    tag_31:\n      mload(0x40)\n      dup1\n      swap2\n      sub\n      swap1\n      return\n        /* \"contracts/MainContract.sol\":833:872  uint[] public nbr=[0,1,2,3,4,5,6,7,8,9] */\n    tag_7:\n      tag_33\n      0x04\n      dup1\n      calldatasize\n      sub\n      dup2\n      add\n      swap1\n      tag_34\n      swap2\n      swap1\n      tag_27\n      jump\t// in\n    tag_34:\n      tag_35\n      jump\t// in\n    tag_33:\n      mload(0x40)\n      tag_36\n      swap2\n      swap1\n      tag_37\n      jump\t// in\n    tag_36:\n      mload(0x40)\n      dup1\n      swap2\n      sub\n      swap1\n      return\n        /* \"contracts/MainContract.sol\":466:543  function checkAge() public{\r... */\n    tag_8:\n      tag_38\n      tag_39\n      jump\t// in\n    tag_38:\n      stop\n        /* \"contracts/MainContract.sol\":1498:1543  Person public p2=Person(191943,\"salim\",false) */\n    tag_9:\n      tag_40\n      tag_41\n      jump\t// in\n    tag_40:\n      mload(0x40)\n      tag_42\n      swap4\n      swap3\n      swap2\n      swap1\n      tag_32\n      jump\t// in\n    tag_42:\n      mload(0x40)\n      dup1\n      swap2\n      sub\n      swap1\n      return\n        /* \"contracts/MainContract.sol\":197:217  uint public myage=21 */\n    tag_10:\n      tag_43\n      tag_44\n      jump\t// in\n    tag_43:\n      mload(0x40)\n      tag_45\n      swap2\n      swap1\n      tag_37\n      jump\t// in\n    tag_45:\n      mload(0x40)\n      dup1\n      swap2\n      sub\n      swap1\n      return\n        /* \"contracts/MainContract.sol\":1017:1208  function countNumber() public  view returns(uint){\r... */\n    tag_11:\n      tag_46\n      tag_47\n      jump\t// in\n    tag_46:\n      mload(0x40)\n      tag_48\n      swap2\n      swap1\n      tag_37\n      jump\t// in\n    tag_48:\n      mload(0x40)\n      dup1\n      swap2\n      sub\n      swap1\n      return\n        /* \"contracts/MainContract.sol\":642:703  string[] public web3=[\"nft\",\"etherium\",\"blockchaine\",\"dapps\"] */\n    tag_12:\n      tag_49\n      0x04\n      dup1\n      calldatasize\n      sub\n      dup2\n      add\n      swap1\n      tag_50\n      swap2\n      swap1\n      tag_27\n      jump\t// in\n    tag_50:\n      tag_51\n      jump\t// in\n    tag_49:\n      mload(0x40)\n      tag_52\n      swap2\n      swap1\n      tag_21\n      jump\t// in\n    tag_52:\n      mload(0x40)\n      dup1\n      swap2\n      sub\n      swap1\n      return\n        /* \"contracts/MainContract.sol\":716:792  function getLength() public view returns(uint){\r... */\n    tag_13:\n      tag_53\n      tag_54\n      jump\t// in\n    tag_53:\n      mload(0x40)\n      tag_55\n      swap2\n      swap1\n      tag_37\n      jump\t// in\n    tag_55:\n      mload(0x40)\n      dup1\n      swap2\n      sub\n      swap1\n      return\n        /* \"contracts/MainContract.sol\":444:463  string public state */\n    tag_14:\n      tag_56\n      tag_57\n      jump\t// in\n    tag_56:\n      mload(0x40)\n      tag_58\n      swap2\n      swap1\n      tag_21\n      jump\t// in\n    tag_58:\n      mload(0x40)\n      dup1\n      swap2\n      sub\n      swap1\n      return\n        /* \"contracts/MainContract.sol\":1454:1495  Person public p1=Person(1234,\"raid\",true) */\n    tag_15:\n      tag_59\n      tag_60\n      jump\t// in\n    tag_59:\n      mload(0x40)\n      tag_61\n      swap4\n      swap3\n      swap2\n      swap1\n      tag_32\n      jump\t// in\n    tag_61:\n      mload(0x40)\n      dup1\n      swap2\n      sub\n      swap1\n      return\n        /* \"contracts/MainContract.sol\":1272:1347  function getName() public view returns(string memory){\r... */\n    tag_19:\n        /* \"contracts/MainContract.sol\":1311:1324  string memory */\n      0x60\n        /* \"contracts/MainContract.sol\":1339:1343  name */\n      0x05\n        /* \"contracts/MainContract.sol\":1332:1343  return name */\n      dup1\n      sload\n      tag_63\n      swap1\n      tag_64\n      jump\t// in\n    tag_63:\n      dup1\n      0x1f\n      add\n      0x20\n      dup1\n      swap2\n      div\n      mul\n      0x20\n      add\n      mload(0x40)\n      swap1\n      dup2\n      add\n      0x40\n      mstore\n      dup1\n      swap3\n      swap2\n      swap1\n      dup2\n      dup2\n      mstore\n      0x20\n      add\n      dup3\n      dup1\n      sload\n      tag_65\n      swap1\n      tag_64\n      jump\t// in\n    tag_65:\n      dup1\n      iszero\n      tag_66\n      jumpi\n      dup1\n      0x1f\n      lt\n      tag_67\n      jumpi\n      0x0100\n      dup1\n      dup4\n      sload\n      div\n      mul\n      dup4\n      mstore\n      swap2\n      0x20\n      add\n      swap2\n      jump(tag_66)\n    tag_67:\n      dup3\n      add\n      swap2\n      swap1\n      0x00\n      mstore\n      keccak256(0x00, 0x20)\n      swap1\n    tag_68:\n      dup2\n      sload\n      dup2\n      mstore\n      swap1\n      0x01\n      add\n      swap1\n      0x20\n      add\n      dup1\n      dup4\n      gt\n      tag_68\n      jumpi\n      dup3\n      swap1\n      sub\n      0x1f\n      and\n      dup3\n      add\n      swap2\n    tag_66:\n      pop\n      pop\n      pop\n      pop\n      pop\n      swap1\n      pop\n        /* \"contracts/MainContract.sol\":1272:1347  function getName() public view returns(string memory){\r... */\n      swap1\n      jump\t// out\n        /* \"contracts/MainContract.sol\":90:137  string public hello=\"hello solidity developer \" */\n    tag_23:\n      0x00\n      dup1\n      sload\n      tag_69\n      swap1\n      tag_64\n      jump\t// in\n    tag_69:\n      dup1\n      0x1f\n      add\n      0x20\n      dup1\n      swap2\n      div\n      mul\n      0x20\n      add\n      mload(0x40)\n      swap1\n      dup2\n      add\n      0x40\n      mstore\n      dup1\n      swap3\n      swap2\n      swap1\n      dup2\n      dup2\n      mstore\n      0x20\n      add\n      dup3\n      dup1\n      sload\n      tag_70\n      swap1\n      tag_64\n      jump\t// in\n    tag_70:\n      dup1\n      iszero\n      tag_71\n      jumpi\n      dup1\n      0x1f\n      lt\n      tag_72\n      jumpi\n      0x0100\n      dup1\n      dup4\n      sload\n      div\n      mul\n      dup4\n      mstore\n      swap2\n      0x20\n      add\n      swap2\n      jump(tag_71)\n    tag_72:\n      dup3\n      add\n      swap2\n      swap1\n      0x00\n      mstore\n      keccak256(0x00, 0x20)\n      swap1\n    tag_73:\n      dup2\n      sload\n      dup2\n      mstore\n      swap1\n      0x01\n      add\n      swap1\n      0x20\n      add\n      dup1\n      dup4\n      gt\n      tag_73\n      jumpi\n      dup3\n      swap1\n      sub\n      0x1f\n      and\n      dup3\n      add\n      swap2\n    tag_71:\n      pop\n      pop\n      pop\n      pop\n      pop\n      dup2\n      jump\t// out\n        /* \"contracts/MainContract.sol\":329:408  function getMyAge(uint _newAge) public{ // _ for private\r... */\n    tag_28:\n        /* \"contracts/MainContract.sol\":397:404  _newAge */\n      dup1\n        /* \"contracts/MainContract.sol\":391:396  myage */\n      0x01\n        /* \"contracts/MainContract.sol\":391:404  myage=_newAge */\n      dup2\n      swap1\n      sstore\n      pop\n        /* \"contracts/MainContract.sol\":329:408  function getMyAge(uint _newAge) public{ // _ for private\r... */\n      pop\n      jump\t// out\n        /* \"contracts/MainContract.sol\":1546:1607  Person public p3=Person({id:191943,name:\"salim\",alive:false}) */\n    tag_30:\n      0x0c\n      dup1\n      0x00\n      add\n      sload\n      swap1\n      dup1\n      0x01\n      add\n      dup1\n      sload\n      tag_75\n      swap1\n      tag_64\n      jump\t// in\n    tag_75:\n      dup1\n      0x1f\n      add\n      0x20\n      dup1\n      swap2\n      div\n      mul\n      0x20\n      add\n      mload(0x40)\n      swap1\n      dup2\n      add\n      0x40\n      mstore\n      dup1\n      swap3\n      swap2\n      swap1\n      dup2\n      dup2\n      mstore\n      0x20\n      add\n      dup3\n      dup1\n      sload\n      tag_76\n      swap1\n      tag_64\n      jump\t// in\n    tag_76:\n      dup1\n      iszero\n      tag_77\n      jumpi\n      dup1\n      0x1f\n      lt\n      tag_78\n      jumpi\n      0x0100\n      dup1\n      dup4\n      sload\n      div\n      mul\n      dup4\n      mstore\n      swap2\n      0x20\n      add\n      swap2\n      jump(tag_77)\n    tag_78:\n      dup3\n      add\n      swap2\n      swap1\n      0x00\n      mstore\n      keccak256(0x00, 0x20)\n      swap1\n    tag_79:\n      dup2\n      sload\n      dup2\n      mstore\n      swap1\n      0x01\n      add\n      swap1\n      0x20\n      add\n      dup1\n      dup4\n      gt\n      tag_79\n      jumpi\n      dup3\n      swap1\n      sub\n      0x1f\n      and\n      dup3\n      add\n      swap2\n    tag_77:\n      pop\n      pop\n      pop\n      pop\n      pop\n      swap1\n      dup1\n      0x02\n      add\n      0x00\n      swap1\n      sload\n      swap1\n      0x0100\n      exp\n      swap1\n      div\n      0xff\n      and\n      swap1\n      pop\n      dup4\n      jump\t// out\n        /* \"contracts/MainContract.sol\":833:872  uint[] public nbr=[0,1,2,3,4,5,6,7,8,9] */\n    tag_35:\n      0x04\n      dup2\n      dup2\n      sload\n      dup2\n      lt\n      tag_80\n      jumpi\n      0x00\n      dup1\n      revert\n    tag_80:\n      swap1\n      0x00\n      mstore\n      keccak256(0x00, 0x20)\n      add\n      0x00\n      swap2\n      pop\n      swap1\n      pop\n      sload\n      dup2\n      jump\t// out\n        /* \"contracts/MainContract.sol\":466:543  function checkAge() public{\r... */\n    tag_39:\n        /* \"contracts/MainContract.sol\":509:511  18 */\n      0x12\n        /* \"contracts/MainContract.sol\":502:507  myage */\n      sload(0x01)\n        /* \"contracts/MainContract.sol\":502:511  myage>=18 */\n      lt\n        /* \"contracts/MainContract.sol\":499:539  if(myage>=18)\r... */\n      tag_83\n      jumpi\n        /* \"contracts/MainContract.sol\":518:539  state=\"You are adult\" */\n      mload(0x40)\n      dup1\n      0x40\n      add\n      0x40\n      mstore\n      dup1\n      0x0d\n      dup2\n      mstore\n      0x20\n      add\n      0x596f7520617265206164756c7400000000000000000000000000000000000000\n      dup2\n      mstore\n      pop\n        /* \"contracts/MainContract.sol\":518:523  state */\n      0x02\n        /* \"contracts/MainContract.sol\":518:539  state=\"You are adult\" */\n      swap1\n      dup1\n      mload\n      swap1\n      0x20\n      add\n      swap1\n      tag_84\n      swap3\n      swap2\n      swap1\n      tag_85\n      jump\t// in\n    tag_84:\n      pop\n        /* \"contracts/MainContract.sol\":499:539  if(myage>=18)\r... */\n    tag_83:\n        /* \"contracts/MainContract.sol\":466:543  function checkAge() public{\r... */\n      jump\t// out\n        /* \"contracts/MainContract.sol\":1498:1543  Person public p2=Person(191943,\"salim\",false) */\n    tag_41:\n      0x09\n      dup1\n      0x00\n      add\n      sload\n      swap1\n      dup1\n      0x01\n      add\n      dup1\n      sload\n      tag_86\n      swap1\n      tag_64\n      jump\t// in\n    tag_86:\n      dup1\n      0x1f\n      add\n      0x20\n      dup1\n      swap2\n      div\n      mul\n      0x20\n      add\n      mload(0x40)\n      swap1\n      dup2\n      add\n      0x40\n      mstore\n      dup1\n      swap3\n      swap2\n      swap1\n      dup2\n      dup2\n      mstore\n      0x20\n      add\n      dup3\n      dup1\n      sload\n      tag_87\n      swap1\n      tag_64\n      jump\t// in\n    tag_87:\n      dup1\n      iszero\n      tag_88\n      jumpi\n      dup1\n      0x1f\n      lt\n      tag_89\n      jumpi\n      0x0100\n      dup1\n      dup4\n      sload\n      div\n      mul\n      dup4\n      mstore\n      swap2\n      0x20\n      add\n      swap2\n      jump(tag_88)\n    tag_89:\n      dup3\n      add\n      swap2\n      swap1\n      0x00\n      mstore\n      keccak256(0x00, 0x20)\n      swap1\n    tag_90:\n      dup2\n      sload\n      dup2\n      mstore\n      swap1\n      0x01\n      add\n      swap1\n      0x20\n      add\n      dup1\n      dup4\n      gt\n      tag_90\n      jumpi\n      dup3\n      swap1\n      sub\n      0x1f\n      and\n      dup3\n      add\n      swap2\n    tag_88:\n      pop\n      pop\n      pop\n      pop\n      pop\n      swap1\n      dup1\n      0x02\n      add\n      0x00\n      swap1\n      sload\n      swap1\n      0x0100\n      exp\n      swap1\n      div\n      0xff\n      and\n      swap1\n      pop\n      dup4\n      jump\t// out\n        /* \"contracts/MainContract.sol\":197:217  uint public myage=21 */\n    tag_44:\n      sload(0x01)\n      dup2\n      jump\t// out\n        /* \"contracts/MainContract.sol\":1017:1208  function countNumber() public  view returns(uint){\r... */\n    tag_47:\n        /* \"contracts/MainContract.sol\":1061:1065  uint */\n      0x00\n        /* \"contracts/MainContract.sol\":1073:1083  uint count */\n      dup1\n        /* \"contracts/MainContract.sol\":1084:1085  0 */\n      0x00\n        /* \"contracts/MainContract.sol\":1073:1085  uint count=0 */\n      swap1\n      pop\n        /* \"contracts/MainContract.sol\":1096:1102  uint i */\n      0x00\n        /* \"contracts/MainContract.sol\":1092:1185  for(uint i=0;i<nbr.length;i++){\r... */\n    tag_92:\n        /* \"contracts/MainContract.sol\":1107:1110  nbr */\n      0x04\n        /* \"contracts/MainContract.sol\":1107:1117  nbr.length */\n      dup1\n      sload\n      swap1\n      pop\n        /* \"contracts/MainContract.sol\":1105:1106  i */\n      dup2\n        /* \"contracts/MainContract.sol\":1105:1117  i<nbr.length */\n      lt\n        /* \"contracts/MainContract.sol\":1092:1185  for(uint i=0;i<nbr.length;i++){\r... */\n      iszero\n      tag_93\n      jumpi\n        /* \"contracts/MainContract.sol\":1136:1150  isEven(nbr[i]) */\n      tag_95\n        /* \"contracts/MainContract.sol\":1143:1146  nbr */\n      0x04\n        /* \"contracts/MainContract.sol\":1147:1148  i */\n      dup3\n        /* \"contracts/MainContract.sol\":1143:1149  nbr[i] */\n      dup2\n      sload\n      dup2\n      lt\n      tag_96\n      jumpi\n      tag_97\n      tag_98\n      jump\t// in\n    tag_97:\n    tag_96:\n      swap1\n      0x00\n      mstore\n      keccak256(0x00, 0x20)\n      add\n      sload\n        /* \"contracts/MainContract.sol\":1136:1142  isEven */\n      tag_100\n        /* \"contracts/MainContract.sol\":1136:1150  isEven(nbr[i]) */\n      jump\t// in\n    tag_95:\n        /* \"contracts/MainContract.sol\":1133:1168  if(isEven(nbr[i]))\r... */\n      iszero\n      tag_101\n      jumpi\n        /* \"contracts/MainContract.sol\":1161:1168  count++ */\n      dup2\n      dup1\n      tag_102\n      swap1\n      tag_103\n      jump\t// in\n    tag_102:\n      swap3\n      pop\n      pop\n        /* \"contracts/MainContract.sol\":1133:1168  if(isEven(nbr[i]))\r... */\n    tag_101:\n        /* \"contracts/MainContract.sol\":1118:1121  i++ */\n      dup1\n      dup1\n      tag_104\n      swap1\n      tag_103\n      jump\t// in\n    tag_104:\n      swap2\n      pop\n      pop\n        /* \"contracts/MainContract.sol\":1092:1185  for(uint i=0;i<nbr.length;i++){\r... */\n      jump(tag_92)\n    tag_93:\n      pop\n        /* \"contracts/MainContract.sol\":1199:1204  count */\n      dup1\n        /* \"contracts/MainContract.sol\":1192:1204  return count */\n      swap2\n      pop\n      pop\n        /* \"contracts/MainContract.sol\":1017:1208  function countNumber() public  view returns(uint){\r... */\n      swap1\n      jump\t// out\n        /* \"contracts/MainContract.sol\":642:703  string[] public web3=[\"nft\",\"etherium\",\"blockchaine\",\"dapps\"] */\n    tag_51:\n      0x03\n      dup2\n      dup2\n      sload\n      dup2\n      lt\n      tag_105\n      jumpi\n      0x00\n      dup1\n      revert\n    tag_105:\n      swap1\n      0x00\n      mstore\n      keccak256(0x00, 0x20)\n      add\n      0x00\n      swap2\n      pop\n      swap1\n      pop\n      dup1\n      sload\n      tag_107\n      swap1\n      tag_64\n      jump\t// in\n    tag_107:\n      dup1\n      0x1f\n      add\n      0x20\n      dup1\n      swap2\n      div\n      mul\n      0x20\n      add\n      mload(0x40)\n      swap1\n      dup2\n      add\n      0x40\n      mstore\n      dup1\n      swap3\n      swap2\n      swap1\n      dup2\n      dup2\n      mstore\n      0x20\n      add\n      dup3\n      dup1\n      sload\n      tag_108\n      swap1\n      tag_64\n      jump\t// in\n    tag_108:\n      dup1\n      iszero\n      tag_109\n      jumpi\n      dup1\n      0x1f\n      lt\n      tag_110\n      jumpi\n      0x0100\n      dup1\n      dup4\n      sload\n      div\n      mul\n      dup4\n      mstore\n      swap2\n      0x20\n      add\n      swap2\n      jump(tag_109)\n    tag_110:\n      dup3\n      add\n      swap2\n      swap1\n      0x00\n      mstore\n      keccak256(0x00, 0x20)\n      swap1\n    tag_111:\n      dup2\n      sload\n      dup2\n      mstore\n      swap1\n      0x01\n      add\n      swap1\n      0x20\n      add\n      dup1\n      dup4\n      gt\n      tag_111\n      jumpi\n      dup3\n      swap1\n      sub\n      0x1f\n      and\n      dup3\n      add\n      swap2\n    tag_109:\n      pop\n      pop\n      pop\n      pop\n      pop\n      dup2\n      jump\t// out\n        /* \"contracts/MainContract.sol\":716:792  function getLength() public view returns(uint){\r... */\n    tag_54:\n        /* \"contracts/MainContract.sol\":757:761  uint */\n      0x00\n        /* \"contracts/MainContract.sol\":777:781  web3 */\n      0x03\n        /* \"contracts/MainContract.sol\":777:788  web3.length */\n      dup1\n      sload\n      swap1\n      pop\n        /* \"contracts/MainContract.sol\":769:788  return  web3.length */\n      swap1\n      pop\n        /* \"contracts/MainContract.sol\":716:792  function getLength() public view returns(uint){\r... */\n      swap1\n      jump\t// out\n        /* \"contracts/MainContract.sol\":444:463  string public state */\n    tag_57:\n      0x02\n      dup1\n      sload\n      tag_113\n      swap1\n      tag_64\n      jump\t// in\n    tag_113:\n      dup1\n      0x1f\n      add\n      0x20\n      dup1\n      swap2\n      div\n      mul\n      0x20\n      add\n      mload(0x40)\n      swap1\n      dup2\n      add\n      0x40\n      mstore\n      dup1\n      swap3\n      swap2\n      swap1\n      dup2\n      dup2\n      mstore\n      0x20\n      add\n      dup3\n      dup1\n      sload\n      tag_114\n      swap1\n      tag_64\n      jump\t// in\n    tag_114:\n      dup1\n      iszero\n      tag_115\n      jumpi\n      dup1\n      0x1f\n      lt\n      tag_116\n      jumpi\n      0x0100\n      dup1\n      dup4\n      sload\n      div\n      mul\n      dup4\n      mstore\n      swap2\n      0x20\n      add\n      swap2\n      jump(tag_115)\n    tag_116:\n      dup3\n      add\n      swap2\n      swap1\n      0x00\n      mstore\n      keccak256(0x00, 0x20)\n      swap1\n    tag_117:\n      dup2\n      sload\n      dup2\n      mstore\n      swap1\n      0x01\n      add\n      swap1\n      0x20\n      add\n      dup1\n      dup4\n      gt\n      tag_117\n      jumpi\n      dup3\n      swap1\n      sub\n      0x1f\n      and\n      dup3\n      add\n      swap2\n    tag_115:\n      pop\n      pop\n      pop\n      pop\n      pop\n      dup2\n      jump\t// out\n        /* \"contracts/MainContract.sol\":1454:1495  Person public p1=Person(1234,\"raid\",true) */\n    tag_60:\n      0x06\n      dup1\n      0x00\n      add\n      sload\n      swap1\n      dup1\n      0x01\n      add\n      dup1\n      sload\n      tag_118\n      swap1\n      tag_64\n      jump\t// in\n    tag_118:\n      dup1\n      0x1f\n      add\n      0x20\n      dup1\n      swap2\n      div\n      mul\n      0x20\n      add\n      mload(0x40)\n      swap1\n      dup2\n      add\n      0x40\n      mstore\n      dup1\n      swap3\n      swap2\n      swap1\n      dup2\n      dup2\n      mstore\n      0x20\n      add\n      dup3\n      dup1\n      sload\n      tag_119\n      swap1\n      tag_64\n      jump\t// in\n    tag_119:\n      dup1\n      iszero\n      tag_120\n      jumpi\n      dup1\n      0x1f\n      lt\n      tag_121\n      jumpi\n      0x0100\n      dup1\n      dup4\n      sload\n      div\n      mul\n      dup4\n      mstore\n      swap2\n      0x20\n      add\n      swap2\n      jump(tag_120)\n    tag_121:\n      dup3\n      add\n      swap2\n      swap1\n      0x00\n      mstore\n      keccak256(0x00, 0x20)\n      swap1\n    tag_122:\n      dup2\n      sload\n      dup2\n      mstore\n      swap1\n      0x01\n      add\n      swap1\n      0x20\n      add\n      dup1\n      dup4\n      gt\n      tag_122\n      jumpi\n      dup3\n      swap1\n      sub\n      0x1f\n      and\n      dup3\n      add\n      swap2\n    tag_120:\n      pop\n      pop\n      pop\n      pop\n      pop\n      swap1\n      dup1\n      0x02\n      add\n      0x00\n      swap1\n      sload\n      swap1\n      0x0100\n      exp\n      swap1\n      div\n      0xff\n      and\n      swap1\n      pop\n      dup4\n      jump\t// out\n        /* \"contracts/MainContract.sol\":875:1013  function isEven(uint _n) private pure  returns(bool){ //because i called in the same classe\r... */\n    tag_100:\n        /* \"contracts/MainContract.sol\":922:926  bool */\n      0x00\n        /* \"contracts/MainContract.sol\":977:978  0 */\n      dup1\n        /* \"contracts/MainContract.sol\":974:975  2 */\n      0x02\n        /* \"contracts/MainContract.sol\":971:973  _n */\n      dup4\n        /* \"contracts/MainContract.sol\":971:975  _n%2 */\n      tag_124\n      swap2\n      swap1\n      tag_125\n      jump\t// in\n    tag_124:\n        /* \"contracts/MainContract.sol\":971:978  _n%2==0 */\n      eq\n        /* \"contracts/MainContract.sol\":968:1011  if(_n%2==0) return true;\r... */\n      iszero\n      tag_126\n      jumpi\n        /* \"contracts/MainContract.sol\":987:991  true */\n      0x01\n        /* \"contracts/MainContract.sol\":980:991  return true */\n      swap1\n      pop\n      jump(tag_123)\n        /* \"contracts/MainContract.sol\":968:1011  if(_n%2==0) return true;\r... */\n    tag_126:\n        /* \"contracts/MainContract.sol\":1006:1011  false */\n      0x00\n        /* \"contracts/MainContract.sol\":999:1011  return false */\n      swap1\n      pop\n        /* \"contracts/MainContract.sol\":875:1013  function isEven(uint _n) private pure  returns(bool){ //because i called in the same classe\r... */\n    tag_123:\n      swap2\n      swap1\n      pop\n      jump\t// out\n    tag_85:\n      dup3\n      dup1\n      sload\n      tag_128\n      swap1\n      tag_64\n      jump\t// in\n    tag_128:\n      swap1\n      0x00\n      mstore\n      keccak256(0x00, 0x20)\n      swap1\n      0x1f\n      add\n      0x20\n      swap1\n      div\n      dup2\n      add\n      swap3\n      dup3\n      tag_130\n      jumpi\n      0x00\n      dup6\n      sstore\n      jump(tag_129)\n    tag_130:\n      dup3\n      0x1f\n      lt\n      tag_131\n      jumpi\n      dup1\n      mload\n      not(0xff)\n      and\n      dup4\n      dup1\n      add\n      or\n      dup6\n      sstore\n      jump(tag_129)\n    tag_131:\n      dup3\n      dup1\n      add\n      0x01\n      add\n      dup6\n      sstore\n      dup3\n      iszero\n      tag_129\n      jumpi\n      swap2\n      dup3\n      add\n    tag_132:\n      dup3\n      dup2\n      gt\n      iszero\n      tag_133\n      jumpi\n      dup3\n      mload\n      dup3\n      sstore\n      swap2\n      0x20\n      add\n      swap2\n      swap1\n      0x01\n      add\n      swap1\n      jump(tag_132)\n    tag_133:\n    tag_129:\n      pop\n      swap1\n      pop\n      tag_134\n      swap2\n      swap1\n      tag_135\n      jump\t// in\n    tag_134:\n      pop\n      swap1\n      jump\t// out\n    tag_135:\n    tag_136:\n      dup1\n      dup3\n      gt\n      iszero\n      tag_137\n      jumpi\n      0x00\n      dup2\n      0x00\n      swap1\n      sstore\n      pop\n      0x01\n      add\n      jump(tag_136)\n    tag_137:\n      pop\n      swap1\n      jump\t// out\n        /* \"#utility.yul\":7:146   */\n    tag_139:\n        /* \"#utility.yul\":53:58   */\n      0x00\n        /* \"#utility.yul\":91:97   */\n      dup2\n        /* \"#utility.yul\":78:98   */\n      calldataload\n        /* \"#utility.yul\":69:98   */\n      swap1\n      pop\n        /* \"#utility.yul\":107:140   */\n      tag_141\n        /* \"#utility.yul\":134:139   */\n      dup2\n        /* \"#utility.yul\":107:140   */\n      tag_142\n      jump\t// in\n    tag_141:\n        /* \"#utility.yul\":7:146   */\n      swap3\n      swap2\n      pop\n      pop\n      jump\t// out\n        /* \"#utility.yul\":152:481   */\n    tag_27:\n        /* \"#utility.yul\":211:217   */\n      0x00\n        /* \"#utility.yul\":260:262   */\n      0x20\n        /* \"#utility.yul\":248:257   */\n      dup3\n        /* \"#utility.yul\":239:246   */\n      dup5\n        /* \"#utility.yul\":235:258   */\n      sub\n        /* \"#utility.yul\":231:263   */\n      slt\n        /* \"#utility.yul\":228:347   */\n      iszero\n      tag_144\n      jumpi\n        /* \"#utility.yul\":266:345   */\n      tag_145\n      tag_146\n      jump\t// in\n    tag_145:\n        /* \"#utility.yul\":228:347   */\n    tag_144:\n        /* \"#utility.yul\":386:387   */\n      0x00\n        /* \"#utility.yul\":411:464   */\n      tag_147\n        /* \"#utility.yul\":456:463   */\n      dup5\n        /* \"#utility.yul\":447:453   */\n      dup3\n        /* \"#utility.yul\":436:445   */\n      dup6\n        /* \"#utility.yul\":432:454   */\n      add\n        /* \"#utility.yul\":411:464   */\n      tag_139\n      jump\t// in\n    tag_147:\n        /* \"#utility.yul\":401:464   */\n      swap2\n      pop\n        /* \"#utility.yul\":357:474   */\n      pop\n        /* \"#utility.yul\":152:481   */\n      swap3\n      swap2\n      pop\n      pop\n      jump\t// out\n        /* \"#utility.yul\":487:596   */\n    tag_148:\n        /* \"#utility.yul\":568:589   */\n      tag_150\n        /* \"#utility.yul\":583:588   */\n      dup2\n        /* \"#utility.yul\":568:589   */\n      tag_151\n      jump\t// in\n    tag_150:\n        /* \"#utility.yul\":563:566   */\n      dup3\n        /* \"#utility.yul\":556:590   */\n      mstore\n        /* \"#utility.yul\":487:596   */\n      pop\n      pop\n      jump\t// out\n        /* \"#utility.yul\":602:966   */\n    tag_152:\n        /* \"#utility.yul\":690:693   */\n      0x00\n        /* \"#utility.yul\":718:757   */\n      tag_154\n        /* \"#utility.yul\":751:756   */\n      dup3\n        /* \"#utility.yul\":718:757   */\n      tag_155\n      jump\t// in\n    tag_154:\n        /* \"#utility.yul\":773:844   */\n      tag_156\n        /* \"#utility.yul\":837:843   */\n      dup2\n        /* \"#utility.yul\":832:835   */\n      dup6\n        /* \"#utility.yul\":773:844   */\n      tag_157\n      jump\t// in\n    tag_156:\n        /* \"#utility.yul\":766:844   */\n      swap4\n      pop\n        /* \"#utility.yul\":853:905   */\n      tag_158\n        /* \"#utility.yul\":898:904   */\n      dup2\n        /* \"#utility.yul\":893:896   */\n      dup6\n        /* \"#utility.yul\":886:890   */\n      0x20\n        /* \"#utility.yul\":879:884   */\n      dup7\n        /* \"#utility.yul\":875:891   */\n      add\n        /* \"#utility.yul\":853:905   */\n      tag_159\n      jump\t// in\n    tag_158:\n        /* \"#utility.yul\":930:959   */\n      tag_160\n        /* \"#utility.yul\":952:958   */\n      dup2\n        /* \"#utility.yul\":930:959   */\n      tag_161\n      jump\t// in\n    tag_160:\n        /* \"#utility.yul\":925:928   */\n      dup5\n        /* \"#utility.yul\":921:960   */\n      add\n        /* \"#utility.yul\":914:960   */\n      swap2\n      pop\n        /* \"#utility.yul\":694:966   */\n      pop\n        /* \"#utility.yul\":602:966   */\n      swap3\n      swap2\n      pop\n      pop\n      jump\t// out\n        /* \"#utility.yul\":972:1090   */\n    tag_162:\n        /* \"#utility.yul\":1059:1083   */\n      tag_164\n        /* \"#utility.yul\":1077:1082   */\n      dup2\n        /* \"#utility.yul\":1059:1083   */\n      tag_165\n      jump\t// in\n    tag_164:\n        /* \"#utility.yul\":1054:1057   */\n      dup3\n        /* \"#utility.yul\":1047:1084   */\n      mstore\n        /* \"#utility.yul\":972:1090   */\n      pop\n      pop\n      jump\t// out\n        /* \"#utility.yul\":1096:1409   */\n    tag_21:\n        /* \"#utility.yul\":1209:1213   */\n      0x00\n        /* \"#utility.yul\":1247:1249   */\n      0x20\n        /* \"#utility.yul\":1236:1245   */\n      dup3\n        /* \"#utility.yul\":1232:1250   */\n      add\n        /* \"#utility.yul\":1224:1250   */\n      swap1\n      pop\n        /* \"#utility.yul\":1296:1305   */\n      dup2\n        /* \"#utility.yul\":1290:1294   */\n      dup2\n        /* \"#utility.yul\":1286:1306   */\n      sub\n        /* \"#utility.yul\":1282:1283   */\n      0x00\n        /* \"#utility.yul\":1271:1280   */\n      dup4\n        /* \"#utility.yul\":1267:1284   */\n      add\n        /* \"#utility.yul\":1260:1307   */\n      mstore\n        /* \"#utility.yul\":1324:1402   */\n      tag_167\n        /* \"#utility.yul\":1397:1401   */\n      dup2\n        /* \"#utility.yul\":1388:1394   */\n      dup5\n        /* \"#utility.yul\":1324:1402   */\n      tag_152\n      jump\t// in\n    tag_167:\n        /* \"#utility.yul\":1316:1402   */\n      swap1\n      pop\n        /* \"#utility.yul\":1096:1409   */\n      swap3\n      swap2\n      pop\n      pop\n      jump\t// out\n        /* \"#utility.yul\":1415:1637   */\n    tag_37:\n        /* \"#utility.yul\":1508:1512   */\n      0x00\n        /* \"#utility.yul\":1546:1548   */\n      0x20\n        /* \"#utility.yul\":1535:1544   */\n      dup3\n        /* \"#utility.yul\":1531:1549   */\n      add\n        /* \"#utility.yul\":1523:1549   */\n      swap1\n      pop\n        /* \"#utility.yul\":1559:1630   */\n      tag_169\n        /* \"#utility.yul\":1627:1628   */\n      0x00\n        /* \"#utility.yul\":1616:1625   */\n      dup4\n        /* \"#utility.yul\":1612:1629   */\n      add\n        /* \"#utility.yul\":1603:1609   */\n      dup5\n        /* \"#utility.yul\":1559:1630   */\n      tag_162\n      jump\t// in\n    tag_169:\n        /* \"#utility.yul\":1415:1637   */\n      swap3\n      swap2\n      pop\n      pop\n      jump\t// out\n        /* \"#utility.yul\":1643:2164   */\n    tag_32:\n        /* \"#utility.yul\":1806:1810   */\n      0x00\n        /* \"#utility.yul\":1844:1846   */\n      0x60\n        /* \"#utility.yul\":1833:1842   */\n      dup3\n        /* \"#utility.yul\":1829:1847   */\n      add\n        /* \"#utility.yul\":1821:1847   */\n      swap1\n      pop\n        /* \"#utility.yul\":1857:1928   */\n      tag_171\n        /* \"#utility.yul\":1925:1926   */\n      0x00\n        /* \"#utility.yul\":1914:1923   */\n      dup4\n        /* \"#utility.yul\":1910:1927   */\n      add\n        /* \"#utility.yul\":1901:1907   */\n      dup7\n        /* \"#utility.yul\":1857:1928   */\n      tag_162\n      jump\t// in\n    tag_171:\n        /* \"#utility.yul\":1975:1984   */\n      dup2\n        /* \"#utility.yul\":1969:1973   */\n      dup2\n        /* \"#utility.yul\":1965:1985   */\n      sub\n        /* \"#utility.yul\":1960:1962   */\n      0x20\n        /* \"#utility.yul\":1949:1958   */\n      dup4\n        /* \"#utility.yul\":1945:1963   */\n      add\n        /* \"#utility.yul\":1938:1986   */\n      mstore\n        /* \"#utility.yul\":2003:2081   */\n      tag_172\n        /* \"#utility.yul\":2076:2080   */\n      dup2\n        /* \"#utility.yul\":2067:2073   */\n      dup6\n        /* \"#utility.yul\":2003:2081   */\n      tag_152\n      jump\t// in\n    tag_172:\n        /* \"#utility.yul\":1995:2081   */\n      swap1\n      pop\n        /* \"#utility.yul\":2091:2157   */\n      tag_173\n        /* \"#utility.yul\":2153:2155   */\n      0x40\n        /* \"#utility.yul\":2142:2151   */\n      dup4\n        /* \"#utility.yul\":2138:2156   */\n      add\n        /* \"#utility.yul\":2129:2135   */\n      dup5\n        /* \"#utility.yul\":2091:2157   */\n      tag_148\n      jump\t// in\n    tag_173:\n        /* \"#utility.yul\":1643:2164   */\n      swap5\n      swap4\n      pop\n      pop\n      pop\n      pop\n      jump\t// out\n        /* \"#utility.yul\":2251:2350   */\n    tag_155:\n        /* \"#utility.yul\":2303:2309   */\n      0x00\n        /* \"#utility.yul\":2337:2342   */\n      dup2\n        /* \"#utility.yul\":2331:2343   */\n      mload\n        /* \"#utility.yul\":2321:2343   */\n      swap1\n      pop\n        /* \"#utility.yul\":2251:2350   */\n      swap2\n      swap1\n      pop\n      jump\t// out\n        /* \"#utility.yul\":2356:2525   */\n    tag_157:\n        /* \"#utility.yul\":2440:2451   */\n      0x00\n        /* \"#utility.yul\":2474:2480   */\n      dup3\n        /* \"#utility.yul\":2469:2472   */\n      dup3\n        /* \"#utility.yul\":2462:2481   */\n      mstore\n        /* \"#utility.yul\":2514:2518   */\n      0x20\n        /* \"#utility.yul\":2509:2512   */\n      dup3\n        /* \"#utility.yul\":2505:2519   */\n      add\n        /* \"#utility.yul\":2490:2519   */\n      swap1\n      pop\n        /* \"#utility.yul\":2356:2525   */\n      swap3\n      swap2\n      pop\n      pop\n      jump\t// out\n        /* \"#utility.yul\":2531:2621   */\n    tag_151:\n        /* \"#utility.yul\":2565:2572   */\n      0x00\n        /* \"#utility.yul\":2608:2613   */\n      dup2\n        /* \"#utility.yul\":2601:2614   */\n      iszero\n        /* \"#utility.yul\":2594:2615   */\n      iszero\n        /* \"#utility.yul\":2583:2615   */\n      swap1\n      pop\n        /* \"#utility.yul\":2531:2621   */\n      swap2\n      swap1\n      pop\n      jump\t// out\n        /* \"#utility.yul\":2627:2704   */\n    tag_165:\n        /* \"#utility.yul\":2664:2671   */\n      0x00\n        /* \"#utility.yul\":2693:2698   */\n      dup2\n        /* \"#utility.yul\":2682:2698   */\n      swap1\n      pop\n        /* \"#utility.yul\":2627:2704   */\n      swap2\n      swap1\n      pop\n      jump\t// out\n        /* \"#utility.yul\":2710:3017   */\n    tag_159:\n        /* \"#utility.yul\":2778:2779   */\n      0x00\n        /* \"#utility.yul\":2788:2901   */\n    tag_181:\n        /* \"#utility.yul\":2802:2808   */\n      dup4\n        /* \"#utility.yul\":2799:2800   */\n      dup2\n        /* \"#utility.yul\":2796:2809   */\n      lt\n        /* \"#utility.yul\":2788:2901   */\n      iszero\n      tag_183\n      jumpi\n        /* \"#utility.yul\":2887:2888   */\n      dup1\n        /* \"#utility.yul\":2882:2885   */\n      dup3\n        /* \"#utility.yul\":2878:2889   */\n      add\n        /* \"#utility.yul\":2872:2890   */\n      mload\n        /* \"#utility.yul\":2868:2869   */\n      dup2\n        /* \"#utility.yul\":2863:2866   */\n      dup5\n        /* \"#utility.yul\":2859:2870   */\n      add\n        /* \"#utility.yul\":2852:2891   */\n      mstore\n        /* \"#utility.yul\":2824:2826   */\n      0x20\n        /* \"#utility.yul\":2821:2822   */\n      dup2\n        /* \"#utility.yul\":2817:2827   */\n      add\n        /* \"#utility.yul\":2812:2827   */\n      swap1\n      pop\n        /* \"#utility.yul\":2788:2901   */\n      jump(tag_181)\n    tag_183:\n        /* \"#utility.yul\":2919:2925   */\n      dup4\n        /* \"#utility.yul\":2916:2917   */\n      dup2\n        /* \"#utility.yul\":2913:2926   */\n      gt\n        /* \"#utility.yul\":2910:3011   */\n      iszero\n      tag_184\n      jumpi\n        /* \"#utility.yul\":2999:3000   */\n      0x00\n        /* \"#utility.yul\":2990:2996   */\n      dup5\n        /* \"#utility.yul\":2985:2988   */\n      dup5\n        /* \"#utility.yul\":2981:2997   */\n      add\n        /* \"#utility.yul\":2974:3001   */\n      mstore\n        /* \"#utility.yul\":2910:3011   */\n    tag_184:\n        /* \"#utility.yul\":2759:3017   */\n      pop\n        /* \"#utility.yul\":2710:3017   */\n      pop\n      pop\n      pop\n      jump\t// out\n        /* \"#utility.yul\":3023:3343   */\n    tag_64:\n        /* \"#utility.yul\":3067:3073   */\n      0x00\n        /* \"#utility.yul\":3104:3105   */\n      0x02\n        /* \"#utility.yul\":3098:3102   */\n      dup3\n        /* \"#utility.yul\":3094:3106   */\n      div\n        /* \"#utility.yul\":3084:3106   */\n      swap1\n      pop\n        /* \"#utility.yul\":3151:3152   */\n      0x01\n        /* \"#utility.yul\":3145:3149   */\n      dup3\n        /* \"#utility.yul\":3141:3153   */\n      and\n        /* \"#utility.yul\":3172:3190   */\n      dup1\n        /* \"#utility.yul\":3162:3243   */\n      tag_186\n      jumpi\n        /* \"#utility.yul\":3228:3232   */\n      0x7f\n        /* \"#utility.yul\":3220:3226   */\n      dup3\n        /* \"#utility.yul\":3216:3233   */\n      and\n        /* \"#utility.yul\":3206:3233   */\n      swap2\n      pop\n        /* \"#utility.yul\":3162:3243   */\n    tag_186:\n        /* \"#utility.yul\":3290:3292   */\n      0x20\n        /* \"#utility.yul\":3282:3288   */\n      dup3\n        /* \"#utility.yul\":3279:3293   */\n      lt\n        /* \"#utility.yul\":3259:3277   */\n      dup2\n        /* \"#utility.yul\":3256:3294   */\n      eq\n        /* \"#utility.yul\":3253:3337   */\n      iszero\n      tag_187\n      jumpi\n        /* \"#utility.yul\":3309:3327   */\n      tag_188\n      tag_189\n      jump\t// in\n    tag_188:\n        /* \"#utility.yul\":3253:3337   */\n    tag_187:\n        /* \"#utility.yul\":3074:3343   */\n      pop\n        /* \"#utility.yul\":3023:3343   */\n      swap2\n      swap1\n      pop\n      jump\t// out\n        /* \"#utility.yul\":3349:3582   */\n    tag_103:\n        /* \"#utility.yul\":3388:3391   */\n      0x00\n        /* \"#utility.yul\":3411:3435   */\n      tag_191\n        /* \"#utility.yul\":3429:3434   */\n      dup3\n        /* \"#utility.yul\":3411:3435   */\n      tag_165\n      jump\t// in\n    tag_191:\n        /* \"#utility.yul\":3402:3435   */\n      swap2\n      pop\n        /* \"#utility.yul\":3457:3523   */\n      0xffffffffffffffffffffffffffffffffffffffffffffffffffffffffffffffff\n        /* \"#utility.yul\":3450:3455   */\n      dup3\n        /* \"#utility.yul\":3447:3524   */\n      eq\n        /* \"#utility.yul\":3444:3547   */\n      iszero\n      tag_192\n      jumpi\n        /* \"#utility.yul\":3527:3545   */\n      tag_193\n      tag_194\n      jump\t// in\n    tag_193:\n        /* \"#utility.yul\":3444:3547   */\n    tag_192:\n        /* \"#utility.yul\":3574:3575   */\n      0x01\n        /* \"#utility.yul\":3567:3572   */\n      dup3\n        /* \"#utility.yul\":3563:3576   */\n      add\n        /* \"#utility.yul\":3556:3576   */\n      swap1\n      pop\n        /* \"#utility.yul\":3349:3582   */\n      swap2\n      swap1\n      pop\n      jump\t// out\n        /* \"#utility.yul\":3588:3764   */\n    tag_125:\n        /* \"#utility.yul\":3620:3621   */\n      0x00\n        /* \"#utility.yul\":3637:3657   */\n      tag_196\n        /* \"#utility.yul\":3655:3656   */\n      dup3\n        /* \"#utility.yul\":3637:3657   */\n      tag_165\n      jump\t// in\n    tag_196:\n        /* \"#utility.yul\":3632:3657   */\n      swap2\n      pop\n        /* \"#utility.yul\":3671:3691   */\n      tag_197\n        /* \"#utility.yul\":3689:3690   */\n      dup4\n        /* \"#utility.yul\":3671:3691   */\n      tag_165\n      jump\t// in\n    tag_197:\n        /* \"#utility.yul\":3666:3691   */\n      swap3\n      pop\n        /* \"#utility.yul\":3710:3711   */\n      dup3\n        /* \"#utility.yul\":3700:3735   */\n      tag_198\n      jumpi\n        /* \"#utility.yul\":3715:3733   */\n      tag_199\n      tag_200\n      jump\t// in\n    tag_199:\n        /* \"#utility.yul\":3700:3735   */\n    tag_198:\n        /* \"#utility.yul\":3756:3757   */\n      dup3\n        /* \"#utility.yul\":3753:3754   */\n      dup3\n        /* \"#utility.yul\":3749:3758   */\n      mod\n        /* \"#utility.yul\":3744:3758   */\n      swap1\n      pop\n        /* \"#utility.yul\":3588:3764   */\n      swap3\n      swap2\n      pop\n      pop\n      jump\t// out\n        /* \"#utility.yul\":3770:3950   */\n    tag_194:\n        /* \"#utility.yul\":3818:3895   */\n      0x4e487b7100000000000000000000000000000000000000000000000000000000\n        /* \"#utility.yul\":3815:3816   */\n      0x00\n        /* \"#utility.yul\":3808:3896   */\n      mstore\n        /* \"#utility.yul\":3915:3919   */\n      0x11\n        /* \"#utility.yul\":3912:3913   */\n      0x04\n        /* \"#utility.yul\":3905:3920   */\n      mstore\n        /* \"#utility.yul\":3939:3943   */\n      0x24\n        /* \"#utility.yul\":3936:3937   */\n      0x00\n        /* \"#utility.yul\":3929:3944   */\n      revert\n        /* \"#utility.yul\":3956:4136   */\n    tag_200:\n        /* \"#utility.yul\":4004:4081   */\n      0x4e487b7100000000000000000000000000000000000000000000000000000000\n        /* \"#utility.yul\":4001:4002   */\n      0x00\n        /* \"#utility.yul\":3994:4082   */\n      mstore\n        /* \"#utility.yul\":4101:4105   */\n      0x12\n        /* \"#utility.yul\":4098:4099   */\n      0x04\n        /* \"#utility.yul\":4091:4106   */\n      mstore\n        /* \"#utility.yul\":4125:4129   */\n      0x24\n        /* \"#utility.yul\":4122:4123   */\n      0x00\n        /* \"#utility.yul\":4115:4130   */\n      revert\n        /* \"#utility.yul\":4142:4322   */\n    tag_189:\n        /* \"#utility.yul\":4190:4267   */\n      0x4e487b7100000000000000000000000000000000000000000000000000000000\n        /* \"#utility.yul\":4187:4188   */\n      0x00\n        /* \"#utility.yul\":4180:4268   */\n      mstore\n        /* \"#utility.yul\":4287:4291   */\n      0x22\n        /* \"#utility.yul\":4284:4285   */\n      0x04\n        /* \"#utility.yul\":4277:4292   */\n      mstore\n        /* \"#utility.yul\":4311:4315   */\n      0x24\n        /* \"#utility.yul\":4308:4309   */\n      0x00\n        /* \"#utility.yul\":4301:4316   */\n      revert\n        /* \"#utility.yul\":4328:4508   */\n    tag_98:\n        /* \"#utility.yul\":4376:4453   */\n      0x4e487b7100000000000000000000000000000000000000000000000000000000\n        /* \"#utility.yul\":4373:4374   */\n      0x00\n        /* \"#utility.yul\":4366:4454   */\n      mstore\n        /* \"#utility.yul\":4473:4477   */\n      0x32\n        /* \"#utility.yul\":4470:4471   */\n      0x04\n        /* \"#utility.yul\":4463:4478   */\n      mstore\n        /* \"#utility.yul\":4497:4501   */\n      0x24\n        /* \"#utility.yul\":4494:4495   */\n      0x00\n        /* \"#utility.yul\":4487:4502   */\n      revert\n        /* \"#utility.yul\":4637:4754   */\n    tag_146:\n        /* \"#utility.yul\":4746:4747   */\n      0x00\n        /* \"#utility.yul\":4743:4744   */\n      dup1\n        /* \"#utility.yul\":4736:4748   */\n      revert\n        /* \"#utility.yul\":4760:4862   */\n    tag_161:\n        /* \"#utility.yul\":4801:4807   */\n      0x00\n        /* \"#utility.yul\":4852:4854   */\n      0x1f\n        /* \"#utility.yul\":4848:4855   */\n      not\n        /* \"#utility.yul\":4843:4845   */\n      0x1f\n        /* \"#utility.yul\":4836:4841   */\n      dup4\n        /* \"#utility.yul\":4832:4846   */\n      add\n        /* \"#utility.yul\":4828:4856   */\n      and\n        /* \"#utility.yul\":4818:4856   */\n      swap1\n      pop\n        /* \"#utility.yul\":4760:4862   */\n      swap2\n      swap1\n      pop\n      jump\t// out\n        /* \"#utility.yul\":4868:4990   */\n    tag_142:\n        /* \"#utility.yul\":4941:4965   */\n      tag_210\n        /* \"#utility.yul\":4959:4964   */\n      dup2\n        /* \"#utility.yul\":4941:4965   */\n      tag_165\n      jump\t// in\n    tag_210:\n        /* \"#utility.yul\":4934:4939   */\n      dup2\n        /* \"#utility.yul\":4931:4966   */\n      eq\n        /* \"#utility.yul\":4921:4984   */\n      tag_211\n      jumpi\n        /* \"#utility.yul\":4980:4981   */\n      0x00\n        /* \"#utility.yul\":4977:4978   */\n      dup1\n        /* \"#utility.yul\":4970:4982   */\n      revert\n        /* \"#utility.yul\":4921:4984   */\n    tag_211:\n        /* \"#utility.yul\":4868:4990   */\n      pop\n      jump\t// out\n\n    auxdata: 0xa2646970667358221220b0aead0f6e293738a53951adbb720d87b4f6610c30d7710bd72ff80a4a2ca93664736f6c63430008070033\n}\n",
				"bytecode": {
					"linkReferences": {},
					"object": "60806040526040518060400160405280601981526020017f68656c6c6f20736f6c696469747920646576656c6f706572200000000000000081525060009080519060200190620000519291906200042a565b50601560015560405180608001604052806040518060400160405280600381526020017f6e6674000000000000000000000000000000000000000000000000000000000081525081526020016040518060400160405280600881526020017f657468657269756d00000000000000000000000000000000000000000000000081525081526020016040518060400160405280600b81526020017f626c6f636b636861696e6500000000000000000000000000000000000000000081525081526020016040518060400160405280600581526020017f646170707300000000000000000000000000000000000000000000000000000081525081525060039060046200015e929190620004bb565b50604051806101400160405280600060ff168152602001600160ff168152602001600260ff168152602001600360ff168152602001600460ff168152602001600560ff168152602001600660ff168152602001600760ff168152602001600860ff168152602001600960ff16815250600490600a620001df92919062000522565b506040518060400160405280600881526020017f6465766c6f706572000000000000000000000000000000000000000000000000815250600590805190602001906200022d9291906200042a565b5060405180606001604052806104d281526020016040518060400160405280600481526020017f72616964000000000000000000000000000000000000000000000000000000008152508152602001600115158152506006600082015181600001556020820151816001019080519060200190620002ad9291906200042a565b5060408201518160020160006101000a81548160ff021916908315150217905550505060405180606001604052806202edc781526020016040518060400160405280600581526020017f73616c696d0000000000000000000000000000000000000000000000000000008152508152602001600015158152506009600082015181600001556020820151816001019080519060200190620003509291906200042a565b5060408201518160020160006101000a81548160ff021916908315150217905550505060405180606001604052806202edc781526020016040518060400160405280600581526020017f73616c696d000000000000000000000000000000000000000000000000000000815250815260200160001515815250600c600082015181600001556020820151816001019080519060200190620003f39291906200042a565b5060408201518160020160006101000a81548160ff02191690831515021790555050503480156200042357600080fd5b506200066b565b828054620004389062000606565b90600052602060002090601f0160209004810192826200045c5760008555620004a8565b82601f106200047757805160ff1916838001178555620004a8565b82800160010185558215620004a8579182015b82811115620004a75782518255916020019190600101906200048a565b5b509050620004b7919062000579565b5090565b8280548282559060005260206000209081019282156200050f579160200282015b828111156200050e578251829080519060200190620004fd9291906200042a565b5091602001919060010190620004dc565b5b5090506200051e919062000598565b5090565b82805482825590600052602060002090810192821562000566579160200282015b8281111562000565578251829060ff1690559160200191906001019062000543565b5b50905062000575919062000579565b5090565b5b80821115620005945760008160009055506001016200057a565b5090565b5b80821115620005bc5760008181620005b29190620005c0565b5060010162000599565b5090565b508054620005ce9062000606565b6000825580601f10620005e2575062000603565b601f01602090049060005260206000209081019062000602919062000579565b5b50565b600060028204905060018216806200061f57607f821691505b602082108114156200063657620006356200063c565b5b50919050565b7f4e487b7100000000000000000000000000000000000000000000000000000000600052602260045260246000fd5b610be6806200067b6000396000f3fe608060405234801561001057600080fd5b50600436106100cf5760003560e01c806381d01ed31161008c5780639c1f8ae0116100665780639c1f8ae0146101e2578063be1c766b14610212578063c19d93fb14610230578063c2a2747b1461024e576100cf565b806381d01ed314610186578063951578af146101a657806395ccb57c146101c4576100cf565b806317d7de7c146100d457806319ff1d21146100f257806329f3901e146101105780636e2196671461012c57806372a818de1461014c578063741983c01461017c575b600080fd5b6100dc61026e565b6040516100e9919061093b565b60405180910390f35b6100fa610300565b604051610107919061093b565b60405180910390f35b61012a600480360381019061012591906108b7565b61038e565b005b610134610398565b60405161014393929190610978565b60405180910390f35b610166600480360381019061016191906108b7565b610445565b604051610173919061095d565b60405180910390f35b610184610469565b005b61018e6104c2565b60405161019d93929190610978565b60405180910390f35b6101ae61056f565b6040516101bb919061095d565b60405180910390f35b6101cc610575565b6040516101d9919061095d565b60405180910390f35b6101fc60048036038101906101f791906108b7565b6105e2565b604051610209919061093b565b60405180910390f35b61021a61068e565b604051610227919061095d565b60405180910390f35b61023861069b565b604051610245919061093b565b60405180910390f35b610256610729565b60405161026593929190610978565b60405180910390f35b60606005805461027d90610a1b565b80601f01602080910402602001604051908101604052809291908181526020018280546102a990610a1b565b80156102f65780601f106102cb576101008083540402835291602001916102f6565b820191906000526020600020905b8154815290600101906020018083116102d957829003601f168201915b5050505050905090565b6000805461030d90610a1b565b80601f016020809104026020016040519081016040528092919081815260200182805461033990610a1b565b80156103865780601f1061035b57610100808354040283529160200191610386565b820191906000526020600020905b81548152906001019060200180831161036957829003601f168201915b505050505081565b8060018190555050565b600c8060000154908060010180546103af90610a1b565b80601f01602080910402602001604051908101604052809291908181526020018280546103db90610a1b565b80156104285780601f106103fd57610100808354040283529160200191610428565b820191906000526020600020905b81548152906001019060200180831161040b57829003601f168201915b5050505050908060020160009054906101000a900460ff16905083565b6004818154811061045557600080fd5b906000526020600020016000915090505481565b6012600154106104c0576040518060400160405280600d81526020017f596f7520617265206164756c7400000000000000000000000000000000000000815250600290805190602001906104be9291906107ff565b505b565b60098060000154908060010180546104d990610a1b565b80601f016020809104026020016040519081016040528092919081815260200182805461050590610a1b565b80156105525780601f1061052757610100808354040283529160200191610552565b820191906000526020600020905b81548152906001019060200180831161053557829003601f168201915b5050505050908060020160009054906101000a900460ff16905083565b60015481565b6000806000905060005b6004805490508110156105da576105b3600482815481106105a3576105a2610b54565b5b90600052602060002001546107d6565b156105c75781806105c390610a4d565b9250505b80806105d290610a4d565b91505061057f565b508091505090565b600381815481106105f257600080fd5b90600052602060002001600091509050805461060d90610a1b565b80601f016020809104026020016040519081016040528092919081815260200182805461063990610a1b565b80156106865780601f1061065b57610100808354040283529160200191610686565b820191906000526020600020905b81548152906001019060200180831161066957829003601f168201915b505050505081565b6000600380549050905090565b600280546106a890610a1b565b80601f01602080910402602001604051908101604052809291908181526020018280546106d490610a1b565b80156107215780601f106106f657610100808354040283529160200191610721565b820191906000526020600020905b81548152906001019060200180831161070457829003601f168201915b505050505081565b600680600001549080600101805461074090610a1b565b80601f016020809104026020016040519081016040528092919081815260200182805461076c90610a1b565b80156107b95780601f1061078e576101008083540402835291602001916107b9565b820191906000526020600020905b81548152906001019060200180831161079c57829003601f168201915b5050505050908060020160009054906101000a900460ff16905083565b6000806002836107e69190610a96565b14156107f557600190506107fa565b600090505b919050565b82805461080b90610a1b565b90600052602060002090601f01602090048101928261082d5760008555610874565b82601f1061084657805160ff1916838001178555610874565b82800160010185558215610874579182015b82811115610873578251825591602001919060010190610858565b5b5090506108819190610885565b5090565b5b8082111561089e576000816000905550600101610886565b5090565b6000813590506108b181610b99565b92915050565b6000602082840312156108cd576108cc610b83565b5b60006108db848285016108a2565b91505092915050565b6108ed816109d2565b82525050565b60006108fe826109b6565b61090881856109c1565b93506109188185602086016109e8565b61092181610b88565b840191505092915050565b610935816109de565b82525050565b6000602082019050818103600083015261095581846108f3565b905092915050565b6000602082019050610972600083018461092c565b92915050565b600060608201905061098d600083018661092c565b818103602083015261099f81856108f3565b90506109ae60408301846108e4565b949350505050565b600081519050919050565b600082825260208201905092915050565b60008115159050919050565b6000819050919050565b60005b83811015610a065780820151818401526020810190506109eb565b83811115610a15576000848401525b50505050565b60006002820490506001821680610a3357607f821691505b60208210811415610a4757610a46610b25565b5b50919050565b6000610a58826109de565b91507fffffffffffffffffffffffffffffffffffffffffffffffffffffffffffffffff821415610a8b57610a8a610ac7565b5b600182019050919050565b6000610aa1826109de565b9150610aac836109de565b925082610abc57610abb610af6565b5b828206905092915050565b7f4e487b7100000000000000000000000000000000000000000000000000000000600052601160045260246000fd5b7f4e487b7100000000000000000000000000000000000000000000000000000000600052601260045260246000fd5b7f4e487b7100000000000000000000000000000000000000000000000000000000600052602260045260246000fd5b7f4e487b7100000000000000000000000000000000000000000000000000000000600052603260045260246000fd5b600080fd5b6000601f19601f8301169050919050565b610ba2816109de565b8114610bad57600080fd5b5056fea2646970667358221220b0aead0f6e293738a53951adbb720d87b4f6610c30d7710bd72ff80a4a2ca93664736f6c63430008070033",
					"opcodes": "PUSH1 0x80 PUSH1 0x40 MSTORE PUSH1 0x40 MLOAD DUP1 PUSH1 0x40 ADD PUSH1 0x40 MSTORE DUP1 PUSH1 0x19 DUP2 MSTORE PUSH1 0x20 ADD PUSH32 0x68656C6C6F20736F6C696469747920646576656C6F7065722000000000000000 DUP2 MSTORE POP PUSH1 0x0 SWAP1 DUP1 MLOAD SWAP1 PUSH1 0x20 ADD SWAP1 PUSH3 0x51 SWAP3 SWAP2 SWAP1 PUSH3 0x42A JUMP JUMPDEST POP PUSH1 0x15 PUSH1 0x1 SSTORE PUSH1 0x40 MLOAD DUP1 PUSH1 0x80 ADD PUSH1 0x40 MSTORE DUP1 PUSH1 0x40 MLOAD DUP1 PUSH1 0x40 ADD PUSH1 0x40 MSTORE DUP1 PUSH1 0x3 DUP2 MSTORE PUSH1 0x20 ADD PUSH32 0x6E66740000000000000000000000000000000000000000000000000000000000 DUP2 MSTORE POP DUP2 MSTORE PUSH1 0x20 ADD PUSH1 0x40 MLOAD DUP1 PUSH1 0x40 ADD PUSH1 0x40 MSTORE DUP1 PUSH1 0x8 DUP2 MSTORE PUSH1 0x20 ADD PUSH32 0x657468657269756D000000000000000000000000000000000000000000000000 DUP2 MSTORE POP DUP2 MSTORE PUSH1 0x20 ADD PUSH1 0x40 MLOAD DUP1 PUSH1 0x40 ADD PUSH1 0x40 MSTORE DUP1 PUSH1 0xB DUP2 MSTORE PUSH1 0x20 ADD PUSH32 0x626C6F636B636861696E65000000000000000000000000000000000000000000 DUP2 MSTORE POP DUP2 MSTORE PUSH1 0x20 ADD PUSH1 0x40 MLOAD DUP1 PUSH1 0x40 ADD PUSH1 0x40 MSTORE DUP1 PUSH1 0x5 DUP2 MSTORE PUSH1 0x20 ADD PUSH32 0x6461707073000000000000000000000000000000000000000000000000000000 DUP2 MSTORE POP DUP2 MSTORE POP PUSH1 0x3 SWAP1 PUSH1 0x4 PUSH3 0x15E SWAP3 SWAP2 SWAP1 PUSH3 0x4BB JUMP JUMPDEST POP PUSH1 0x40 MLOAD DUP1 PUSH2 0x140 ADD PUSH1 0x40 MSTORE DUP1 PUSH1 0x0 PUSH1 0xFF AND DUP2 MSTORE PUSH1 0x20 ADD PUSH1 0x1 PUSH1 0xFF AND DUP2 MSTORE PUSH1 0x20 ADD PUSH1 0x2 PUSH1 0xFF AND DUP2 MSTORE PUSH1 0x20 ADD PUSH1 0x3 PUSH1 0xFF AND DUP2 MSTORE PUSH1 0x20 ADD PUSH1 0x4 PUSH1 0xFF AND DUP2 MSTORE PUSH1 0x20 ADD PUSH1 0x5 PUSH1 0xFF AND DUP2 MSTORE PUSH1 0x20 ADD PUSH1 0x6 PUSH1 0xFF AND DUP2 MSTORE PUSH1 0x20 ADD PUSH1 0x7 PUSH1 0xFF AND DUP2 MSTORE PUSH1 0x20 ADD PUSH1 0x8 PUSH1 0xFF AND DUP2 MSTORE PUSH1 0x20 ADD PUSH1 0x9 PUSH1 0xFF AND DUP2 MSTORE POP PUSH1 0x4 SWAP1 PUSH1 0xA PUSH3 0x1DF SWAP3 SWAP2 SWAP1 PUSH3 0x522 JUMP JUMPDEST POP PUSH1 0x40 MLOAD DUP1 PUSH1 0x40 ADD PUSH1 0x40 MSTORE DUP1 PUSH1 0x8 DUP2 MSTORE PUSH1 0x20 ADD PUSH32 0x6465766C6F706572000000000000000000000000000000000000000000000000 DUP2 MSTORE POP PUSH1 0x5 SWAP1 DUP1 MLOAD SWAP1 PUSH1 0x20 ADD SWAP1 PUSH3 0x22D SWAP3 SWAP2 SWAP1 PUSH3 0x42A JUMP JUMPDEST POP PUSH1 0x40 MLOAD DUP1 PUSH1 0x60 ADD PUSH1 0x40 MSTORE DUP1 PUSH2 0x4D2 DUP2 MSTORE PUSH1 0x20 ADD PUSH1 0x40 MLOAD DUP1 PUSH1 0x40 ADD PUSH1 0x40 MSTORE DUP1 PUSH1 0x4 DUP2 MSTORE PUSH1 0x20 ADD PUSH32 0x7261696400000000000000000000000000000000000000000000000000000000 DUP2 MSTORE POP DUP2 MSTORE PUSH1 0x20 ADD PUSH1 0x1 ISZERO ISZERO DUP2 MSTORE POP PUSH1 0x6 PUSH1 0x0 DUP3 ADD MLOAD DUP2 PUSH1 0x0 ADD SSTORE PUSH1 0x20 DUP3 ADD MLOAD DUP2 PUSH1 0x1 ADD SWAP1 DUP1 MLOAD SWAP1 PUSH1 0x20 ADD SWAP1 PUSH3 0x2AD SWAP3 SWAP2 SWAP1 PUSH3 0x42A JUMP JUMPDEST POP PUSH1 0x40 DUP3 ADD MLOAD DUP2 PUSH1 0x2 ADD PUSH1 0x0 PUSH2 0x100 EXP DUP2 SLOAD DUP2 PUSH1 0xFF MUL NOT AND SWAP1 DUP4 ISZERO ISZERO MUL OR SWAP1 SSTORE POP POP POP PUSH1 0x40 MLOAD DUP1 PUSH1 0x60 ADD PUSH1 0x40 MSTORE DUP1 PUSH3 0x2EDC7 DUP2 MSTORE PUSH1 0x20 ADD PUSH1 0x40 MLOAD DUP1 PUSH1 0x40 ADD PUSH1 0x40 MSTORE DUP1 PUSH1 0x5 DUP2 MSTORE PUSH1 0x20 ADD PUSH32 0x73616C696D000000000000000000000000000000000000000000000000000000 DUP2 MSTORE POP DUP2 MSTORE PUSH1 0x20 ADD PUSH1 0x0 ISZERO ISZERO DUP2 MSTORE POP PUSH1 0x9 PUSH1 0x0 DUP3 ADD MLOAD DUP2 PUSH1 0x0 ADD SSTORE PUSH1 0x20 DUP3 ADD MLOAD DUP2 PUSH1 0x1 ADD SWAP1 DUP1 MLOAD SWAP1 PUSH1 0x20 ADD SWAP1 PUSH3 0x350 SWAP3 SWAP2 SWAP1 PUSH3 0x42A JUMP JUMPDEST POP PUSH1 0x40 DUP3 ADD MLOAD DUP2 PUSH1 0x2 ADD PUSH1 0x0 PUSH2 0x100 EXP DUP2 SLOAD DUP2 PUSH1 0xFF MUL NOT AND SWAP1 DUP4 ISZERO ISZERO MUL OR SWAP1 SSTORE POP POP POP PUSH1 0x40 MLOAD DUP1 PUSH1 0x60 ADD PUSH1 0x40 MSTORE DUP1 PUSH3 0x2EDC7 DUP2 MSTORE PUSH1 0x20 ADD PUSH1 0x40 MLOAD DUP1 PUSH1 0x40 ADD PUSH1 0x40 MSTORE DUP1 PUSH1 0x5 DUP2 MSTORE PUSH1 0x20 ADD PUSH32 0x73616C696D000000000000000000000000000000000000000000000000000000 DUP2 MSTORE POP DUP2 MSTORE PUSH1 0x20 ADD PUSH1 0x0 ISZERO ISZERO DUP2 MSTORE POP PUSH1 0xC PUSH1 0x0 DUP3 ADD MLOAD DUP2 PUSH1 0x0 ADD SSTORE PUSH1 0x20 DUP3 ADD MLOAD DUP2 PUSH1 0x1 ADD SWAP1 DUP1 MLOAD SWAP1 PUSH1 0x20 ADD SWAP1 PUSH3 0x3F3 SWAP3 SWAP2 SWAP1 PUSH3 0x42A JUMP JUMPDEST POP PUSH1 0x40 DUP3 ADD MLOAD DUP2 PUSH1 0x2 ADD PUSH1 0x0 PUSH2 0x100 EXP DUP2 SLOAD DUP2 PUSH1 0xFF MUL NOT AND SWAP1 DUP4 ISZERO ISZERO MUL OR SWAP1 SSTORE POP POP POP CALLVALUE DUP1 ISZERO PUSH3 0x423 JUMPI PUSH1 0x0 DUP1 REVERT JUMPDEST POP PUSH3 0x66B JUMP JUMPDEST DUP3 DUP1 SLOAD PUSH3 0x438 SWAP1 PUSH3 0x606 JUMP JUMPDEST SWAP1 PUSH1 0x0 MSTORE PUSH1 0x20 PUSH1 0x0 KECCAK256 SWAP1 PUSH1 0x1F ADD PUSH1 0x20 SWAP1 DIV DUP2 ADD SWAP3 DUP3 PUSH3 0x45C JUMPI PUSH1 0x0 DUP6 SSTORE PUSH3 0x4A8 JUMP JUMPDEST DUP3 PUSH1 0x1F LT PUSH3 0x477 JUMPI DUP1 MLOAD PUSH1 0xFF NOT AND DUP4 DUP1 ADD OR DUP6 SSTORE PUSH3 0x4A8 JUMP JUMPDEST DUP3 DUP1 ADD PUSH1 0x1 ADD DUP6 SSTORE DUP3 ISZERO PUSH3 0x4A8 JUMPI SWAP2 DUP3 ADD JUMPDEST DUP3 DUP2 GT ISZERO PUSH3 0x4A7 JUMPI DUP3 MLOAD DUP3 SSTORE SWAP2 PUSH1 0x20 ADD SWAP2 SWAP1 PUSH1 0x1 ADD SWAP1 PUSH3 0x48A JUMP JUMPDEST JUMPDEST POP SWAP1 POP PUSH3 0x4B7 SWAP2 SWAP1 PUSH3 0x579 JUMP JUMPDEST POP SWAP1 JUMP JUMPDEST DUP3 DUP1 SLOAD DUP3 DUP3 SSTORE SWAP1 PUSH1 0x0 MSTORE PUSH1 0x20 PUSH1 0x0 KECCAK256 SWAP1 DUP2 ADD SWAP3 DUP3 ISZERO PUSH3 0x50F JUMPI SWAP2 PUSH1 0x20 MUL DUP3 ADD JUMPDEST DUP3 DUP2 GT ISZERO PUSH3 0x50E JUMPI DUP3 MLOAD DUP3 SWAP1 DUP1 MLOAD SWAP1 PUSH1 0x20 ADD SWAP1 PUSH3 0x4FD SWAP3 SWAP2 SWAP1 PUSH3 0x42A JUMP JUMPDEST POP SWAP2 PUSH1 0x20 ADD SWAP2 SWAP1 PUSH1 0x1 ADD SWAP1 PUSH3 0x4DC JUMP JUMPDEST JUMPDEST POP SWAP1 POP PUSH3 0x51E SWAP2 SWAP1 PUSH3 0x598 JUMP JUMPDEST POP SWAP1 JUMP JUMPDEST DUP3 DUP1 SLOAD DUP3 DUP3 SSTORE SWAP1 PUSH1 0x0 MSTORE PUSH1 0x20 PUSH1 0x0 KECCAK256 SWAP1 DUP2 ADD SWAP3 DUP3 ISZERO PUSH3 0x566 JUMPI SWAP2 PUSH1 0x20 MUL DUP3 ADD JUMPDEST DUP3 DUP2 GT ISZERO PUSH3 0x565 JUMPI DUP3 MLOAD DUP3 SWAP1 PUSH1 0xFF AND SWAP1 SSTORE SWAP2 PUSH1 0x20 ADD SWAP2 SWAP1 PUSH1 0x1 ADD SWAP1 PUSH3 0x543 JUMP JUMPDEST JUMPDEST POP SWAP1 POP PUSH3 0x575 SWAP2 SWAP1 PUSH3 0x579 JUMP JUMPDEST POP SWAP1 JUMP JUMPDEST JUMPDEST DUP1 DUP3 GT ISZERO PUSH3 0x594 JUMPI PUSH1 0x0 DUP2 PUSH1 0x0 SWAP1 SSTORE POP PUSH1 0x1 ADD PUSH3 0x57A JUMP JUMPDEST POP SWAP1 JUMP JUMPDEST JUMPDEST DUP1 DUP3 GT ISZERO PUSH3 0x5BC JUMPI PUSH1 0x0 DUP2 DUP2 PUSH3 0x5B2 SWAP2 SWAP1 PUSH3 0x5C0 JUMP JUMPDEST POP PUSH1 0x1 ADD PUSH3 0x599 JUMP JUMPDEST POP SWAP1 JUMP JUMPDEST POP DUP1 SLOAD PUSH3 0x5CE SWAP1 PUSH3 0x606 JUMP JUMPDEST PUSH1 0x0 DUP3 SSTORE DUP1 PUSH1 0x1F LT PUSH3 0x5E2 JUMPI POP PUSH3 0x603 JUMP JUMPDEST PUSH1 0x1F ADD PUSH1 0x20 SWAP1 DIV SWAP1 PUSH1 0x0 MSTORE PUSH1 0x20 PUSH1 0x0 KECCAK256 SWAP1 DUP2 ADD SWAP1 PUSH3 0x602 SWAP2 SWAP1 PUSH3 0x579 JUMP JUMPDEST JUMPDEST POP JUMP JUMPDEST PUSH1 0x0 PUSH1 0x2 DUP3 DIV SWAP1 POP PUSH1 0x1 DUP3 AND DUP1 PUSH3 0x61F JUMPI PUSH1 0x7F DUP3 AND SWAP2 POP JUMPDEST PUSH1 0x20 DUP3 LT DUP2 EQ ISZERO PUSH3 0x636 JUMPI PUSH3 0x635 PUSH3 0x63C JUMP JUMPDEST JUMPDEST POP SWAP2 SWAP1 POP JUMP JUMPDEST PUSH32 0x4E487B7100000000000000000000000000000000000000000000000000000000 PUSH1 0x0 MSTORE PUSH1 0x22 PUSH1 0x4 MSTORE PUSH1 0x24 PUSH1 0x0 REVERT JUMPDEST PUSH2 0xBE6 DUP1 PUSH3 0x67B PUSH1 0x0 CODECOPY PUSH1 0x0 RETURN INVALID PUSH1 0x80 PUSH1 0x40 MSTORE CALLVALUE DUP1 ISZERO PUSH2 0x10 JUMPI PUSH1 0x0 DUP1 REVERT JUMPDEST POP PUSH1 0x4 CALLDATASIZE LT PUSH2 0xCF JUMPI PUSH1 0x0 CALLDATALOAD PUSH1 0xE0 SHR DUP1 PUSH4 0x81D01ED3 GT PUSH2 0x8C JUMPI DUP1 PUSH4 0x9C1F8AE0 GT PUSH2 0x66 JUMPI DUP1 PUSH4 0x9C1F8AE0 EQ PUSH2 0x1E2 JUMPI DUP1 PUSH4 0xBE1C766B EQ PUSH2 0x212 JUMPI DUP1 PUSH4 0xC19D93FB EQ PUSH2 0x230 JUMPI DUP1 PUSH4 0xC2A2747B EQ PUSH2 0x24E JUMPI PUSH2 0xCF JUMP JUMPDEST DUP1 PUSH4 0x81D01ED3 EQ PUSH2 0x186 JUMPI DUP1 PUSH4 0x951578AF EQ PUSH2 0x1A6 JUMPI DUP1 PUSH4 0x95CCB57C EQ PUSH2 0x1C4 JUMPI PUSH2 0xCF JUMP JUMPDEST DUP1 PUSH4 0x17D7DE7C EQ PUSH2 0xD4 JUMPI DUP1 PUSH4 0x19FF1D21 EQ PUSH2 0xF2 JUMPI DUP1 PUSH4 0x29F3901E EQ PUSH2 0x110 JUMPI DUP1 PUSH4 0x6E219667 EQ PUSH2 0x12C JUMPI DUP1 PUSH4 0x72A818DE EQ PUSH2 0x14C JUMPI DUP1 PUSH4 0x741983C0 EQ PUSH2 0x17C JUMPI JUMPDEST PUSH1 0x0 DUP1 REVERT JUMPDEST PUSH2 0xDC PUSH2 0x26E JUMP JUMPDEST PUSH1 0x40 MLOAD PUSH2 0xE9 SWAP2 SWAP1 PUSH2 0x93B JUMP JUMPDEST PUSH1 0x40 MLOAD DUP1 SWAP2 SUB SWAP1 RETURN JUMPDEST PUSH2 0xFA PUSH2 0x300 JUMP JUMPDEST PUSH1 0x40 MLOAD PUSH2 0x107 SWAP2 SWAP1 PUSH2 0x93B JUMP JUMPDEST PUSH1 0x40 MLOAD DUP1 SWAP2 SUB SWAP1 RETURN JUMPDEST PUSH2 0x12A PUSH1 0x4 DUP1 CALLDATASIZE SUB DUP2 ADD SWAP1 PUSH2 0x125 SWAP2 SWAP1 PUSH2 0x8B7 JUMP JUMPDEST PUSH2 0x38E JUMP JUMPDEST STOP JUMPDEST PUSH2 0x134 PUSH2 0x398 JUMP JUMPDEST PUSH1 0x40 MLOAD PUSH2 0x143 SWAP4 SWAP3 SWAP2 SWAP1 PUSH2 0x978 JUMP JUMPDEST PUSH1 0x40 MLOAD DUP1 SWAP2 SUB SWAP1 RETURN JUMPDEST PUSH2 0x166 PUSH1 0x4 DUP1 CALLDATASIZE SUB DUP2 ADD SWAP1 PUSH2 0x161 SWAP2 SWAP1 PUSH2 0x8B7 JUMP JUMPDEST PUSH2 0x445 JUMP JUMPDEST PUSH1 0x40 MLOAD PUSH2 0x173 SWAP2 SWAP1 PUSH2 0x95D JUMP JUMPDEST PUSH1 0x40 MLOAD DUP1 SWAP2 SUB SWAP1 RETURN JUMPDEST PUSH2 0x184 PUSH2 0x469 JUMP JUMPDEST STOP JUMPDEST PUSH2 0x18E PUSH2 0x4C2 JUMP JUMPDEST PUSH1 0x40 MLOAD PUSH2 0x19D SWAP4 SWAP3 SWAP2 SWAP1 PUSH2 0x978 JUMP JUMPDEST PUSH1 0x40 MLOAD DUP1 SWAP2 SUB SWAP1 RETURN JUMPDEST PUSH2 0x1AE PUSH2 0x56F JUMP JUMPDEST PUSH1 0x40 MLOAD PUSH2 0x1BB SWAP2 SWAP1 PUSH2 0x95D JUMP JUMPDEST PUSH1 0x40 MLOAD DUP1 SWAP2 SUB SWAP1 RETURN JUMPDEST PUSH2 0x1CC PUSH2 0x575 JUMP JUMPDEST PUSH1 0x40 MLOAD PUSH2 0x1D9 SWAP2 SWAP1 PUSH2 0x95D JUMP JUMPDEST PUSH1 0x40 MLOAD DUP1 SWAP2 SUB SWAP1 RETURN JUMPDEST PUSH2 0x1FC PUSH1 0x4 DUP1 CALLDATASIZE SUB DUP2 ADD SWAP1 PUSH2 0x1F7 SWAP2 SWAP1 PUSH2 0x8B7 JUMP JUMPDEST PUSH2 0x5E2 JUMP JUMPDEST PUSH1 0x40 MLOAD PUSH2 0x209 SWAP2 SWAP1 PUSH2 0x93B JUMP JUMPDEST PUSH1 0x40 MLOAD DUP1 SWAP2 SUB SWAP1 RETURN JUMPDEST PUSH2 0x21A PUSH2 0x68E JUMP JUMPDEST PUSH1 0x40 MLOAD PUSH2 0x227 SWAP2 SWAP1 PUSH2 0x95D JUMP JUMPDEST PUSH1 0x40 MLOAD DUP1 SWAP2 SUB SWAP1 RETURN JUMPDEST PUSH2 0x238 PUSH2 0x69B JUMP JUMPDEST PUSH1 0x40 MLOAD PUSH2 0x245 SWAP2 SWAP1 PUSH2 0x93B JUMP JUMPDEST PUSH1 0x40 MLOAD DUP1 SWAP2 SUB SWAP1 RETURN JUMPDEST PUSH2 0x256 PUSH2 0x729 JUMP JUMPDEST PUSH1 0x40 MLOAD PUSH2 0x265 SWAP4 SWAP3 SWAP2 SWAP1 PUSH2 0x978 JUMP JUMPDEST PUSH1 0x40 MLOAD DUP1 SWAP2 SUB SWAP1 RETURN JUMPDEST PUSH1 0x60 PUSH1 0x5 DUP1 SLOAD PUSH2 0x27D SWAP1 PUSH2 0xA1B JUMP JUMPDEST DUP1 PUSH1 0x1F ADD PUSH1 0x20 DUP1 SWAP2 DIV MUL PUSH1 0x20 ADD PUSH1 0x40 MLOAD SWAP1 DUP2 ADD PUSH1 0x40 MSTORE DUP1 SWAP3 SWAP2 SWAP1 DUP2 DUP2 MSTORE PUSH1 0x20 ADD DUP3 DUP1 SLOAD PUSH2 0x2A9 SWAP1 PUSH2 0xA1B JUMP JUMPDEST DUP1 ISZERO PUSH2 0x2F6 JUMPI DUP1 PUSH1 0x1F LT PUSH2 0x2CB JUMPI PUSH2 0x100 DUP1 DUP4 SLOAD DIV MUL DUP4 MSTORE SWAP2 PUSH1 0x20 ADD SWAP2 PUSH2 0x2F6 JUMP JUMPDEST DUP3 ADD SWAP2 SWAP1 PUSH1 0x0 MSTORE PUSH1 0x20 PUSH1 0x0 KECCAK256 SWAP1 JUMPDEST DUP2 SLOAD DUP2 MSTORE SWAP1 PUSH1 0x1 ADD SWAP1 PUSH1 0x20 ADD DUP1 DUP4 GT PUSH2 0x2D9 JUMPI DUP3 SWAP1 SUB PUSH1 0x1F AND DUP3 ADD SWAP2 JUMPDEST POP POP POP POP POP SWAP1 POP SWAP1 JUMP JUMPDEST PUSH1 0x0 DUP1 SLOAD PUSH2 0x30D SWAP1 PUSH2 0xA1B JUMP JUMPDEST DUP1 PUSH1 0x1F ADD PUSH1 0x20 DUP1 SWAP2 DIV MUL PUSH1 0x20 ADD PUSH1 0x40 MLOAD SWAP1 DUP2 ADD PUSH1 0x40 MSTORE DUP1 SWAP3 SWAP2 SWAP1 DUP2 DUP2 MSTORE PUSH1 0x20 ADD DUP3 DUP1 SLOAD PUSH2 0x339 SWAP1 PUSH2 0xA1B JUMP JUMPDEST DUP1 ISZERO PUSH2 0x386 JUMPI DUP1 PUSH1 0x1F LT PUSH2 0x35B JUMPI PUSH2 0x100 DUP1 DUP4 SLOAD DIV MUL DUP4 MSTORE SWAP2 PUSH1 0x20 ADD SWAP2 PUSH2 0x386 JUMP JUMPDEST DUP3 ADD SWAP2 SWAP1 PUSH1 0x0 MSTORE PUSH1 0x20 PUSH1 0x0 KECCAK256 SWAP1 JUMPDEST DUP2 SLOAD DUP2 MSTORE SWAP1 PUSH1 0x1 ADD SWAP1 PUSH1 0x20 ADD DUP1 DUP4 GT PUSH2 0x369 JUMPI DUP3 SWAP1 SUB PUSH1 0x1F AND DUP3 ADD SWAP2 JUMPDEST POP POP POP POP POP DUP2 JUMP JUMPDEST DUP1 PUSH1 0x1 DUP2 SWAP1 SSTORE POP POP JUMP JUMPDEST PUSH1 0xC DUP1 PUSH1 0x0 ADD SLOAD SWAP1 DUP1 PUSH1 0x1 ADD DUP1 SLOAD PUSH2 0x3AF SWAP1 PUSH2 0xA1B JUMP JUMPDEST DUP1 PUSH1 0x1F ADD PUSH1 0x20 DUP1 SWAP2 DIV MUL PUSH1 0x20 ADD PUSH1 0x40 MLOAD SWAP1 DUP2 ADD PUSH1 0x40 MSTORE DUP1 SWAP3 SWAP2 SWAP1 DUP2 DUP2 MSTORE PUSH1 0x20 ADD DUP3 DUP1 SLOAD PUSH2 0x3DB SWAP1 PUSH2 0xA1B JUMP JUMPDEST DUP1 ISZERO PUSH2 0x428 JUMPI DUP1 PUSH1 0x1F LT PUSH2 0x3FD JUMPI PUSH2 0x100 DUP1 DUP4 SLOAD DIV MUL DUP4 MSTORE SWAP2 PUSH1 0x20 ADD SWAP2 PUSH2 0x428 JUMP JUMPDEST DUP3 ADD SWAP2 SWAP1 PUSH1 0x0 MSTORE PUSH1 0x20 PUSH1 0x0 KECCAK256 SWAP1 JUMPDEST DUP2 SLOAD DUP2 MSTORE SWAP1 PUSH1 0x1 ADD SWAP1 PUSH1 0x20 ADD DUP1 DUP4 GT PUSH2 0x40B JUMPI DUP3 SWAP1 SUB PUSH1 0x1F AND DUP3 ADD SWAP2 JUMPDEST POP POP POP POP POP SWAP1 DUP1 PUSH1 0x2 ADD PUSH1 0x0 SWAP1 SLOAD SWAP1 PUSH2 0x100 EXP SWAP1 DIV PUSH1 0xFF AND SWAP1 POP DUP4 JUMP JUMPDEST PUSH1 0x4 DUP2 DUP2 SLOAD DUP2 LT PUSH2 0x455 JUMPI PUSH1 0x0 DUP1 REVERT JUMPDEST SWAP1 PUSH1 0x0 MSTORE PUSH1 0x20 PUSH1 0x0 KECCAK256 ADD PUSH1 0x0 SWAP2 POP SWAP1 POP SLOAD DUP2 JUMP JUMPDEST PUSH1 0x12 PUSH1 0x1 SLOAD LT PUSH2 0x4C0 JUMPI PUSH1 0x40 MLOAD DUP1 PUSH1 0x40 ADD PUSH1 0x40 MSTORE DUP1 PUSH1 0xD DUP2 MSTORE PUSH1 0x20 ADD PUSH32 0x596F7520617265206164756C7400000000000000000000000000000000000000 DUP2 MSTORE POP PUSH1 0x2 SWAP1 DUP1 MLOAD SWAP1 PUSH1 0x20 ADD SWAP1 PUSH2 0x4BE SWAP3 SWAP2 SWAP1 PUSH2 0x7FF JUMP JUMPDEST POP JUMPDEST JUMP JUMPDEST PUSH1 0x9 DUP1 PUSH1 0x0 ADD SLOAD SWAP1 DUP1 PUSH1 0x1 ADD DUP1 SLOAD PUSH2 0x4D9 SWAP1 PUSH2 0xA1B JUMP JUMPDEST DUP1 PUSH1 0x1F ADD PUSH1 0x20 DUP1 SWAP2 DIV MUL PUSH1 0x20 ADD PUSH1 0x40 MLOAD SWAP1 DUP2 ADD PUSH1 0x40 MSTORE DUP1 SWAP3 SWAP2 SWAP1 DUP2 DUP2 MSTORE PUSH1 0x20 ADD DUP3 DUP1 SLOAD PUSH2 0x505 SWAP1 PUSH2 0xA1B JUMP JUMPDEST DUP1 ISZERO PUSH2 0x552 JUMPI DUP1 PUSH1 0x1F LT PUSH2 0x527 JUMPI PUSH2 0x100 DUP1 DUP4 SLOAD DIV MUL DUP4 MSTORE SWAP2 PUSH1 0x20 ADD SWAP2 PUSH2 0x552 JUMP JUMPDEST DUP3 ADD SWAP2 SWAP1 PUSH1 0x0 MSTORE PUSH1 0x20 PUSH1 0x0 KECCAK256 SWAP1 JUMPDEST DUP2 SLOAD DUP2 MSTORE SWAP1 PUSH1 0x1 ADD SWAP1 PUSH1 0x20 ADD DUP1 DUP4 GT PUSH2 0x535 JUMPI DUP3 SWAP1 SUB PUSH1 0x1F AND DUP3 ADD SWAP2 JUMPDEST POP POP POP POP POP SWAP1 DUP1 PUSH1 0x2 ADD PUSH1 0x0 SWAP1 SLOAD SWAP1 PUSH2 0x100 EXP SWAP1 DIV PUSH1 0xFF AND SWAP1 POP DUP4 JUMP JUMPDEST PUSH1 0x1 SLOAD DUP2 JUMP JUMPDEST PUSH1 0x0 DUP1 PUSH1 0x0 SWAP1 POP PUSH1 0x0 JUMPDEST PUSH1 0x4 DUP1 SLOAD SWAP1 POP DUP2 LT ISZERO PUSH2 0x5DA JUMPI PUSH2 0x5B3 PUSH1 0x4 DUP3 DUP2 SLOAD DUP2 LT PUSH2 0x5A3 JUMPI PUSH2 0x5A2 PUSH2 0xB54 JUMP JUMPDEST JUMPDEST SWAP1 PUSH1 0x0 MSTORE PUSH1 0x20 PUSH1 0x0 KECCAK256 ADD SLOAD PUSH2 0x7D6 JUMP JUMPDEST ISZERO PUSH2 0x5C7 JUMPI DUP2 DUP1 PUSH2 0x5C3 SWAP1 PUSH2 0xA4D JUMP JUMPDEST SWAP3 POP POP JUMPDEST DUP1 DUP1 PUSH2 0x5D2 SWAP1 PUSH2 0xA4D JUMP JUMPDEST SWAP2 POP POP PUSH2 0x57F JUMP JUMPDEST POP DUP1 SWAP2 POP POP SWAP1 JUMP JUMPDEST PUSH1 0x3 DUP2 DUP2 SLOAD DUP2 LT PUSH2 0x5F2 JUMPI PUSH1 0x0 DUP1 REVERT JUMPDEST SWAP1 PUSH1 0x0 MSTORE PUSH1 0x20 PUSH1 0x0 KECCAK256 ADD PUSH1 0x0 SWAP2 POP SWAP1 POP DUP1 SLOAD PUSH2 0x60D SWAP1 PUSH2 0xA1B JUMP JUMPDEST DUP1 PUSH1 0x1F ADD PUSH1 0x20 DUP1 SWAP2 DIV MUL PUSH1 0x20 ADD PUSH1 0x40 MLOAD SWAP1 DUP2 ADD PUSH1 0x40 MSTORE DUP1 SWAP3 SWAP2 SWAP1 DUP2 DUP2 MSTORE PUSH1 0x20 ADD DUP3 DUP1 SLOAD PUSH2 0x639 SWAP1 PUSH2 0xA1B JUMP JUMPDEST DUP1 ISZERO PUSH2 0x686 JUMPI DUP1 PUSH1 0x1F LT PUSH2 0x65B JUMPI PUSH2 0x100 DUP1 DUP4 SLOAD DIV MUL DUP4 MSTORE SWAP2 PUSH1 0x20 ADD SWAP2 PUSH2 0x686 JUMP JUMPDEST DUP3 ADD SWAP2 SWAP1 PUSH1 0x0 MSTORE PUSH1 0x20 PUSH1 0x0 KECCAK256 SWAP1 JUMPDEST DUP2 SLOAD DUP2 MSTORE SWAP1 PUSH1 0x1 ADD SWAP1 PUSH1 0x20 ADD DUP1 DUP4 GT PUSH2 0x669 JUMPI DUP3 SWAP1 SUB PUSH1 0x1F AND DUP3 ADD SWAP2 JUMPDEST POP POP POP POP POP DUP2 JUMP JUMPDEST PUSH1 0x0 PUSH1 0x3 DUP1 SLOAD SWAP1 POP SWAP1 POP SWAP1 JUMP JUMPDEST PUSH1 0x2 DUP1 SLOAD PUSH2 0x6A8 SWAP1 PUSH2 0xA1B JUMP JUMPDEST DUP1 PUSH1 0x1F ADD PUSH1 0x20 DUP1 SWAP2 DIV MUL PUSH1 0x20 ADD PUSH1 0x40 MLOAD SWAP1 DUP2 ADD PUSH1 0x40 MSTORE DUP1 SWAP3 SWAP2 SWAP1 DUP2 DUP2 MSTORE PUSH1 0x20 ADD DUP3 DUP1 SLOAD PUSH2 0x6D4 SWAP1 PUSH2 0xA1B JUMP JUMPDEST DUP1 ISZERO PUSH2 0x721 JUMPI DUP1 PUSH1 0x1F LT PUSH2 0x6F6 JUMPI PUSH2 0x100 DUP1 DUP4 SLOAD DIV MUL DUP4 MSTORE SWAP2 PUSH1 0x20 ADD SWAP2 PUSH2 0x721 JUMP JUMPDEST DUP3 ADD SWAP2 SWAP1 PUSH1 0x0 MSTORE PUSH1 0x20 PUSH1 0x0 KECCAK256 SWAP1 JUMPDEST DUP2 SLOAD DUP2 MSTORE SWAP1 PUSH1 0x1 ADD SWAP1 PUSH1 0x20 ADD DUP1 DUP4 GT PUSH2 0x704 JUMPI DUP3 SWAP1 SUB PUSH1 0x1F AND DUP3 ADD SWAP2 JUMPDEST POP POP POP POP POP DUP2 JUMP JUMPDEST PUSH1 0x6 DUP1 PUSH1 0x0 ADD SLOAD SWAP1 DUP1 PUSH1 0x1 ADD DUP1 SLOAD PUSH2 0x740 SWAP1 PUSH2 0xA1B JUMP JUMPDEST DUP1 PUSH1 0x1F ADD PUSH1 0x20 DUP1 SWAP2 DIV MUL PUSH1 0x20 ADD PUSH1 0x40 MLOAD SWAP1 DUP2 ADD PUSH1 0x40 MSTORE DUP1 SWAP3 SWAP2 SWAP1 DUP2 DUP2 MSTORE PUSH1 0x20 ADD DUP3 DUP1 SLOAD PUSH2 0x76C SWAP1 PUSH2 0xA1B JUMP JUMPDEST DUP1 ISZERO PUSH2 0x7B9 JUMPI DUP1 PUSH1 0x1F LT PUSH2 0x78E JUMPI PUSH2 0x100 DUP1 DUP4 SLOAD DIV MUL DUP4 MSTORE SWAP2 PUSH1 0x20 ADD SWAP2 PUSH2 0x7B9 JUMP JUMPDEST DUP3 ADD SWAP2 SWAP1 PUSH1 0x0 MSTORE PUSH1 0x20 PUSH1 0x0 KECCAK256 SWAP1 JUMPDEST DUP2 SLOAD DUP2 MSTORE SWAP1 PUSH1 0x1 ADD SWAP1 PUSH1 0x20 ADD DUP1 DUP4 GT PUSH2 0x79C JUMPI DUP3 SWAP1 SUB PUSH1 0x1F AND DUP3 ADD SWAP2 JUMPDEST POP POP POP POP POP SWAP1 DUP1 PUSH1 0x2 ADD PUSH1 0x0 SWAP1 SLOAD SWAP1 PUSH2 0x100 EXP SWAP1 DIV PUSH1 0xFF AND SWAP1 POP DUP4 JUMP JUMPDEST PUSH1 0x0 DUP1 PUSH1 0x2 DUP4 PUSH2 0x7E6 SWAP2 SWAP1 PUSH2 0xA96 JUMP JUMPDEST EQ ISZERO PUSH2 0x7F5 JUMPI PUSH1 0x1 SWAP1 POP PUSH2 0x7FA JUMP JUMPDEST PUSH1 0x0 SWAP1 POP JUMPDEST SWAP2 SWAP1 POP JUMP JUMPDEST DUP3 DUP1 SLOAD PUSH2 0x80B SWAP1 PUSH2 0xA1B JUMP JUMPDEST SWAP1 PUSH1 0x0 MSTORE PUSH1 0x20 PUSH1 0x0 KECCAK256 SWAP1 PUSH1 0x1F ADD PUSH1 0x20 SWAP1 DIV DUP2 ADD SWAP3 DUP3 PUSH2 0x82D JUMPI PUSH1 0x0 DUP6 SSTORE PUSH2 0x874 JUMP JUMPDEST DUP3 PUSH1 0x1F LT PUSH2 0x846 JUMPI DUP1 MLOAD PUSH1 0xFF NOT AND DUP4 DUP1 ADD OR DUP6 SSTORE PUSH2 0x874 JUMP JUMPDEST DUP3 DUP1 ADD PUSH1 0x1 ADD DUP6 SSTORE DUP3 ISZERO PUSH2 0x874 JUMPI SWAP2 DUP3 ADD JUMPDEST DUP3 DUP2 GT ISZERO PUSH2 0x873 JUMPI DUP3 MLOAD DUP3 SSTORE SWAP2 PUSH1 0x20 ADD SWAP2 SWAP1 PUSH1 0x1 ADD SWAP1 PUSH2 0x858 JUMP JUMPDEST JUMPDEST POP SWAP1 POP PUSH2 0x881 SWAP2 SWAP1 PUSH2 0x885 JUMP JUMPDEST POP SWAP1 JUMP JUMPDEST JUMPDEST DUP1 DUP3 GT ISZERO PUSH2 0x89E JUMPI PUSH1 0x0 DUP2 PUSH1 0x0 SWAP1 SSTORE POP PUSH1 0x1 ADD PUSH2 0x886 JUMP JUMPDEST POP SWAP1 JUMP JUMPDEST PUSH1 0x0 DUP2 CALLDATALOAD SWAP1 POP PUSH2 0x8B1 DUP2 PUSH2 0xB99 JUMP JUMPDEST SWAP3 SWAP2 POP POP JUMP JUMPDEST PUSH1 0x0 PUSH1 0x20 DUP3 DUP5 SUB SLT ISZERO PUSH2 0x8CD JUMPI PUSH2 0x8CC PUSH2 0xB83 JUMP JUMPDEST JUMPDEST PUSH1 0x0 PUSH2 0x8DB DUP5 DUP3 DUP6 ADD PUSH2 0x8A2 JUMP JUMPDEST SWAP2 POP POP SWAP3 SWAP2 POP POP JUMP JUMPDEST PUSH2 0x8ED DUP2 PUSH2 0x9D2 JUMP JUMPDEST DUP3 MSTORE POP POP JUMP JUMPDEST PUSH1 0x0 PUSH2 0x8FE DUP3 PUSH2 0x9B6 JUMP JUMPDEST PUSH2 0x908 DUP2 DUP6 PUSH2 0x9C1 JUMP JUMPDEST SWAP4 POP PUSH2 0x918 DUP2 DUP6 PUSH1 0x20 DUP7 ADD PUSH2 0x9E8 JUMP JUMPDEST PUSH2 0x921 DUP2 PUSH2 0xB88 JUMP JUMPDEST DUP5 ADD SWAP2 POP POP SWAP3 SWAP2 POP POP JUMP JUMPDEST PUSH2 0x935 DUP2 PUSH2 0x9DE JUMP JUMPDEST DUP3 MSTORE POP POP JUMP JUMPDEST PUSH1 0x0 PUSH1 0x20 DUP3 ADD SWAP1 POP DUP2 DUP2 SUB PUSH1 0x0 DUP4 ADD MSTORE PUSH2 0x955 DUP2 DUP5 PUSH2 0x8F3 JUMP JUMPDEST SWAP1 POP SWAP3 SWAP2 POP POP JUMP JUMPDEST PUSH1 0x0 PUSH1 0x20 DUP3 ADD SWAP1 POP PUSH2 0x972 PUSH1 0x0 DUP4 ADD DUP5 PUSH2 0x92C JUMP JUMPDEST SWAP3 SWAP2 POP POP JUMP JUMPDEST PUSH1 0x0 PUSH1 0x60 DUP3 ADD SWAP1 POP PUSH2 0x98D PUSH1 0x0 DUP4 ADD DUP7 PUSH2 0x92C JUMP JUMPDEST DUP2 DUP2 SUB PUSH1 0x20 DUP4 ADD MSTORE PUSH2 0x99F DUP2 DUP6 PUSH2 0x8F3 JUMP JUMPDEST SWAP1 POP PUSH2 0x9AE PUSH1 0x40 DUP4 ADD DUP5 PUSH2 0x8E4 JUMP JUMPDEST SWAP5 SWAP4 POP POP POP POP JUMP JUMPDEST PUSH1 0x0 DUP2 MLOAD SWAP1 POP SWAP2 SWAP1 POP JUMP JUMPDEST PUSH1 0x0 DUP3 DUP3 MSTORE PUSH1 0x20 DUP3 ADD SWAP1 POP SWAP3 SWAP2 POP POP JUMP JUMPDEST PUSH1 0x0 DUP2 ISZERO ISZERO SWAP1 POP SWAP2 SWAP1 POP JUMP JUMPDEST PUSH1 0x0 DUP2 SWAP1 POP SWAP2 SWAP1 POP JUMP JUMPDEST PUSH1 0x0 JUMPDEST DUP4 DUP2 LT ISZERO PUSH2 0xA06 JUMPI DUP1 DUP3 ADD MLOAD DUP2 DUP5 ADD MSTORE PUSH1 0x20 DUP2 ADD SWAP1 POP PUSH2 0x9EB JUMP JUMPDEST DUP4 DUP2 GT ISZERO PUSH2 0xA15 JUMPI PUSH1 0x0 DUP5 DUP5 ADD MSTORE JUMPDEST POP POP POP POP JUMP JUMPDEST PUSH1 0x0 PUSH1 0x2 DUP3 DIV SWAP1 POP PUSH1 0x1 DUP3 AND DUP1 PUSH2 0xA33 JUMPI PUSH1 0x7F DUP3 AND SWAP2 POP JUMPDEST PUSH1 0x20 DUP3 LT DUP2 EQ ISZERO PUSH2 0xA47 JUMPI PUSH2 0xA46 PUSH2 0xB25 JUMP JUMPDEST JUMPDEST POP SWAP2 SWAP1 POP JUMP JUMPDEST PUSH1 0x0 PUSH2 0xA58 DUP3 PUSH2 0x9DE JUMP JUMPDEST SWAP2 POP PUSH32 0xFFFFFFFFFFFFFFFFFFFFFFFFFFFFFFFFFFFFFFFFFFFFFFFFFFFFFFFFFFFFFFFF DUP3 EQ ISZERO PUSH2 0xA8B JUMPI PUSH2 0xA8A PUSH2 0xAC7 JUMP JUMPDEST JUMPDEST PUSH1 0x1 DUP3 ADD SWAP1 POP SWAP2 SWAP1 POP JUMP JUMPDEST PUSH1 0x0 PUSH2 0xAA1 DUP3 PUSH2 0x9DE JUMP JUMPDEST SWAP2 POP PUSH2 0xAAC DUP4 PUSH2 0x9DE JUMP JUMPDEST SWAP3 POP DUP3 PUSH2 0xABC JUMPI PUSH2 0xABB PUSH2 0xAF6 JUMP JUMPDEST JUMPDEST DUP3 DUP3 MOD SWAP1 POP SWAP3 SWAP2 POP POP JUMP JUMPDEST PUSH32 0x4E487B7100000000000000000000000000000000000000000000000000000000 PUSH1 0x0 MSTORE PUSH1 0x11 PUSH1 0x4 MSTORE PUSH1 0x24 PUSH1 0x0 REVERT JUMPDEST PUSH32 0x4E487B7100000000000000000000000000000000000000000000000000000000 PUSH1 0x0 MSTORE PUSH1 0x12 PUSH1 0x4 MSTORE PUSH1 0x24 PUSH1 0x0 REVERT JUMPDEST PUSH32 0x4E487B7100000000000000000000000000000000000000000000000000000000 PUSH1 0x0 MSTORE PUSH1 0x22 PUSH1 0x4 MSTORE PUSH1 0x24 PUSH1 0x0 REVERT JUMPDEST PUSH32 0x4E487B7100000000000000000000000000000000000000000000000000000000 PUSH1 0x0 MSTORE PUSH1 0x32 PUSH1 0x4 MSTORE PUSH1 0x24 PUSH1 0x0 REVERT JUMPDEST PUSH1 0x0 DUP1 REVERT JUMPDEST PUSH1 0x0 PUSH1 0x1F NOT PUSH1 0x1F DUP4 ADD AND SWAP1 POP SWAP2 SWAP1 POP JUMP JUMPDEST PUSH2 0xBA2 DUP2 PUSH2 0x9DE JUMP JUMPDEST DUP2 EQ PUSH2 0xBAD JUMPI PUSH1 0x0 DUP1 REVERT JUMPDEST POP JUMP INVALID LOG2 PUSH5 0x6970667358 0x22 SLT KECCAK256 0xB0 0xAE 0xAD 0xF PUSH15 0x293738A53951ADBB720D87B4F6610C ADDRESS 0xD7 PUSH18 0xBD72FF80A4A2CA93664736F6C6343000807 STOP CALLER "
				},
				"gasEstimates": {
					"creation": {
						"codeDepositCost": "609200",
						"executionCost": "infinite",
						"totalCost": "infinite"
					},
					"external": {
						"checkAge()": "infinite",
						"countNumber()": "infinite",
						"getLength()": "2489",
						"getMyAge(uint256)": "22565",
						"getName()": "infinite",
						"hello()": "infinite",
						"myage()": "2474",
						"nbr(uint256)": "infinite",
						"p1()": "infinite",
						"p2()": "infinite",
						"p3()": "infinite",
						"state()": "infinite",
						"web3(uint256)": "infinite"
					},
					"internal": {
						"isEven(uint256)": "infinite"
					}
				},
				"methodIdentifiers": {
					"checkAge()": "741983c0",
					"countNumber()": "95ccb57c",
					"getLength()": "be1c766b",
					"getMyAge(uint256)": "29f3901e",
					"getName()": "17d7de7c",
					"hello()": "19ff1d21",
					"myage()": "951578af",
					"nbr(uint256)": "72a818de",
					"p1()": "c2a2747b",
					"p2()": "81d01ed3",
					"p3()": "6e219667",
					"state()": "c19d93fb",
					"web3(uint256)": "9c1f8ae0"
				}
			},
			"storageLayout": {
				"storage": [
					{
						"astId": 4,
						"contract": "contracts/MainContract.sol:Main",
						"label": "hello",
						"offset": 0,
						"slot": "0",
						"type": "t_string_storage"
					},
					{
						"astId": 7,
						"contract": "contracts/MainContract.sol:Main",
						"label": "myage",
						"offset": 0,
						"slot": "1",
						"type": "t_uint256"
					},
					{
						"astId": 19,
						"contract": "contracts/MainContract.sol:Main",
						"label": "state",
						"offset": 0,
						"slot": "2",
						"type": "t_string_storage"
					},
					{
						"astId": 39,
						"contract": "contracts/MainContract.sol:Main",
						"label": "web3",
						"offset": 0,
						"slot": "3",
						"type": "t_array(t_string_storage)dyn_storage"
					},
					{
						"astId": 62,
						"contract": "contracts/MainContract.sol:Main",
						"label": "nbr",
						"offset": 0,
						"slot": "4",
						"type": "t_array(t_uint256)dyn_storage"
					},
					{
						"astId": 117,
						"contract": "contracts/MainContract.sol:Main",
						"label": "name",
						"offset": 0,
						"slot": "5",
						"type": "t_string_storage"
					},
					{
						"astId": 140,
						"contract": "contracts/MainContract.sol:Main",
						"label": "p1",
						"offset": 0,
						"slot": "6",
						"type": "t_struct(Person)132_storage"
					},
					{
						"astId": 148,
						"contract": "contracts/MainContract.sol:Main",
						"label": "p2",
						"offset": 0,
						"slot": "9",
						"type": "t_struct(Person)132_storage"
					},
					{
						"astId": 156,
						"contract": "contracts/MainContract.sol:Main",
						"label": "p3",
						"offset": 0,
						"slot": "12",
						"type": "t_struct(Person)132_storage"
					}
				],
				"types": {
					"t_array(t_string_storage)dyn_storage": {
						"base": "t_string_storage",
						"encoding": "dynamic_array",
						"label": "string[]",
						"numberOfBytes": "32"
					},
					"t_array(t_uint256)dyn_storage": {
						"base": "t_uint256",
						"encoding": "dynamic_array",
						"label": "uint256[]",
						"numberOfBytes": "32"
					},
					"t_bool": {
						"encoding": "inplace",
						"label": "bool",
						"numberOfBytes": "1"
					},
					"t_string_storage": {
						"encoding": "bytes",
						"label": "string",
						"numberOfBytes": "32"
					},
					"t_struct(Person)132_storage": {
						"encoding": "inplace",
						"label": "struct Main.Person",
						"members": [
							{
								"astId": 127,
								"contract": "contracts/MainContract.sol:Main",
								"label": "id",
								"offset": 0,
								"slot": "0",
								"type": "t_uint256"
							},
							{
								"astId": 129,
								"contract": "contracts/MainContract.sol:Main",
								"label": "name",
								"offset": 0,
								"slot": "1",
								"type": "t_string_storage"
							},
							{
								"astId": 131,
								"contract": "contracts/MainContract.sol:Main",
								"label": "alive",
								"offset": 0,
								"slot": "2",
								"type": "t_bool"
							}
						],
						"numberOfBytes": "96"
					},
					"t_uint256": {
						"encoding": "inplace",
						"label": "uint256",
						"numberOfBytes": "32"
					}
				}
			},
			"userdoc": {
				"kind": "user",
				"methods": {},
				"version": 1
			}
		}
	}
}